[
   {
      "body" : "I'm confused.  What commands did you use to create the raw transaction?  The raw transaction API never checks balances, you tell it which unspent transaction outputs to use.\r\n",
      "created_at" : "2014-03-12T23:57:44Z",
      "html_url" : "https://github.com/bitcoin/bitcoin/issues/3859#issuecomment-37483979",
      "id" : 37483979,
      "issue_url" : "https://api.github.com/repos/bitcoin/bitcoin/issues/3859",
      "updated_at" : "2014-03-12T23:57:44Z",
      "url" : "https://api.github.com/repos/bitcoin/bitcoin/issues/comments/37483979",
      "user" : {
         "avatar_url" : "https://avatars.githubusercontent.com/u/331997?v=3",
         "events_url" : "https://api.github.com/users/gavinandresen/events{/privacy}",
         "followers_url" : "https://api.github.com/users/gavinandresen/followers",
         "following_url" : "https://api.github.com/users/gavinandresen/following{/other_user}",
         "gists_url" : "https://api.github.com/users/gavinandresen/gists{/gist_id}",
         "gravatar_id" : "",
         "html_url" : "https://github.com/gavinandresen",
         "id" : 331997,
         "login" : "gavinandresen",
         "organizations_url" : "https://api.github.com/users/gavinandresen/orgs",
         "received_events_url" : "https://api.github.com/users/gavinandresen/received_events",
         "repos_url" : "https://api.github.com/users/gavinandresen/repos",
         "site_admin" : false,
         "starred_url" : "https://api.github.com/users/gavinandresen/starred{/owner}{/repo}",
         "subscriptions_url" : "https://api.github.com/users/gavinandresen/subscriptions",
         "type" : "User",
         "url" : "https://api.github.com/users/gavinandresen"
      }
   },
   {
      "body" : "@gavinandresen \r\n./bitcoind createrawtransaction '[{\"txid\":\"98ce7b1e52532768f723608555154f2d72ff9794a3a2b05d896a56b4a3773018\",\"vout\":0,\"scriptPubKey\":\"a914bfe44905713c4c7c50e01f4a4a2013cb13dab6c387\",\"redeemScript\":\"522103bdbcfa53f42f3f8013e7b3b29907ddcaf7a5e5c5938c38470ddeadcab18a479b210357a44da8b8058914c7c5e2f3647296ed35322a5329275f58d714a8af5764274021025edcf4ce9331f82a6a39857a3b06e685f0b2047a1d4ab83a75a61afd204a28b653ae\"}]' '{\"n3DHibtRCQnEGgsdWtewTAb5gVETbRTqf5\":0.09,\"mxYszJzH34CxFN9odR5eAjq8sAxQ7wXbhf\":0.0099}'\r\n\r\nafter both signed (spend from a 2 of 3)\r\n./bitcoind sendrawtransaction 0100000001183077a3b4566a895db0a2a39497ff722d4f1555856023f7682753521e7bce9800000000fdff00004830450221009e07e22bf4697fab63302032cfe4ab6b8d21611b41f8b22462b857ec1fa7e76e0220483aac02e8e67995e6b236691efc17f4aba9331d83a09d2c3410815ea50d92b7014930460221009a2e4cfa4ca8464223297f643dba62469967c86e66d6be2cd0c29657f900d0d0022100e2203872e32f582100c9f8644bf46ecefbecbb3d0fb57f89fd6da181c6181830014c69522103bdbcfa53f42f3f8013e7b3b29907ddcaf7a5e5c5938c38470ddeadcab18a479b210357a44da8b8058914c7c5e2f3647296ed35322a5329275f58d714a8af5764274021025edcf4ce9331f82a6a39857a3b06e685f0b2047a1d4ab83a75a61afd204a28b653aeffffffff0240548900000000001976a914edfb7e5f37f0e09eb917327fc42d81e62bbf443588ac301b0f00000000001976a914bad76037c3c4c31c57806de92bc35417a3f4c04b88ac00000000\r\n\r\nerror: {\"code\":-22,\"message\":\"TX rejected\"}\r\n\r\nfound in debug.log\r\nERROR: CheckInputs() : 6cc1a87f44d327bbec00d2e7128735556e9e1f8f8df583b7fa4e7c377b0b0d97 value in 9910000 < value 9990000 out\r\nERROR: AcceptToMemoryPool: : ConnectInputs failed 6cc1a87f44d327bbec00d2e7128735556e9e1f8f8df583b7fa4e7c377b0b0d97",
      "created_at" : "2014-03-13T00:06:34Z",
      "html_url" : "https://github.com/bitcoin/bitcoin/issues/3859#issuecomment-37484585",
      "id" : 37484585,
      "issue_url" : "https://api.github.com/repos/bitcoin/bitcoin/issues/3859",
      "updated_at" : "2014-03-13T00:06:34Z",
      "url" : "https://api.github.com/repos/bitcoin/bitcoin/issues/comments/37484585",
      "user" : {
         "avatar_url" : "https://avatars.githubusercontent.com/u/6935257?v=3",
         "events_url" : "https://api.github.com/users/codefinderin/events{/privacy}",
         "followers_url" : "https://api.github.com/users/codefinderin/followers",
         "following_url" : "https://api.github.com/users/codefinderin/following{/other_user}",
         "gists_url" : "https://api.github.com/users/codefinderin/gists{/gist_id}",
         "gravatar_id" : "",
         "html_url" : "https://github.com/codefinderin",
         "id" : 6935257,
         "login" : "codefinderin",
         "organizations_url" : "https://api.github.com/users/codefinderin/orgs",
         "received_events_url" : "https://api.github.com/users/codefinderin/received_events",
         "repos_url" : "https://api.github.com/users/codefinderin/repos",
         "site_admin" : false,
         "starred_url" : "https://api.github.com/users/codefinderin/starred{/owner}{/repo}",
         "subscriptions_url" : "https://api.github.com/users/codefinderin/subscriptions",
         "type" : "User",
         "url" : "https://api.github.com/users/codefinderin"
      }
   },
   {
      "body" : "See pull request #3730 which improves the error message when sendrawtransaction failed (help test/improve, please!).\r\n\r\ncreaterawtransaction doesn't look up previous transaction output amounts (by design-- if it did, you couldn't create a chain of dependent transactions), so doesn't know the total value in. signrawtransaction is designed to work when you don't know all the transaction inputs, so it can't figure out whether or not you included enough value in to cover the value out.\r\n\r\nSo having sendrawtransaction fail with a better error message is the best that can be done (but @sipa has a proposal for a different createrawtransaction that would do more for you).\r\n",
      "created_at" : "2014-03-13T00:32:36Z",
      "html_url" : "https://github.com/bitcoin/bitcoin/issues/3859#issuecomment-37486718",
      "id" : 37486718,
      "issue_url" : "https://api.github.com/repos/bitcoin/bitcoin/issues/3859",
      "updated_at" : "2014-03-13T00:32:36Z",
      "url" : "https://api.github.com/repos/bitcoin/bitcoin/issues/comments/37486718",
      "user" : {
         "avatar_url" : "https://avatars.githubusercontent.com/u/331997?v=3",
         "events_url" : "https://api.github.com/users/gavinandresen/events{/privacy}",
         "followers_url" : "https://api.github.com/users/gavinandresen/followers",
         "following_url" : "https://api.github.com/users/gavinandresen/following{/other_user}",
         "gists_url" : "https://api.github.com/users/gavinandresen/gists{/gist_id}",
         "gravatar_id" : "",
         "html_url" : "https://github.com/gavinandresen",
         "id" : 331997,
         "login" : "gavinandresen",
         "organizations_url" : "https://api.github.com/users/gavinandresen/orgs",
         "received_events_url" : "https://api.github.com/users/gavinandresen/received_events",
         "repos_url" : "https://api.github.com/users/gavinandresen/repos",
         "site_admin" : false,
         "starred_url" : "https://api.github.com/users/gavinandresen/starred{/owner}{/repo}",
         "subscriptions_url" : "https://api.github.com/users/gavinandresen/subscriptions",
         "type" : "User",
         "url" : "https://api.github.com/users/gavinandresen"
      }
   },
   {
      "body" : "@gavinandresen \r\njust did, got this:\r\n./bitcoind9 sendrawtransaction 0100000001183077a3b4566a895db0a2a39497ff722d4f1555856023f7682753521e7bce9800000000fdfe00004830450221009e07e22bf4697fab63302032cfe4ab6b8d21611b41f8b22462b857ec1fa7e76e0220483aac02e8e67995e6b236691efc17f4aba9331d83a09d2c3410815ea50d92b701483045022049592518e84d85c1fa579d03e57ef732180d4523d47552b4769edd18ceff5ebb022100e5924fcc46a138289a253e6e4e7219515cc5df4c48423e1ac02bc18ef6fd0dbd014c69522103bdbcfa53f42f3f8013e7b3b29907ddcaf7a5e5c5938c38470ddeadcab18a479b210357a44da8b8058914c7c5e2f3647296ed35322a5329275f58d714a8af5764274021025edcf4ce9331f82a6a39857a3b06e685f0b2047a1d4ab83a75a61afd204a28b653aeffffffff0240548900000000001976a914edfb7e5f37f0e09eb917327fc42d81e62bbf443588ac301b0f00000000001976a914bad76037c3c4c31c57806de92bc35417a3f4c04b88ac00000000\r\nerror: {\"code\":-25,\"message\":\"18: bad-txns-inputs-spent\"}\r\n\r\nfound in debug.log\r\nERROR: AcceptToMemoryPool : inputs already spent\r\n\r\nhowever, there is no spend in block explorer, check at here:\r\nhttps://www.biteasy.com/testnet/addresses/2NAjrXTdtt2f8YhX8LGa73uxHEEj3pCVkzC",
      "created_at" : "2014-03-13T00:56:13Z",
      "html_url" : "https://github.com/bitcoin/bitcoin/issues/3859#issuecomment-37488988",
      "id" : 37488988,
      "issue_url" : "https://api.github.com/repos/bitcoin/bitcoin/issues/3859",
      "updated_at" : "2014-03-13T00:56:13Z",
      "url" : "https://api.github.com/repos/bitcoin/bitcoin/issues/comments/37488988",
      "user" : {
         "avatar_url" : "https://avatars.githubusercontent.com/u/6935257?v=3",
         "events_url" : "https://api.github.com/users/codefinderin/events{/privacy}",
         "followers_url" : "https://api.github.com/users/codefinderin/followers",
         "following_url" : "https://api.github.com/users/codefinderin/following{/other_user}",
         "gists_url" : "https://api.github.com/users/codefinderin/gists{/gist_id}",
         "gravatar_id" : "",
         "html_url" : "https://github.com/codefinderin",
         "id" : 6935257,
         "login" : "codefinderin",
         "organizations_url" : "https://api.github.com/users/codefinderin/orgs",
         "received_events_url" : "https://api.github.com/users/codefinderin/received_events",
         "repos_url" : "https://api.github.com/users/codefinderin/repos",
         "site_admin" : false,
         "starred_url" : "https://api.github.com/users/codefinderin/starred{/owner}{/repo}",
         "subscriptions_url" : "https://api.github.com/users/codefinderin/subscriptions",
         "type" : "User",
         "url" : "https://api.github.com/users/codefinderin"
      }
   },
   {
      "body" : "./bitcoind9 decoderawtransaction:\r\n{\r\n    \"txid\" : \"89a84859f15f8adec5fa7db5e31fbc7cbf5b3d7e2ddf9e6f347d45f469e8f50f\",\r\n    \"version\" : 1,\r\n    \"locktime\" : 0,\r\n    \"vin\" : [\r\n        {\r\n            \"txid\" : \"98ce7b1e52532768f723608555154f2d72ff9794a3a2b05d896a56b4a3773018\",\r\n            \"vout\" : 0,\r\n            \"scriptSig\" : {\r\n                \"asm\" : \"0 30450221009e07e22bf4697fab63302032cfe4ab6b8d21611b41f8b22462b857ec1fa7e76e0220483aac02e8e67995e6b236691efc17f4aba9331d83a09d2c3410815ea50d92b701 3045022049592518e84d85c1fa579d03e57ef732180d4523d47552b4769edd18ceff5ebb022100e5924fcc46a138289a253e6e4e7219515cc5df4c48423e1ac02bc18ef6fd0dbd01 522103bdbcfa53f42f3f8013e7b3b29907ddcaf7a5e5c5938c38470ddeadcab18a479b210357a44da8b8058914c7c5e2f3647296ed35322a5329275f58d714a8af5764274021025edcf4ce9331f82a6a39857a3b06e685f0b2047a1d4ab83a75a61afd204a28b653ae\",\r\n                \"hex\" : \"004830450221009e07e22bf4697fab63302032cfe4ab6b8d21611b41f8b22462b857ec1fa7e76e0220483aac02e8e67995e6b236691efc17f4aba9331d83a09d2c3410815ea50d92b701483045022049592518e84d85c1fa579d03e57ef732180d4523d47552b4769edd18ceff5ebb022100e5924fcc46a138289a253e6e4e7219515cc5df4c48423e1ac02bc18ef6fd0dbd014c69522103bdbcfa53f42f3f8013e7b3b29907ddcaf7a5e5c5938c38470ddeadcab18a479b210357a44da8b8058914c7c5e2f3647296ed35322a5329275f58d714a8af5764274021025edcf4ce9331f82a6a39857a3b06e685f0b2047a1d4ab83a75a61afd204a28b653ae\"\r\n            },\r\n            \"sequence\" : 4294967295\r\n        }\r\n    ],\r\n    \"vout\" : [\r\n        {\r\n            \"value\" : 0.09000000,\r\n            \"n\" : 0,\r\n            \"scriptPubKey\" : {\r\n                \"asm\" : \"OP_DUP OP_HASH160 edfb7e5f37f0e09eb917327fc42d81e62bbf4435 OP_EQUALVERIFY OP_CHECKSIG\",\r\n                \"hex\" : \"76a914edfb7e5f37f0e09eb917327fc42d81e62bbf443588ac\",\r\n                \"reqSigs\" : 1,\r\n                \"type\" : \"pubkeyhash\",\r\n                \"addresses\" : [\r\n                    \"n3DHibtRCQnEGgsdWtewTAb5gVETbRTqf5\"\r\n                ]\r\n            }\r\n        },\r\n        {\r\n            \"value\" : 0.00990000,\r\n            \"n\" : 1,\r\n            \"scriptPubKey\" : {\r\n                \"asm\" : \"OP_DUP OP_HASH160 bad76037c3c4c31c57806de92bc35417a3f4c04b OP_EQUALVERIFY OP_CHECKSIG\",\r\n                \"hex\" : \"76a914bad76037c3c4c31c57806de92bc35417a3f4c04b88ac\",\r\n                \"reqSigs\" : 1,\r\n                \"type\" : \"pubkeyhash\",\r\n                \"addresses\" : [\r\n                    \"mxYszJzH34CxFN9odR5eAjq8sAxQ7wXbhf\"\r\n                ]\r\n            }\r\n        }\r\n    ]\r\n}\r\n\r\nthe \"txid\" : \"98ce7b1e52532768f723608555154f2d72ff9794a3a2b05d896a56b4a3773018\" is correct",
      "created_at" : "2014-03-13T00:58:34Z",
      "html_url" : "https://github.com/bitcoin/bitcoin/issues/3859#issuecomment-37489126",
      "id" : 37489126,
      "issue_url" : "https://api.github.com/repos/bitcoin/bitcoin/issues/3859",
      "updated_at" : "2014-03-13T00:58:34Z",
      "url" : "https://api.github.com/repos/bitcoin/bitcoin/issues/comments/37489126",
      "user" : {
         "avatar_url" : "https://avatars.githubusercontent.com/u/6935257?v=3",
         "events_url" : "https://api.github.com/users/codefinderin/events{/privacy}",
         "followers_url" : "https://api.github.com/users/codefinderin/followers",
         "following_url" : "https://api.github.com/users/codefinderin/following{/other_user}",
         "gists_url" : "https://api.github.com/users/codefinderin/gists{/gist_id}",
         "gravatar_id" : "",
         "html_url" : "https://github.com/codefinderin",
         "id" : 6935257,
         "login" : "codefinderin",
         "organizations_url" : "https://api.github.com/users/codefinderin/orgs",
         "received_events_url" : "https://api.github.com/users/codefinderin/received_events",
         "repos_url" : "https://api.github.com/users/codefinderin/repos",
         "site_admin" : false,
         "starred_url" : "https://api.github.com/users/codefinderin/starred{/owner}{/repo}",
         "subscriptions_url" : "https://api.github.com/users/codefinderin/subscriptions",
         "type" : "User",
         "url" : "https://api.github.com/users/codefinderin"
      }
   },
   {
      "body" : "i tried to create another new raw and send it with bitcoind version 0.9 +  #3730 \r\nit works well through the new version, https://www.biteasy.com/testnet/transactions/6c3885ec45836f1b8db96865ef581fd233d27893ed68eff2bd66a3c264f46103\r\n\r\nno more value in < value out issue\r\n\r\nthere must be something wrong in the difference between 0.8.6 & 0.9 +  #3730 , what is it? because this time my address randomly in the first place of tx.vout so the bitcoind found the correct 0.1 amount? this can't be good, and where is the previous missing \"already spent\" tx?",
      "created_at" : "2014-03-13T01:13:15Z",
      "html_url" : "https://github.com/bitcoin/bitcoin/issues/3859#issuecomment-37489893",
      "id" : 37489893,
      "issue_url" : "https://api.github.com/repos/bitcoin/bitcoin/issues/3859",
      "updated_at" : "2014-03-13T01:19:46Z",
      "url" : "https://api.github.com/repos/bitcoin/bitcoin/issues/comments/37489893",
      "user" : {
         "avatar_url" : "https://avatars.githubusercontent.com/u/6935257?v=3",
         "events_url" : "https://api.github.com/users/codefinderin/events{/privacy}",
         "followers_url" : "https://api.github.com/users/codefinderin/followers",
         "following_url" : "https://api.github.com/users/codefinderin/following{/other_user}",
         "gists_url" : "https://api.github.com/users/codefinderin/gists{/gist_id}",
         "gravatar_id" : "",
         "html_url" : "https://github.com/codefinderin",
         "id" : 6935257,
         "login" : "codefinderin",
         "organizations_url" : "https://api.github.com/users/codefinderin/orgs",
         "received_events_url" : "https://api.github.com/users/codefinderin/received_events",
         "repos_url" : "https://api.github.com/users/codefinderin/repos",
         "site_admin" : false,
         "starred_url" : "https://api.github.com/users/codefinderin/starred{/owner}{/repo}",
         "subscriptions_url" : "https://api.github.com/users/codefinderin/subscriptions",
         "type" : "User",
         "url" : "https://api.github.com/users/codefinderin"
      }
   },
   {
      "body" : "i see, the vout in createrawtransaction should match the output order in the income TX",
      "created_at" : "2014-03-13T21:06:18Z",
      "html_url" : "https://github.com/bitcoin/bitcoin/issues/3859#issuecomment-37586844",
      "id" : 37586844,
      "issue_url" : "https://api.github.com/repos/bitcoin/bitcoin/issues/3859",
      "updated_at" : "2014-03-13T21:06:18Z",
      "url" : "https://api.github.com/repos/bitcoin/bitcoin/issues/comments/37586844",
      "user" : {
         "avatar_url" : "https://avatars.githubusercontent.com/u/6935257?v=3",
         "events_url" : "https://api.github.com/users/codefinderin/events{/privacy}",
         "followers_url" : "https://api.github.com/users/codefinderin/followers",
         "following_url" : "https://api.github.com/users/codefinderin/following{/other_user}",
         "gists_url" : "https://api.github.com/users/codefinderin/gists{/gist_id}",
         "gravatar_id" : "",
         "html_url" : "https://github.com/codefinderin",
         "id" : 6935257,
         "login" : "codefinderin",
         "organizations_url" : "https://api.github.com/users/codefinderin/orgs",
         "received_events_url" : "https://api.github.com/users/codefinderin/received_events",
         "repos_url" : "https://api.github.com/users/codefinderin/repos",
         "site_admin" : false,
         "starred_url" : "https://api.github.com/users/codefinderin/starred{/owner}{/repo}",
         "subscriptions_url" : "https://api.github.com/users/codefinderin/subscriptions",
         "type" : "User",
         "url" : "https://api.github.com/users/codefinderin"
      }
   }
]
