[
   {
      "author_association" : "NONE",
      "body" : "For reference:\r\nRedeem script: \r\n```\r\nOP_IF 2 02e2887490bd940ef9122575269db1e4d91eeacc2fd85f61b06e443ddd6414736b 0281cd7c6b17e5a62786b2f1f4fa0f71126c39540129e7692dabde56d601c1fc3d 2 OP_CHECKMULTISIG OP_ELSE 4194305 OP_CHECKSEQUENCEVERIFY OP_DROP 02e2887490bd940ef9122575269db1e4d91eeacc2fd85f61b06e443ddd6414736b OP_CHECKSIG OP_ENDIF\r\n\r\n``` \r\nUTXO:\r\n\r\n```\r\n{\r\n  \"txid\": \"b936ac6fae0a018c37011bdd7e96c86bb16766bda90895a61c9578004b884632\",\r\n  \"hash\": \"b936ac6fae0a018c37011bdd7e96c86bb16766bda90895a61c9578004b884632\",\r\n  \"version\": 2,\r\n  \"size\": 643,\r\n  \"vsize\": 643,\r\n  \"locktime\": 100607,\r\n  \"vin\": [ .....truncated for readability....\r\n  ],\r\n  \"vout\": [\r\n    {\r\n      \"value\": 0.00006160,\r\n      \"n\": 0,\r\n      \"scriptPubKey\": {\r\n        \"asm\": \"OP_DUP OP_HASH160 027ba724d86c440d1dae010ac34052685c4a2be6 OP_EQUALVERIFY OP_CHECKSIG\",\r\n        \"hex\": \"76a914027ba724d86c440d1dae010ac34052685c4a2be688ac\",\r\n        \"reqSigs\": 1,\r\n        \"type\": \"pubkeyhash\",\r\n        \"addresses\": [\r\n          \"mfk5mzW3SSjmq3KNK13ofT6HK5CpfKsE11\"\r\n        ]\r\n      }\r\n    }, \r\n    {\r\n      \"value\": 50.00000000,\r\n      \"n\": 1,\r\n      \"scriptPubKey\": {\r\n        \"asm\": \"OP_HASH160 261387da290c821468d53808d769553436c7598b OP_EQUAL\",\r\n        \"hex\": \"a914261387da290c821468d53808d769553436c7598b87\",\r\n        \"reqSigs\": 1,\r\n        \"type\": \"scripthash\",\r\n        \"addresses\": [\r\n          \"2MviZ4b5jhR12KrZnEmhKuAadTwAiGbGRhG\"\r\n        ]\r\n      }\r\n    }\r\n  ],\r\n  \"hex\": \"02000000050328eba4b196e2348a6b3fedcaa41cac92c909e9af2deef173d7cd277d9b971d000000004847304402203b3fde03309d23343d597946e388353da3da1614fcc3333a3fdcdfb7d80f36090220748abab1ffe86dbfddf2dd0ecf66b0a4684b810e22ca1fd9b9c0e198be8c920701feffffff0d8bb61e36787bb223b49fc5d96b2f6fb9cdeaf9a483685a65d81ca5f32f41640000000049483045022100d773313f700ea9dcf5003ad0105de651d074fa57d8ab815eac4f3dcbdf1bc8ce0220182d5130c889caeb756997371eccc7c5582464c28db3f7919e9fce753be749fc01feffffff6af684700c7990f073e78d2d879b59af8a1f7b034abf6bb722f3cf74b3e0dc530000000049483045022100d2e029ed38a63c4e135b3cadd132336caeb85feb453131f5bd86f8d4b42856bf02202d5a6502f21e0bd66d526a9c0393b4debb7fd026eb3fc8f9c3c3ffd1c8052de801feffffffab71fa60831976cdd720119827313e0f8d90cd0162b2d2e01dcbdd86cc570df4000000004847304402206c1e471a1fae373b8cec2f0acd896f88774f180dfdd472d5de6a1870fbf46ceb022071332450c580562c39a1f3b194a5f0468f52e03b9c25bd2e04e0636129cb60cc01feffffffebb5726c700ef8919cc5580f33787366a810420103725c52f4387a5cca4975c8000000004847304402205f55bbe1638d6c67ec4d9ca83d921ef7e252d9a870988ae35d6f4c7270714a3b02204b219e2d2e1fe8664effc09e52c1d19f0c2fb668cab09dfebfd3b0979b7b0ae501feffffff0210180000000000001976a914027ba724d86c440d1dae010ac34052685c4a2be688ac00f2052a0100000017a914261387da290c821468d53808d769553436c7598b87ff880100\",\r\n  \"blockhash\": \"4c44fc4bc8228462fc57b250de219a62afc0791bf3145c6173cb8d69894fbcd5\",\r\n  \"confirmations\": 2,\r\n  \"time\": 1524166868,\r\n  \"blocktime\": 1524166868\r\n}\r\n```",
      "created_at" : "2018-04-20T02:44:43Z",
      "html_url" : "https://github.com/bitcoin/bitcoin/issues/13035#issuecomment-382951959",
      "id" : 382951959,
      "issue_url" : "https://api.github.com/repos/bitcoin/bitcoin/issues/13035",
      "updated_at" : "2018-04-20T02:59:21Z",
      "url" : "https://api.github.com/repos/bitcoin/bitcoin/issues/comments/382951959",
      "user" : {
         "avatar_url" : "https://avatars3.githubusercontent.com/u/26187282?v=4",
         "events_url" : "https://api.github.com/users/annjieching/events{/privacy}",
         "followers_url" : "https://api.github.com/users/annjieching/followers",
         "following_url" : "https://api.github.com/users/annjieching/following{/other_user}",
         "gists_url" : "https://api.github.com/users/annjieching/gists{/gist_id}",
         "gravatar_id" : "",
         "html_url" : "https://github.com/annjieching",
         "id" : 26187282,
         "login" : "annjieching",
         "organizations_url" : "https://api.github.com/users/annjieching/orgs",
         "received_events_url" : "https://api.github.com/users/annjieching/received_events",
         "repos_url" : "https://api.github.com/users/annjieching/repos",
         "site_admin" : false,
         "starred_url" : "https://api.github.com/users/annjieching/starred{/owner}{/repo}",
         "subscriptions_url" : "https://api.github.com/users/annjieching/subscriptions",
         "type" : "User",
         "url" : "https://api.github.com/users/annjieching"
      }
   },
   {
      "author_association" : "CONTRIBUTOR",
      "body" : "You have an extraneous `0x00` in your scriptsig, right before the signature :\r\n\r\n```\r\n                                                                                    VV\r\n02000000013246884b0078951ca69508a9bd6667b16bc8967edd1b01378c010aae6fac36b901000000bf00473044022054b2af907f7be9a1719869db04acf5171c958fcbeda6b8bc8bd5052330fc88b602202592fe1bdbcdcb4b132505a265cf7d55efdf9d2b8de7a83ab786c29c7ab9ab9001004c7363522102e2887490bd940ef9122575269db1e4d91eeacc2fd85f61b06e443ddd6414736b210281cd7c6b17e5a62786b2f1f4fa0f71126c39540129e7692dabde56d601c1fc3d52ae6703010040b2752102e2887490bd940ef9122575269db1e4d91eeacc2fd85f61b06e443ddd6414736bac6801004000014060e429010000001976a91492d85871fe16cac1cf847ee1b88b9973907670e788ac00000000\r\n```\r\n\r\nProbably left there after you tried the 2-of-2 case.\r\nRemoving it and adjusting the scriptsig size should solve your spend of the `ELSE` branch with the `CHECKSIG` :\r\n\r\n```\r\n02000000013246884b0078951ca69508a9bd6667b16bc8967edd1b01378c010aae6fac36b901000000be473044022054b2af907f7be9a1719869db04acf5171c958fcbeda6b8bc8bd5052330fc88b602202592fe1bdbcdcb4b132505a265cf7d55efdf9d2b8de7a83ab786c29c7ab9ab9001004c7363522102e2887490bd940ef9122575269db1e4d91eeacc2fd85f61b06e443ddd6414736b210281cd7c6b17e5a62786b2f1f4fa0f71126c39540129e7692dabde56d601c1fc3d52ae6703010040b2752102e2887490bd940ef9122575269db1e4d91eeacc2fd85f61b06e443ddd6414736bac6801004000014060e429010000001976a91492d85871fe16cac1cf847ee1b88b9973907670e788ac00000000\r\n```",
      "created_at" : "2018-04-20T14:50:47Z",
      "html_url" : "https://github.com/bitcoin/bitcoin/issues/13035#issuecomment-383121367",
      "id" : 383121367,
      "issue_url" : "https://api.github.com/repos/bitcoin/bitcoin/issues/13035",
      "updated_at" : "2018-04-20T14:51:09Z",
      "url" : "https://api.github.com/repos/bitcoin/bitcoin/issues/comments/383121367",
      "user" : {
         "avatar_url" : "https://avatars0.githubusercontent.com/u/5624963?v=4",
         "events_url" : "https://api.github.com/users/fivepiece/events{/privacy}",
         "followers_url" : "https://api.github.com/users/fivepiece/followers",
         "following_url" : "https://api.github.com/users/fivepiece/following{/other_user}",
         "gists_url" : "https://api.github.com/users/fivepiece/gists{/gist_id}",
         "gravatar_id" : "",
         "html_url" : "https://github.com/fivepiece",
         "id" : 5624963,
         "login" : "fivepiece",
         "organizations_url" : "https://api.github.com/users/fivepiece/orgs",
         "received_events_url" : "https://api.github.com/users/fivepiece/received_events",
         "repos_url" : "https://api.github.com/users/fivepiece/repos",
         "site_admin" : false,
         "starred_url" : "https://api.github.com/users/fivepiece/starred{/owner}{/repo}",
         "subscriptions_url" : "https://api.github.com/users/fivepiece/subscriptions",
         "type" : "User",
         "url" : "https://api.github.com/users/fivepiece"
      }
   },
   {
      "author_association" : "NONE",
      "body" : "You are a star! Got it now. \r\nThank you!",
      "created_at" : "2018-04-20T15:26:06Z",
      "html_url" : "https://github.com/bitcoin/bitcoin/issues/13035#issuecomment-383132311",
      "id" : 383132311,
      "issue_url" : "https://api.github.com/repos/bitcoin/bitcoin/issues/13035",
      "updated_at" : "2018-04-20T15:26:06Z",
      "url" : "https://api.github.com/repos/bitcoin/bitcoin/issues/comments/383132311",
      "user" : {
         "avatar_url" : "https://avatars3.githubusercontent.com/u/26187282?v=4",
         "events_url" : "https://api.github.com/users/annjieching/events{/privacy}",
         "followers_url" : "https://api.github.com/users/annjieching/followers",
         "following_url" : "https://api.github.com/users/annjieching/following{/other_user}",
         "gists_url" : "https://api.github.com/users/annjieching/gists{/gist_id}",
         "gravatar_id" : "",
         "html_url" : "https://github.com/annjieching",
         "id" : 26187282,
         "login" : "annjieching",
         "organizations_url" : "https://api.github.com/users/annjieching/orgs",
         "received_events_url" : "https://api.github.com/users/annjieching/received_events",
         "repos_url" : "https://api.github.com/users/annjieching/repos",
         "site_admin" : false,
         "starred_url" : "https://api.github.com/users/annjieching/starred{/owner}{/repo}",
         "subscriptions_url" : "https://api.github.com/users/annjieching/subscriptions",
         "type" : "User",
         "url" : "https://api.github.com/users/annjieching"
      }
   }
]
