[
   {
      "author_association" : "OWNER",
      "body" : "Needs a unit test, I think.",
      "created_at" : "2018-04-26T06:12:33Z",
      "html_url" : "https://github.com/bitcoin/bitcoin/pull/13084#issuecomment-384525076",
      "id" : 384525076,
      "issue_url" : "https://api.github.com/repos/bitcoin/bitcoin/issues/13084",
      "updated_at" : "2018-04-26T06:12:33Z",
      "url" : "https://api.github.com/repos/bitcoin/bitcoin/issues/comments/384525076",
      "user" : {
         "avatar_url" : "https://avatars0.githubusercontent.com/u/126646?v=4",
         "events_url" : "https://api.github.com/users/laanwj/events{/privacy}",
         "followers_url" : "https://api.github.com/users/laanwj/followers",
         "following_url" : "https://api.github.com/users/laanwj/following{/other_user}",
         "gists_url" : "https://api.github.com/users/laanwj/gists{/gist_id}",
         "gravatar_id" : "",
         "html_url" : "https://github.com/laanwj",
         "id" : 126646,
         "login" : "laanwj",
         "organizations_url" : "https://api.github.com/users/laanwj/orgs",
         "received_events_url" : "https://api.github.com/users/laanwj/received_events",
         "repos_url" : "https://api.github.com/users/laanwj/repos",
         "site_admin" : false,
         "starred_url" : "https://api.github.com/users/laanwj/starred{/owner}{/repo}",
         "subscriptions_url" : "https://api.github.com/users/laanwj/subscriptions",
         "type" : "User",
         "url" : "https://api.github.com/users/laanwj"
      }
   },
   {
      "author_association" : "MEMBER",
      "body" : "Yeah, a test makes sense for this function, since it is not particularly well covered: https://marcofalke.github.io/btc_cov/total.coverage/src/script/sign.cpp.gcov.html",
      "created_at" : "2018-04-26T12:03:34Z",
      "html_url" : "https://github.com/bitcoin/bitcoin/pull/13084#issuecomment-384616194",
      "id" : 384616194,
      "issue_url" : "https://api.github.com/repos/bitcoin/bitcoin/issues/13084",
      "updated_at" : "2018-04-26T12:03:34Z",
      "url" : "https://api.github.com/repos/bitcoin/bitcoin/issues/comments/384616194",
      "user" : {
         "avatar_url" : "https://avatars0.githubusercontent.com/u/6399679?v=4",
         "events_url" : "https://api.github.com/users/MarcoFalke/events{/privacy}",
         "followers_url" : "https://api.github.com/users/MarcoFalke/followers",
         "following_url" : "https://api.github.com/users/MarcoFalke/following{/other_user}",
         "gists_url" : "https://api.github.com/users/MarcoFalke/gists{/gist_id}",
         "gravatar_id" : "",
         "html_url" : "https://github.com/MarcoFalke",
         "id" : 6399679,
         "login" : "MarcoFalke",
         "organizations_url" : "https://api.github.com/users/MarcoFalke/orgs",
         "received_events_url" : "https://api.github.com/users/MarcoFalke/received_events",
         "repos_url" : "https://api.github.com/users/MarcoFalke/repos",
         "site_admin" : false,
         "starred_url" : "https://api.github.com/users/MarcoFalke/starred{/owner}{/repo}",
         "subscriptions_url" : "https://api.github.com/users/MarcoFalke/subscriptions",
         "type" : "User",
         "url" : "https://api.github.com/users/MarcoFalke"
      }
   },
   {
      "author_association" : "CONTRIBUTOR",
      "body" : "ACK on the fix!\r\nMany thanks for looking into it :)\r\n\r\nBefore :\r\n```\r\n$ bitcoin-cli -regtest signrawtransactionwithwallet \\\r\n0200000001FFFFFFFFFFFFFFFFFFFFFFFFFFFFFFFFFFFFFFFFFFFFFFFFFFFFFFFFFFFFFFFF00000000044F024F9CFDFFFFFF01F0B9F505000000002321027777777777777777777777777777777777777777777777777777777777777777AC66030000 \\\r\n'[{\"txid\":\"FFFFFFFFFFFFFFFFFFFFFFFFFFFFFFFFFFFFFFFFFFFFFFFFFFFFFFFFFFFFFFFF\",\"vout\":0,\"scriptPubKey\":\"A914AE44AB6E9AA0B71F1CD2B453B69340E9BFBAEF6087\",\"redeemScript\":\"4F9C\",\"amount\":1}]'\r\n\r\n{                                                                                             VVVV\r\n  \"hex\": \"0200000001ffffffffffffffffffffffffffffffffffffffffffffffffffffffffffffffff00000000050181024f9cfdffffff01f0b9f505000000002321027777777777777777777777777777777777777777777777777777777777777777ac66030000\",\r\n  \"complete\": false,\r\n  \"errors\": [\r\n    {\r\n      \"txid\": \"ffffffffffffffffffffffffffffffffffffffffffffffffffffffffffffffff\",\r\n      \"vout\": 0,\r\n      \"witness\": [\r\n      ],\r\n      \"scriptSig\": \"0181024f9c\",\r\n      \"sequence\": 4294967293,\r\n      \"error\": \"Data push larger than necessary\"\r\n    }\r\n  ]\r\n}\r\n```\r\n\r\nAfter:\r\n```\r\n$ bitcoin-cli -regtest signrawtransactionwithwallet \\\r\n0200000001FFFFFFFFFFFFFFFFFFFFFFFFFFFFFFFFFFFFFFFFFFFFFFFFFFFFFFFFFFFFFFFF00000000044F024F9CFDFFFFFF01F0B9F505000000002321027777777777777777777777777777777777777777777777777777777777777777AC66030000 \\\r\n'[{\"txid\":\"FFFFFFFFFFFFFFFFFFFFFFFFFFFFFFFFFFFFFFFFFFFFFFFFFFFFFFFFFFFFFFFF\",\"vout\":0,\"scriptPubKey\":\"A914AE44AB6E9AA0B71F1CD2B453B69340E9BFBAEF6087\",\"redeemScript\":\"4F9C\",\"amount\":1}]' \\\r\n\r\n{                                                                                             VV\r\n  \"hex\": \"0200000001ffffffffffffffffffffffffffffffffffffffffffffffffffffffffffffffff00000000044f024f9cfdffffff01f0b9f505000000002321027777777777777777777777777777777777777777777777777777777777777777ac66030000\",\r\n  \"complete\": true\r\n}\r\n```",
      "created_at" : "2018-04-26T21:32:31Z",
      "html_url" : "https://github.com/bitcoin/bitcoin/pull/13084#issuecomment-384795684",
      "id" : 384795684,
      "issue_url" : "https://api.github.com/repos/bitcoin/bitcoin/issues/13084",
      "updated_at" : "2018-04-26T21:32:31Z",
      "url" : "https://api.github.com/repos/bitcoin/bitcoin/issues/comments/384795684",
      "user" : {
         "avatar_url" : "https://avatars0.githubusercontent.com/u/5624963?v=4",
         "events_url" : "https://api.github.com/users/fivepiece/events{/privacy}",
         "followers_url" : "https://api.github.com/users/fivepiece/followers",
         "following_url" : "https://api.github.com/users/fivepiece/following{/other_user}",
         "gists_url" : "https://api.github.com/users/fivepiece/gists{/gist_id}",
         "gravatar_id" : "",
         "html_url" : "https://github.com/fivepiece",
         "id" : 5624963,
         "login" : "fivepiece",
         "organizations_url" : "https://api.github.com/users/fivepiece/orgs",
         "received_events_url" : "https://api.github.com/users/fivepiece/received_events",
         "repos_url" : "https://api.github.com/users/fivepiece/repos",
         "site_admin" : false,
         "starred_url" : "https://api.github.com/users/fivepiece/starred{/owner}{/repo}",
         "subscriptions_url" : "https://api.github.com/users/fivepiece/subscriptions",
         "type" : "User",
         "url" : "https://api.github.com/users/fivepiece"
      }
   }
]
