{
   "active_lock_reason" : null,
   "assignee" : null,
   "assignees" : [],
   "author_association" : "NONE",
   "body" : "\r\nWallet's balance was sufficient to pay a fee, and we used \"subractFeeFromOutputs\" as a \"fundrawtransaction\" option to transfer all of the money from the account.\r\nHowever, if the feeRate is set high, the amount to pay the fee is sufficient, but an \"Insufficient Funds\" error occurs.\r\n\r\n## v0.17.1\r\n\r\n./bitcoin-cli getbalance \r\n`0.02747781`\r\n\r\n./bitcoin-cli createrawtransaction [] \"[{\\\"1BoN7fHjtdufAL4ZjVnbW38SsAMbQwPK4R\\\":0.02747781}]\"\r\n`02000000000185ed2900000000001976a91476760491fdf2f1dc5428c79058c49e93fc432b8188ac00000000`\r\n\r\n\r\n**[high feeRate case]**\r\n./bitcoin-cli fundrawtransaction \"02000000000185ed2900000000001976a91476760491fdf2f1dc5428c79058c49e93fc432b8188ac00000000\" \"{\\\"subtractFeeFromOutputs\\\":[0], \\\"feeRate\\\":0.01016711}\"\r\n```\r\n{\r\n  \"hex\": \"020000001183fb588c5ceae790f627fd76278fefbe7ecb414ae3c83678746b5a7c32b9b5b70000000000fdffffff1dc5e5d10a325c739924ee0f990171eb1660ca24f6038dec6c69799721590ba90000000000fdffffffda529a6edd29c32b1f746ac39d1b28776543a6aed5c330007b0756743ee2f8420000000000fdfffffff3dd6ea5b7fc0540a179162cbd1b9c25e82d7d5c0ad6a7e086dcba4f4f9798760100000000fdffffff57afa33e56d3cdcc752cfae9e0b44b8e9608400d07e5ddd122669426b29ea9c80100000000fdffffffccee315e4800d7ac0696c8f8845d9985573882f1483d95572c3465226fd872d40000000000fdffffff4ed7188988b48dcd81723fed788cd72811173c88557dc0e807867b2c116cbf640000000000fdffffff342d28a62a5f005adcb1bbc8eae7640377c78b643e5cb2642235e58498047b200000000000fdffffff4ffdff99026432d641b7be05979661088f74ea5304649102c090cebb552e1e1e0000000000fdffffffc39083c8b187b4feec0c93a64d7e0b3377dbb4d436d5b869f42a8c863af685b50000000000fdffffff4ae03f15b3f1ccfe1d1672e94098bb56add36bbd7d6cfba187c7ec61af42aa830000000000fdfffffff9c4284c741c018136e588b921a3dc365c9a3d93f2b788f523dced9a3f3b53ff0100000000fdffffff90c43d6d07ce04c8676376cbabdd9293cc251320d3dfa065ffe22524f14207150100000000fdffffffae5ba3902ba27be221261ec4a19e88cebec6e7d37c7264170a0b4304b3f94fd50000000000fdffffffc579ad3661c6999eeff283f97d3b2bd119d449c18e46fa28fb4d344493d3ce280100000000fdffffff3db96066d514891dececeadf3cc9f75cec457aa78cc5dbd2f7f6c8254674df950000000000fdffffff69a8eeeefbc5912636d3c715c73581525db4de907556e1c132c1d4436030cf700100000000fdffffff01147c0300000000001976a91476760491fdf2f1dc5428c79058c49e93fc432b8188ac00000000\",\r\n  \"fee\": 0.02519409,\r\n  \"changepos\": -1\r\n}\r\n```\r\n\r\n./bicoin-cli decderawtransaction \"020000001183fb588c5ceae790f627fd76278fefbe7ecb414ae3c83678746b5a7c32b9b5b70000000000fdffffff1dc5e5d10a325c739924ee0f990171eb1660ca24f6038dec6c69799721590ba90000000000fdffffffda529a6edd29c32b1f746ac39d1b28776543a6aed5c330007b0756743ee2f8420000000000fdfffffff3dd6ea5b7fc0540a179162cbd1b9c25e82d7d5c0ad6a7e086dcba4f4f9798760100000000fdffffff57afa33e56d3cdcc752cfae9e0b44b8e9608400d07e5ddd122669426b29ea9c80100000000fdffffffccee315e4800d7ac0696c8f8845d9985573882f1483d95572c3465226fd872d40000000000fdffffff4ed7188988b48dcd81723fed788cd72811173c88557dc0e807867b2c116cbf640000000000fdffffff342d28a62a5f005adcb1bbc8eae7640377c78b643e5cb2642235e58498047b200000000000fdffffff4ffdff99026432d641b7be05979661088f74ea5304649102c090cebb552e1e1e0000000000fdffffffc39083c8b187b4feec0c93a64d7e0b3377dbb4d436d5b869f42a8c863af685b50000000000fdffffff4ae03f15b3f1ccfe1d1672e94098bb56add36bbd7d6cfba187c7ec61af42aa830000000000fdfffffff9c4284c741c018136e588b921a3dc365c9a3d93f2b788f523dced9a3f3b53ff0100000000fdffffff90c43d6d07ce04c8676376cbabdd9293cc251320d3dfa065ffe22524f14207150100000000fdffffffae5ba3902ba27be221261ec4a19e88cebec6e7d37c7264170a0b4304b3f94fd50000000000fdffffffc579ad3661c6999eeff283f97d3b2bd119d449c18e46fa28fb4d344493d3ce280100000000fdffffff3db96066d514891dececeadf3cc9f75cec457aa78cc5dbd2f7f6c8254674df950000000000fdffffff69a8eeeefbc5912636d3c715c73581525db4de907556e1c132c1d4436030cf700100000000fdffffff01147c0300000000001976a91476760491fdf2f1dc5428c79058c49e93fc432b8188ac00000000\"\r\n```\r\n{\r\n  \"txid\": \"2e6d8121885968861261a9473f889af0abfccd32f784178eb20dc62ec6bad8e4\",\r\n  \"hash\": \"2e6d8121885968861261a9473f889af0abfccd32f784178eb20dc62ec6bad8e4\",\r\n  \"version\": 2,\r\n  \"size\": 741,\r\n  \"vsize\": 741,\r\n  \"weight\": 2964,\r\n  \"locktime\": 0,\r\n  \"vin\": [\r\n    {\r\n      \"txid\": \"b7b5b9327c5a6b747836c8e34a41cb7ebeef8f2776fd27f690e7ea5c8c58fb83\",\r\n      \"vout\": 0,\r\n      \"scriptSig\": {\r\n        \"asm\": \"\",\r\n        \"hex\": \"\"\r\n      },\r\n      \"sequence\": 4294967293\r\n    },\r\n    {\r\n      \"txid\": \"a90b59219779696cec8d03f624ca6016eb7101990fee2499735c320ad1e5c51d\",\r\n      \"vout\": 0,\r\n      \"scriptSig\": {\r\n        \"asm\": \"\",\r\n        \"hex\": \"\"\r\n      },\r\n      \"sequence\": 4294967293\r\n    }\r\n\r\n....\r\n  ],\r\n  \"vout\": [\r\n    {\r\n      \"value\": 0.00228372,\r\n      \"n\": 0,\r\n      \"scriptPubKey\": {\r\n        \"asm\": \"OP_DUP OP_HASH160 76760491fdf2f1dc5428c79058c49e93fc432b81 OP_EQUALVERIFY OP_CHECKSIG\",\r\n        \"hex\": \"76a91476760491fdf2f1dc5428c79058c49e93fc432b8188ac\",\r\n        \"reqSigs\": 1,\r\n        \"type\": \"pubkeyhash\",\r\n        \"addresses\": [\r\n          \"1BoN7fHjtdufAL4ZjVnbW38SsAMbQwPK4R\"\r\n        ]\r\n      }\r\n    }\r\n  ]\r\n}\r\n```\r\n\r\n\r\n## v22.0\r\n\r\n./bitcoin-cli getbalance \r\n`0.02747781`\r\n\r\n./bitcoin-cli createrawtransaction [] \"[{\\\"1BoN7fHjtdufAL4ZjVnbW38SsAMbQwPK4R\\\":0.02747781}]\"\r\n`02000000000185ed2900000000001976a91476760491fdf2f1dc5428c79058c49e93fc432b8188ac00000000`\r\n\r\n\r\n\r\n**[Appropriate fee case]**\r\n./bitcoin-cli fundrawtransaction \"02000000000185ed2900000000001976a91476760491fdf2f1dc5428c79058c49e93fc432b8188ac00000000\" \"{\\\"subtractFeeFromOutputs\\\":[0], \\\"feeRate\\\":0.00006711}\"\r\n```\r\n{\r\n  \"hex\": \"020000001190c43d6d07ce04c8676376cbabdd9293cc251320d3dfa065ffe22524f14207150100000000fdffffff83fb588c5ceae790f627fd76278fefbe7ecb414ae3c83678746b5a7c32b9b5b70000000000fdffffff69a8eeeefbc5912636d3c715c73581525db4de907556e1c132c1d4436030cf700100000000fdffffff4ed7188988b48dcd81723fed788cd72811173c88557dc0e807867b2c116cbf640000000000fdffffff4ffdff99026432d641b7be05979661088f74ea5304649102c090cebb552e1e1e0000000000fdffffff3db96066d514891dececeadf3cc9f75cec457aa78cc5dbd2f7f6c8254674df950000000000fdffffff342d28a62a5f005adcb1bbc8eae7640377c78b643e5cb2642235e58498047b200000000000fdffffffda529a6edd29c32b1f746ac39d1b28776543a6aed5c330007b0756743ee2f8420000000000fdffffffae5ba3902ba27be221261ec4a19e88cebec6e7d37c7264170a0b4304b3f94fd50000000000fdffffff57afa33e56d3cdcc752cfae9e0b44b8e9608400d07e5ddd122669426b29ea9c80100000000fdffffff1dc5e5d10a325c739924ee0f990171eb1660ca24f6038dec6c69799721590ba90000000000fdfffffff3dd6ea5b7fc0540a179162cbd1b9c25e82d7d5c0ad6a7e086dcba4f4f9798760100000000fdffffffccee315e4800d7ac0696c8f8845d9985573882f1483d95572c3465226fd872d40000000000fdffffff4ae03f15b3f1ccfe1d1672e94098bb56add36bbd7d6cfba187c7ec61af42aa830000000000fdffffffc39083c8b187b4feec0c93a64d7e0b3377dbb4d436d5b869f42a8c863af685b50000000000fdfffffff9c4284c741c018136e588b921a3dc365c9a3d93f2b788f523dced9a3f3b53ff0100000000fdffffffc579ad3661c6999eeff283f97d3b2bd119d449c18e46fa28fb4d344493d3ce280100000000fdffffff0190ac2900000000001976a91476760491fdf2f1dc5428c79058c49e93fc432b8188ac00000000\",\r\n  \"fee\": 0.00016629,\r\n  \"changepos\": -1\r\n}\r\n```\r\n\r\n **[high fee case]** \r\n./bitcoin-cli fundrawtransaction \"02000000000185ed2900000000001976a91476760491fdf2f1dc5428c79058c49e93fc432b8188ac00000000\" \"\r\n{\\\"subtractFeeFromOutputs\\\":[0], \\\"feeRate\\\":0.00006712}\"\r\n```\r\nerror code: -4\r\nerror message:\r\nInsufficient funds\r\n```\r\n\r\n##.\r\n**In the above case, v22.0 shows a normal response if the feeRate is 0.00006711 or less, and an error if it is 0.00006712 or higher. Can I know why?**\r\n\r\n\r\n\r\n",
   "closed_at" : null,
   "closed_by" : null,
   "comments" : 0,
   "comments_url" : "https://api.github.com/repos/bitcoin/bitcoin/issues/23533/comments",
   "created_at" : "2021-11-17T02:46:23Z",
   "events_url" : "https://api.github.com/repos/bitcoin/bitcoin/issues/23533/events",
   "html_url" : "https://github.com/bitcoin/bitcoin/issues/23533",
   "id" : 1055642648,
   "labels" : [
      {
         "color" : "FBBAAB",
         "default" : false,
         "description" : null,
         "id" : 64585,
         "name" : "Bug",
         "node_id" : "MDU6TGFiZWw2NDU4NQ==",
         "url" : "https://api.github.com/repos/bitcoin/bitcoin/labels/Bug"
      }
   ],
   "labels_url" : "https://api.github.com/repos/bitcoin/bitcoin/issues/23533/labels{/name}",
   "locked" : false,
   "milestone" : null,
   "node_id" : "I_kwDOABII584-69QY",
   "number" : 23533,
   "performed_via_github_app" : null,
   "reactions" : {
      "+1" : 0,
      "-1" : 0,
      "confused" : 0,
      "eyes" : 0,
      "heart" : 0,
      "hooray" : 0,
      "laugh" : 0,
      "rocket" : 0,
      "total_count" : 0,
      "url" : "https://api.github.com/repos/bitcoin/bitcoin/issues/23533/reactions"
   },
   "repository_url" : "https://api.github.com/repos/bitcoin/bitcoin",
   "state" : "open",
   "timeline_url" : "https://api.github.com/repos/bitcoin/bitcoin/issues/23533/timeline",
   "title" : "v22.0 fundrawtransaction Insufficient funds error ",
   "updated_at" : "2021-11-17T02:47:45Z",
   "url" : "https://api.github.com/repos/bitcoin/bitcoin/issues/23533",
   "user" : {
      "avatar_url" : "https://avatars.githubusercontent.com/u/48992754?v=4",
      "events_url" : "https://api.github.com/users/DevMinJong/events{/privacy}",
      "followers_url" : "https://api.github.com/users/DevMinJong/followers",
      "following_url" : "https://api.github.com/users/DevMinJong/following{/other_user}",
      "gists_url" : "https://api.github.com/users/DevMinJong/gists{/gist_id}",
      "gravatar_id" : "",
      "html_url" : "https://github.com/DevMinJong",
      "id" : 48992754,
      "login" : "DevMinJong",
      "node_id" : "MDQ6VXNlcjQ4OTkyNzU0",
      "organizations_url" : "https://api.github.com/users/DevMinJong/orgs",
      "received_events_url" : "https://api.github.com/users/DevMinJong/received_events",
      "repos_url" : "https://api.github.com/users/DevMinJong/repos",
      "site_admin" : false,
      "starred_url" : "https://api.github.com/users/DevMinJong/starred{/owner}{/repo}",
      "subscriptions_url" : "https://api.github.com/users/DevMinJong/subscriptions",
      "type" : "User",
      "url" : "https://api.github.com/users/DevMinJong"
   }
}
