[
   {
      "author_association" : "MEMBER",
      "body" : "I am unable to reproduce this, could you please post the exact series of commands you made (minus any personal info)?\r\n\r\nCan you confirm that the transaction you are trying to fund does indeed have just one output and that it is greater than the fee you need to pay?",
      "created_at" : "2021-09-27T11:40:53Z",
      "html_url" : "https://github.com/bitcoin/bitcoin/issues/23026#issuecomment-927791024",
      "id" : 927791024,
      "issue_url" : "https://api.github.com/repos/bitcoin/bitcoin/issues/23026",
      "node_id" : "IC_kwDOABII5843TPew",
      "performed_via_github_app" : null,
      "updated_at" : "2021-09-27T11:46:00Z",
      "url" : "https://api.github.com/repos/bitcoin/bitcoin/issues/comments/927791024",
      "user" : {
         "avatar_url" : "https://avatars.githubusercontent.com/u/3211283?v=4",
         "events_url" : "https://api.github.com/users/meshcollider/events{/privacy}",
         "followers_url" : "https://api.github.com/users/meshcollider/followers",
         "following_url" : "https://api.github.com/users/meshcollider/following{/other_user}",
         "gists_url" : "https://api.github.com/users/meshcollider/gists{/gist_id}",
         "gravatar_id" : "",
         "html_url" : "https://github.com/meshcollider",
         "id" : 3211283,
         "login" : "meshcollider",
         "node_id" : "MDQ6VXNlcjMyMTEyODM=",
         "organizations_url" : "https://api.github.com/users/meshcollider/orgs",
         "received_events_url" : "https://api.github.com/users/meshcollider/received_events",
         "repos_url" : "https://api.github.com/users/meshcollider/repos",
         "site_admin" : false,
         "starred_url" : "https://api.github.com/users/meshcollider/starred{/owner}{/repo}",
         "subscriptions_url" : "https://api.github.com/users/meshcollider/subscriptions",
         "type" : "User",
         "url" : "https://api.github.com/users/meshcollider"
      }
   },
   {
      "author_association" : "NONE",
      "body" : "@yurayakimenko Did you solve it? It's the same issue.",
      "created_at" : "2021-11-15T14:19:41Z",
      "html_url" : "https://github.com/bitcoin/bitcoin/issues/23026#issuecomment-968956408",
      "id" : 968956408,
      "issue_url" : "https://api.github.com/repos/bitcoin/bitcoin/issues/23026",
      "node_id" : "IC_kwDOABII5845wRn4",
      "performed_via_github_app" : null,
      "reactions" : {
         "+1" : 0,
         "-1" : 0,
         "confused" : 0,
         "eyes" : 0,
         "heart" : 0,
         "hooray" : 0,
         "laugh" : 0,
         "rocket" : 0,
         "total_count" : 0,
         "url" : "https://api.github.com/repos/bitcoin/bitcoin/issues/comments/968956408/reactions"
      },
      "updated_at" : "2021-11-15T14:19:41Z",
      "url" : "https://api.github.com/repos/bitcoin/bitcoin/issues/comments/968956408",
      "user" : {
         "avatar_url" : "https://avatars.githubusercontent.com/u/48992754?v=4",
         "events_url" : "https://api.github.com/users/DevMinJong/events{/privacy}",
         "followers_url" : "https://api.github.com/users/DevMinJong/followers",
         "following_url" : "https://api.github.com/users/DevMinJong/following{/other_user}",
         "gists_url" : "https://api.github.com/users/DevMinJong/gists{/gist_id}",
         "gravatar_id" : "",
         "html_url" : "https://github.com/DevMinJong",
         "id" : 48992754,
         "login" : "DevMinJong",
         "node_id" : "MDQ6VXNlcjQ4OTkyNzU0",
         "organizations_url" : "https://api.github.com/users/DevMinJong/orgs",
         "received_events_url" : "https://api.github.com/users/DevMinJong/received_events",
         "repos_url" : "https://api.github.com/users/DevMinJong/repos",
         "site_admin" : false,
         "starred_url" : "https://api.github.com/users/DevMinJong/starred{/owner}{/repo}",
         "subscriptions_url" : "https://api.github.com/users/DevMinJong/subscriptions",
         "type" : "User",
         "url" : "https://api.github.com/users/DevMinJong"
      }
   },
   {
      "author_association" : "MEMBER",
      "body" : "There is nothing we can do without additional information. If you can't provide the exact series of commands as requested above, an excerpt of the feecalc in the debug log might help (obv. stripping private info).",
      "created_at" : "2021-11-15T14:25:15Z",
      "html_url" : "https://github.com/bitcoin/bitcoin/issues/23026#issuecomment-968961637",
      "id" : 968961637,
      "issue_url" : "https://api.github.com/repos/bitcoin/bitcoin/issues/23026",
      "node_id" : "IC_kwDOABII5845wS5l",
      "performed_via_github_app" : null,
      "reactions" : {
         "+1" : 0,
         "-1" : 0,
         "confused" : 0,
         "eyes" : 0,
         "heart" : 0,
         "hooray" : 0,
         "laugh" : 0,
         "rocket" : 0,
         "total_count" : 0,
         "url" : "https://api.github.com/repos/bitcoin/bitcoin/issues/comments/968961637/reactions"
      },
      "updated_at" : "2021-11-15T14:25:15Z",
      "url" : "https://api.github.com/repos/bitcoin/bitcoin/issues/comments/968961637",
      "user" : {
         "avatar_url" : "https://avatars.githubusercontent.com/u/6399679?v=4",
         "events_url" : "https://api.github.com/users/MarcoFalke/events{/privacy}",
         "followers_url" : "https://api.github.com/users/MarcoFalke/followers",
         "following_url" : "https://api.github.com/users/MarcoFalke/following{/other_user}",
         "gists_url" : "https://api.github.com/users/MarcoFalke/gists{/gist_id}",
         "gravatar_id" : "",
         "html_url" : "https://github.com/MarcoFalke",
         "id" : 6399679,
         "login" : "MarcoFalke",
         "node_id" : "MDQ6VXNlcjYzOTk2Nzk=",
         "organizations_url" : "https://api.github.com/users/MarcoFalke/orgs",
         "received_events_url" : "https://api.github.com/users/MarcoFalke/received_events",
         "repos_url" : "https://api.github.com/users/MarcoFalke/repos",
         "site_admin" : false,
         "starred_url" : "https://api.github.com/users/MarcoFalke/starred{/owner}{/repo}",
         "subscriptions_url" : "https://api.github.com/users/MarcoFalke/subscriptions",
         "type" : "User",
         "url" : "https://api.github.com/users/MarcoFalke"
      }
   },
   {
      "author_association" : "NONE",
      "body" : "@yurayakimenko  @MarcoFalke \r\nThe update has been completed from version 0.17.1 to 22.0, and the fundrawtransaction function is throwing an error in version 22.0.\r\n\r\n### \r\n\r\n**v0.17.1 cli**\r\n\r\n\r\n./bitcoin-cli getbalance \r\n`1.07338220`\r\n\r\n\r\n\r\n./bitcoin-cli decoderawtransaction 020000000001ecd96506000000001976a91408339cb23bbb53bf38f68bc087febb238108f96c88ac00000000 \r\n```\r\n{\r\n  \"txid\": \"59817e88b6a431a70093f39b0c12ed0788f94dc05d9ab5cb2f56c00a736ff4c2\",\r\n  \"hash\": \"59817e88b6a431a70093f39b0c12ed0788f94dc05d9ab5cb2f56c00a736ff4c2\",\r\n  \"version\": 2,\r\n  \"size\": 44,\r\n  \"vsize\": 44,\r\n  \"weight\": 176,\r\n  \"locktime\": 0,\r\n  \"vin\": [\r\n  ],\r\n  \"vout\": [\r\n    {\r\n      \"value\": 1.07338220,\r\n      \"n\": 0,\r\n      \"scriptPubKey\": {\r\n        \"asm\": \"OP_DUP OP_HASH160 08339cb23bbb53bf38f68bc087febb238108f96c OP_EQUALVERIFY OP_CHECKSIG\",\r\n        \"hex\": \"76a91408339cb23bbb53bf38f68bc087febb238108f96c88ac\",\r\n        \"address\": \"1kNEc94p77fsqCvATZroPPR38KT9KTsXj\",\r\n        \"type\": \"pubkeyhash\",\r\n        \"addresses\": [\r\n          \"1kNEc94p77fsqCvATZroPPR38KT9KTsXj\"\r\n        ],\r\n        \"reqSigs\": 1\r\n      }\r\n    }\r\n  ]\r\n}\r\n```\r\n\r\n\r\n\r\n./bitcoin-cli fundrawtransaction \"020000000001ecd96506000000001976a91408339cb23bbb53bf38f68bc087febb238108f96c88ac00000000\" \"{\\\"subtractFeeFromOutputs\\\":[0]}\"\r\n\r\n`success response`\r\n\r\n\r\n\r\n### \r\n\r\n**v22.0 cli**\r\n\r\n\r\n./bitcoin-cli getbalance \r\n`1.07338220`\r\n\r\n\r\n./bitcoin-cli decoderawtransaction 020000000001ecd96506000000001976a91408339cb23bbb53bf38f68bc087febb238108f96c88ac00000000 \r\n```\r\n{\r\n  \"txid\": \"59817e88b6a431a70093f39b0c12ed0788f94dc05d9ab5cb2f56c00a736ff4c2\",\r\n  \"hash\": \"59817e88b6a431a70093f39b0c12ed0788f94dc05d9ab5cb2f56c00a736ff4c2\",\r\n  \"version\": 2,\r\n  \"size\": 44,\r\n  \"vsize\": 44,\r\n  \"weight\": 176,\r\n  \"locktime\": 0,\r\n  \"vin\": [\r\n  ],\r\n  \"vout\": [\r\n    {\r\n      \"value\": 1.07338220,\r\n      \"n\": 0,\r\n      \"scriptPubKey\": {\r\n        \"asm\": \"OP_DUP OP_HASH160 08339cb23bbb53bf38f68bc087febb238108f96c OP_EQUALVERIFY OP_CHECKSIG\",\r\n        \"hex\": \"76a91408339cb23bbb53bf38f68bc087febb238108f96c88ac\",\r\n        \"address\": \"1kNEc94p77fsqCvATZroPPR38KT9KTsXj\",\r\n        \"type\": \"pubkeyhash\",\r\n        \"addresses\": [\r\n          \"1kNEc94p77fsqCvATZroPPR38KT9KTsXj\"\r\n        ],\r\n        \"reqSigs\": 1\r\n      }\r\n    }\r\n  ]\r\n}\r\n```\r\n\r\n\r\n\r\n./bitcoin-cli fundrawtransaction \"020000000001ecd96506000000001976a91408339cb23bbb53bf38f68bc087febb238108f96c88ac00000000\" \"{\\\"subtractFeeFromOutputs\\\":[0]}\"\r\n**`Insufficient funds`**\r\n",
      "created_at" : "2021-11-15T14:58:44Z",
      "html_url" : "https://github.com/bitcoin/bitcoin/issues/23026#issuecomment-968993633",
      "id" : 968993633,
      "issue_url" : "https://api.github.com/repos/bitcoin/bitcoin/issues/23026",
      "node_id" : "IC_kwDOABII5845wath",
      "performed_via_github_app" : null,
      "reactions" : {
         "+1" : 0,
         "-1" : 0,
         "confused" : 0,
         "eyes" : 0,
         "heart" : 0,
         "hooray" : 0,
         "laugh" : 0,
         "rocket" : 0,
         "total_count" : 0,
         "url" : "https://api.github.com/repos/bitcoin/bitcoin/issues/comments/968993633/reactions"
      },
      "updated_at" : "2021-11-15T14:59:29Z",
      "url" : "https://api.github.com/repos/bitcoin/bitcoin/issues/comments/968993633",
      "user" : {
         "avatar_url" : "https://avatars.githubusercontent.com/u/48992754?v=4",
         "events_url" : "https://api.github.com/users/DevMinJong/events{/privacy}",
         "followers_url" : "https://api.github.com/users/DevMinJong/followers",
         "following_url" : "https://api.github.com/users/DevMinJong/following{/other_user}",
         "gists_url" : "https://api.github.com/users/DevMinJong/gists{/gist_id}",
         "gravatar_id" : "",
         "html_url" : "https://github.com/DevMinJong",
         "id" : 48992754,
         "login" : "DevMinJong",
         "node_id" : "MDQ6VXNlcjQ4OTkyNzU0",
         "organizations_url" : "https://api.github.com/users/DevMinJong/orgs",
         "received_events_url" : "https://api.github.com/users/DevMinJong/received_events",
         "repos_url" : "https://api.github.com/users/DevMinJong/repos",
         "site_admin" : false,
         "starred_url" : "https://api.github.com/users/DevMinJong/starred{/owner}{/repo}",
         "subscriptions_url" : "https://api.github.com/users/DevMinJong/subscriptions",
         "type" : "User",
         "url" : "https://api.github.com/users/DevMinJong"
      }
   },
   {
      "author_association" : "MEMBER",
      "body" : "How many coins are in the wallet and what feerate is being targeted? It might be that the two version target different feerates.",
      "created_at" : "2021-11-15T15:22:23Z",
      "html_url" : "https://github.com/bitcoin/bitcoin/issues/23026#issuecomment-969018064",
      "id" : 969018064,
      "issue_url" : "https://api.github.com/repos/bitcoin/bitcoin/issues/23026",
      "node_id" : "IC_kwDOABII5845wgrQ",
      "performed_via_github_app" : null,
      "reactions" : {
         "+1" : 0,
         "-1" : 0,
         "confused" : 0,
         "eyes" : 0,
         "heart" : 0,
         "hooray" : 0,
         "laugh" : 0,
         "rocket" : 0,
         "total_count" : 0,
         "url" : "https://api.github.com/repos/bitcoin/bitcoin/issues/comments/969018064/reactions"
      },
      "updated_at" : "2021-11-15T15:22:23Z",
      "url" : "https://api.github.com/repos/bitcoin/bitcoin/issues/comments/969018064",
      "user" : {
         "avatar_url" : "https://avatars.githubusercontent.com/u/6399679?v=4",
         "events_url" : "https://api.github.com/users/MarcoFalke/events{/privacy}",
         "followers_url" : "https://api.github.com/users/MarcoFalke/followers",
         "following_url" : "https://api.github.com/users/MarcoFalke/following{/other_user}",
         "gists_url" : "https://api.github.com/users/MarcoFalke/gists{/gist_id}",
         "gravatar_id" : "",
         "html_url" : "https://github.com/MarcoFalke",
         "id" : 6399679,
         "login" : "MarcoFalke",
         "node_id" : "MDQ6VXNlcjYzOTk2Nzk=",
         "organizations_url" : "https://api.github.com/users/MarcoFalke/orgs",
         "received_events_url" : "https://api.github.com/users/MarcoFalke/received_events",
         "repos_url" : "https://api.github.com/users/MarcoFalke/repos",
         "site_admin" : false,
         "starred_url" : "https://api.github.com/users/MarcoFalke/starred{/owner}{/repo}",
         "subscriptions_url" : "https://api.github.com/users/MarcoFalke/subscriptions",
         "type" : "User",
         "url" : "https://api.github.com/users/MarcoFalke"
      }
   },
   {
      "author_association" : "NONE",
      "body" : "@MarcoFalke @yurayakimenko \r\nWallet's balance was sufficient to pay a fee, and we used \"subractFeeFromOutputs\" as a \"fundrawtransaction\" option to transfer all of the money from the account.\r\nHowever, if the feeRate is set high, the amount to pay the fee is sufficient, but an \"Insufficient Funds\" error occurs.\r\n\r\n## v0.17.1\r\n\r\n./bitcoin-cli getbalance \r\n`0.02747781`\r\n\r\n./bitcoin-cli createrawtransaction [] \"[{\\\"1BoN7fHjtdufAL4ZjVnbW38SsAMbQwPK4R\\\":0.02747781}]\"\r\n`02000000000185ed2900000000001976a91476760491fdf2f1dc5428c79058c49e93fc432b8188ac00000000`\r\n\r\n\r\n**[high feeRate case]**\r\n./bitcoin-cli fundrawtransaction \"02000000000185ed2900000000001976a91476760491fdf2f1dc5428c79058c49e93fc432b8188ac00000000\" \"{\\\"subtractFeeFromOutputs\\\":[0], \\\"feeRate\\\":0.01016711}\"\r\n```\r\n{\r\n  \"hex\": \"020000001183fb588c5ceae790f627fd76278fefbe7ecb414ae3c83678746b5a7c32b9b5b70000000000fdffffff1dc5e5d10a325c739924ee0f990171eb1660ca24f6038dec6c69799721590ba90000000000fdffffffda529a6edd29c32b1f746ac39d1b28776543a6aed5c330007b0756743ee2f8420000000000fdfffffff3dd6ea5b7fc0540a179162cbd1b9c25e82d7d5c0ad6a7e086dcba4f4f9798760100000000fdffffff57afa33e56d3cdcc752cfae9e0b44b8e9608400d07e5ddd122669426b29ea9c80100000000fdffffffccee315e4800d7ac0696c8f8845d9985573882f1483d95572c3465226fd872d40000000000fdffffff4ed7188988b48dcd81723fed788cd72811173c88557dc0e807867b2c116cbf640000000000fdffffff342d28a62a5f005adcb1bbc8eae7640377c78b643e5cb2642235e58498047b200000000000fdffffff4ffdff99026432d641b7be05979661088f74ea5304649102c090cebb552e1e1e0000000000fdffffffc39083c8b187b4feec0c93a64d7e0b3377dbb4d436d5b869f42a8c863af685b50000000000fdffffff4ae03f15b3f1ccfe1d1672e94098bb56add36bbd7d6cfba187c7ec61af42aa830000000000fdfffffff9c4284c741c018136e588b921a3dc365c9a3d93f2b788f523dced9a3f3b53ff0100000000fdffffff90c43d6d07ce04c8676376cbabdd9293cc251320d3dfa065ffe22524f14207150100000000fdffffffae5ba3902ba27be221261ec4a19e88cebec6e7d37c7264170a0b4304b3f94fd50000000000fdffffffc579ad3661c6999eeff283f97d3b2bd119d449c18e46fa28fb4d344493d3ce280100000000fdffffff3db96066d514891dececeadf3cc9f75cec457aa78cc5dbd2f7f6c8254674df950000000000fdffffff69a8eeeefbc5912636d3c715c73581525db4de907556e1c132c1d4436030cf700100000000fdffffff01147c0300000000001976a91476760491fdf2f1dc5428c79058c49e93fc432b8188ac00000000\",\r\n  \"fee\": 0.02519409,\r\n  \"changepos\": -1\r\n}\r\n```\r\n\r\n./bicoin-cli decderawtransaction \"020000001183fb588c5ceae790f627fd76278fefbe7ecb414ae3c83678746b5a7c32b9b5b70000000000fdffffff1dc5e5d10a325c739924ee0f990171eb1660ca24f6038dec6c69799721590ba90000000000fdffffffda529a6edd29c32b1f746ac39d1b28776543a6aed5c330007b0756743ee2f8420000000000fdfffffff3dd6ea5b7fc0540a179162cbd1b9c25e82d7d5c0ad6a7e086dcba4f4f9798760100000000fdffffff57afa33e56d3cdcc752cfae9e0b44b8e9608400d07e5ddd122669426b29ea9c80100000000fdffffffccee315e4800d7ac0696c8f8845d9985573882f1483d95572c3465226fd872d40000000000fdffffff4ed7188988b48dcd81723fed788cd72811173c88557dc0e807867b2c116cbf640000000000fdffffff342d28a62a5f005adcb1bbc8eae7640377c78b643e5cb2642235e58498047b200000000000fdffffff4ffdff99026432d641b7be05979661088f74ea5304649102c090cebb552e1e1e0000000000fdffffffc39083c8b187b4feec0c93a64d7e0b3377dbb4d436d5b869f42a8c863af685b50000000000fdffffff4ae03f15b3f1ccfe1d1672e94098bb56add36bbd7d6cfba187c7ec61af42aa830000000000fdfffffff9c4284c741c018136e588b921a3dc365c9a3d93f2b788f523dced9a3f3b53ff0100000000fdffffff90c43d6d07ce04c8676376cbabdd9293cc251320d3dfa065ffe22524f14207150100000000fdffffffae5ba3902ba27be221261ec4a19e88cebec6e7d37c7264170a0b4304b3f94fd50000000000fdffffffc579ad3661c6999eeff283f97d3b2bd119d449c18e46fa28fb4d344493d3ce280100000000fdffffff3db96066d514891dececeadf3cc9f75cec457aa78cc5dbd2f7f6c8254674df950000000000fdffffff69a8eeeefbc5912636d3c715c73581525db4de907556e1c132c1d4436030cf700100000000fdffffff01147c0300000000001976a91476760491fdf2f1dc5428c79058c49e93fc432b8188ac00000000\"\r\n```\r\n{\r\n  \"txid\": \"2e6d8121885968861261a9473f889af0abfccd32f784178eb20dc62ec6bad8e4\",\r\n  \"hash\": \"2e6d8121885968861261a9473f889af0abfccd32f784178eb20dc62ec6bad8e4\",\r\n  \"version\": 2,\r\n  \"size\": 741,\r\n  \"vsize\": 741,\r\n  \"weight\": 2964,\r\n  \"locktime\": 0,\r\n  \"vin\": [\r\n    {\r\n      \"txid\": \"b7b5b9327c5a6b747836c8e34a41cb7ebeef8f2776fd27f690e7ea5c8c58fb83\",\r\n      \"vout\": 0,\r\n      \"scriptSig\": {\r\n        \"asm\": \"\",\r\n        \"hex\": \"\"\r\n      },\r\n      \"sequence\": 4294967293\r\n    },\r\n    {\r\n      \"txid\": \"a90b59219779696cec8d03f624ca6016eb7101990fee2499735c320ad1e5c51d\",\r\n      \"vout\": 0,\r\n      \"scriptSig\": {\r\n        \"asm\": \"\",\r\n        \"hex\": \"\"\r\n      },\r\n      \"sequence\": 4294967293\r\n    }\r\n\r\n....\r\n  ],\r\n  \"vout\": [\r\n    {\r\n      \"value\": 0.00228372,\r\n      \"n\": 0,\r\n      \"scriptPubKey\": {\r\n        \"asm\": \"OP_DUP OP_HASH160 76760491fdf2f1dc5428c79058c49e93fc432b81 OP_EQUALVERIFY OP_CHECKSIG\",\r\n        \"hex\": \"76a91476760491fdf2f1dc5428c79058c49e93fc432b8188ac\",\r\n        \"reqSigs\": 1,\r\n        \"type\": \"pubkeyhash\",\r\n        \"addresses\": [\r\n          \"1BoN7fHjtdufAL4ZjVnbW38SsAMbQwPK4R\"\r\n        ]\r\n      }\r\n    }\r\n  ]\r\n}\r\n```\r\n\r\n\r\n## v22.0\r\n\r\n./bitcoin-cli getbalance \r\n`0.02747781`\r\n\r\n./bitcoin-cli createrawtransaction [] \"[{\\\"1BoN7fHjtdufAL4ZjVnbW38SsAMbQwPK4R\\\":0.02747781}]\"\r\n`02000000000185ed2900000000001976a91476760491fdf2f1dc5428c79058c49e93fc432b8188ac00000000`\r\n\r\n\r\n\r\n**[Appropriate fee case]**\r\n./bitcoin-cli fundrawtransaction \"02000000000185ed2900000000001976a91476760491fdf2f1dc5428c79058c49e93fc432b8188ac00000000\" \"{\\\"subtractFeeFromOutputs\\\":[0], \\\"feeRate\\\":0.00006711}\"\r\n```\r\n{\r\n  \"hex\": \"020000001190c43d6d07ce04c8676376cbabdd9293cc251320d3dfa065ffe22524f14207150100000000fdffffff83fb588c5ceae790f627fd76278fefbe7ecb414ae3c83678746b5a7c32b9b5b70000000000fdffffff69a8eeeefbc5912636d3c715c73581525db4de907556e1c132c1d4436030cf700100000000fdffffff4ed7188988b48dcd81723fed788cd72811173c88557dc0e807867b2c116cbf640000000000fdffffff4ffdff99026432d641b7be05979661088f74ea5304649102c090cebb552e1e1e0000000000fdffffff3db96066d514891dececeadf3cc9f75cec457aa78cc5dbd2f7f6c8254674df950000000000fdffffff342d28a62a5f005adcb1bbc8eae7640377c78b643e5cb2642235e58498047b200000000000fdffffffda529a6edd29c32b1f746ac39d1b28776543a6aed5c330007b0756743ee2f8420000000000fdffffffae5ba3902ba27be221261ec4a19e88cebec6e7d37c7264170a0b4304b3f94fd50000000000fdffffff57afa33e56d3cdcc752cfae9e0b44b8e9608400d07e5ddd122669426b29ea9c80100000000fdffffff1dc5e5d10a325c739924ee0f990171eb1660ca24f6038dec6c69799721590ba90000000000fdfffffff3dd6ea5b7fc0540a179162cbd1b9c25e82d7d5c0ad6a7e086dcba4f4f9798760100000000fdffffffccee315e4800d7ac0696c8f8845d9985573882f1483d95572c3465226fd872d40000000000fdffffff4ae03f15b3f1ccfe1d1672e94098bb56add36bbd7d6cfba187c7ec61af42aa830000000000fdffffffc39083c8b187b4feec0c93a64d7e0b3377dbb4d436d5b869f42a8c863af685b50000000000fdfffffff9c4284c741c018136e588b921a3dc365c9a3d93f2b788f523dced9a3f3b53ff0100000000fdffffffc579ad3661c6999eeff283f97d3b2bd119d449c18e46fa28fb4d344493d3ce280100000000fdffffff0190ac2900000000001976a91476760491fdf2f1dc5428c79058c49e93fc432b8188ac00000000\",\r\n  \"fee\": 0.00016629,\r\n  \"changepos\": -1\r\n}\r\n```\r\n\r\n **[high fee case]** \r\n./bitcoin-cli fundrawtransaction \"02000000000185ed2900000000001976a91476760491fdf2f1dc5428c79058c49e93fc432b8188ac00000000\" \"\r\n{\\\"subtractFeeFromOutputs\\\":[0], \\\"feeRate\\\":0.00006712}\"\r\n```\r\nerror code: -4\r\nerror message:\r\nInsufficient funds\r\n```\r\n\r\n##.\r\n**In the above case, v22.0 shows a normal response if the feeRate is 0.00006711 or less, and an error if it is 0.00006712 or higher. Can I know why?**\r\n\r\n\r\n\r\n",
      "created_at" : "2021-11-17T02:44:48Z",
      "html_url" : "https://github.com/bitcoin/bitcoin/issues/23026#issuecomment-971123270",
      "id" : 971123270,
      "issue_url" : "https://api.github.com/repos/bitcoin/bitcoin/issues/23026",
      "node_id" : "IC_kwDOABII58454ipG",
      "performed_via_github_app" : null,
      "reactions" : {
         "+1" : 0,
         "-1" : 0,
         "confused" : 0,
         "eyes" : 0,
         "heart" : 0,
         "hooray" : 0,
         "laugh" : 0,
         "rocket" : 0,
         "total_count" : 0,
         "url" : "https://api.github.com/repos/bitcoin/bitcoin/issues/comments/971123270/reactions"
      },
      "updated_at" : "2021-11-17T02:44:48Z",
      "url" : "https://api.github.com/repos/bitcoin/bitcoin/issues/comments/971123270",
      "user" : {
         "avatar_url" : "https://avatars.githubusercontent.com/u/48992754?v=4",
         "events_url" : "https://api.github.com/users/DevMinJong/events{/privacy}",
         "followers_url" : "https://api.github.com/users/DevMinJong/followers",
         "following_url" : "https://api.github.com/users/DevMinJong/following{/other_user}",
         "gists_url" : "https://api.github.com/users/DevMinJong/gists{/gist_id}",
         "gravatar_id" : "",
         "html_url" : "https://github.com/DevMinJong",
         "id" : 48992754,
         "login" : "DevMinJong",
         "node_id" : "MDQ6VXNlcjQ4OTkyNzU0",
         "organizations_url" : "https://api.github.com/users/DevMinJong/orgs",
         "received_events_url" : "https://api.github.com/users/DevMinJong/received_events",
         "repos_url" : "https://api.github.com/users/DevMinJong/repos",
         "site_admin" : false,
         "starred_url" : "https://api.github.com/users/DevMinJong/starred{/owner}{/repo}",
         "subscriptions_url" : "https://api.github.com/users/DevMinJong/subscriptions",
         "type" : "User",
         "url" : "https://api.github.com/users/DevMinJong"
      }
   },
   {
      "author_association" : "MEMBER",
      "body" : "This is likely due to filtering for negative effective value inputs (i.e. UTXOs that cost more to spend than value they provide). Some of the inputs appear to be fairly small, so at high(er) feerates, their effective values become less than or equal to zero. In 22.0, the first coin selection algorithm, BnB, requires that effective values are positive. If one or more of your UTXOs are filtered out because their effective values are too low, the remaining UTXOs do not have enough value to meet the target when BnB is run. The second algorithm, Knapsack, does not require positive effective values. However it assumes that a change output will be made and so it increases the target to account for the change output (this is probably a bug for the subtract fee from outputs case). With an increased target, your wallet does not have enough funds to reach it, and so Knapsack also fails. Hence there is an insufficient funds error.\r\n\r\nCoin selection has changed quite a bit since 0.17.1 so that's why there is a difference.",
      "created_at" : "2021-11-17T04:41:30Z",
      "html_url" : "https://github.com/bitcoin/bitcoin/issues/23026#issuecomment-971176101",
      "id" : 971176101,
      "issue_url" : "https://api.github.com/repos/bitcoin/bitcoin/issues/23026",
      "node_id" : "IC_kwDOABII58454vil",
      "performed_via_github_app" : null,
      "reactions" : {
         "+1" : 0,
         "-1" : 0,
         "confused" : 0,
         "eyes" : 0,
         "heart" : 0,
         "hooray" : 0,
         "laugh" : 0,
         "rocket" : 0,
         "total_count" : 0,
         "url" : "https://api.github.com/repos/bitcoin/bitcoin/issues/comments/971176101/reactions"
      },
      "updated_at" : "2021-11-17T04:42:34Z",
      "url" : "https://api.github.com/repos/bitcoin/bitcoin/issues/comments/971176101",
      "user" : {
         "avatar_url" : "https://avatars.githubusercontent.com/u/3782274?v=4",
         "events_url" : "https://api.github.com/users/achow101/events{/privacy}",
         "followers_url" : "https://api.github.com/users/achow101/followers",
         "following_url" : "https://api.github.com/users/achow101/following{/other_user}",
         "gists_url" : "https://api.github.com/users/achow101/gists{/gist_id}",
         "gravatar_id" : "",
         "html_url" : "https://github.com/achow101",
         "id" : 3782274,
         "login" : "achow101",
         "node_id" : "MDQ6VXNlcjM3ODIyNzQ=",
         "organizations_url" : "https://api.github.com/users/achow101/orgs",
         "received_events_url" : "https://api.github.com/users/achow101/received_events",
         "repos_url" : "https://api.github.com/users/achow101/repos",
         "site_admin" : false,
         "starred_url" : "https://api.github.com/users/achow101/starred{/owner}{/repo}",
         "subscriptions_url" : "https://api.github.com/users/achow101/subscriptions",
         "type" : "User",
         "url" : "https://api.github.com/users/achow101"
      }
   },
   {
      "author_association" : "MEMBER",
      "body" : "@yurayakimenko would you be able to test #23534 and see if it fixes your issue?",
      "created_at" : "2021-11-22T02:59:18Z",
      "html_url" : "https://github.com/bitcoin/bitcoin/issues/23026#issuecomment-975025210",
      "id" : 975025210,
      "issue_url" : "https://api.github.com/repos/bitcoin/bitcoin/issues/23026",
      "node_id" : "IC_kwDOABII5846HbQ6",
      "performed_via_github_app" : null,
      "reactions" : {
         "+1" : 0,
         "-1" : 0,
         "confused" : 0,
         "eyes" : 0,
         "heart" : 0,
         "hooray" : 0,
         "laugh" : 0,
         "rocket" : 0,
         "total_count" : 0,
         "url" : "https://api.github.com/repos/bitcoin/bitcoin/issues/comments/975025210/reactions"
      },
      "updated_at" : "2021-11-22T02:59:18Z",
      "url" : "https://api.github.com/repos/bitcoin/bitcoin/issues/comments/975025210",
      "user" : {
         "avatar_url" : "https://avatars.githubusercontent.com/u/3211283?v=4",
         "events_url" : "https://api.github.com/users/meshcollider/events{/privacy}",
         "followers_url" : "https://api.github.com/users/meshcollider/followers",
         "following_url" : "https://api.github.com/users/meshcollider/following{/other_user}",
         "gists_url" : "https://api.github.com/users/meshcollider/gists{/gist_id}",
         "gravatar_id" : "",
         "html_url" : "https://github.com/meshcollider",
         "id" : 3211283,
         "login" : "meshcollider",
         "node_id" : "MDQ6VXNlcjMyMTEyODM=",
         "organizations_url" : "https://api.github.com/users/meshcollider/orgs",
         "received_events_url" : "https://api.github.com/users/meshcollider/received_events",
         "repos_url" : "https://api.github.com/users/meshcollider/repos",
         "site_admin" : false,
         "starred_url" : "https://api.github.com/users/meshcollider/starred{/owner}{/repo}",
         "subscriptions_url" : "https://api.github.com/users/meshcollider/subscriptions",
         "type" : "User",
         "url" : "https://api.github.com/users/meshcollider"
      }
   },
   {
      "author_association" : "MEMBER",
      "body" : "Should this bug be closed, now that https://github.com/bitcoin/bitcoin/pull/23534 is also closed?",
      "created_at" : "2022-03-31T10:28:54Z",
      "html_url" : "https://github.com/bitcoin/bitcoin/issues/23026#issuecomment-1084388688",
      "id" : 1084388688,
      "issue_url" : "https://api.github.com/repos/bitcoin/bitcoin/issues/23026",
      "node_id" : "IC_kwDOABII585AonVQ",
      "performed_via_github_app" : null,
      "reactions" : {
         "+1" : 0,
         "-1" : 0,
         "confused" : 0,
         "eyes" : 0,
         "heart" : 0,
         "hooray" : 0,
         "laugh" : 0,
         "rocket" : 0,
         "total_count" : 0,
         "url" : "https://api.github.com/repos/bitcoin/bitcoin/issues/comments/1084388688/reactions"
      },
      "updated_at" : "2022-03-31T10:28:54Z",
      "url" : "https://api.github.com/repos/bitcoin/bitcoin/issues/comments/1084388688",
      "user" : {
         "avatar_url" : "https://avatars.githubusercontent.com/u/6399679?v=4",
         "events_url" : "https://api.github.com/users/MarcoFalke/events{/privacy}",
         "followers_url" : "https://api.github.com/users/MarcoFalke/followers",
         "following_url" : "https://api.github.com/users/MarcoFalke/following{/other_user}",
         "gists_url" : "https://api.github.com/users/MarcoFalke/gists{/gist_id}",
         "gravatar_id" : "",
         "html_url" : "https://github.com/MarcoFalke",
         "id" : 6399679,
         "login" : "MarcoFalke",
         "node_id" : "MDQ6VXNlcjYzOTk2Nzk=",
         "organizations_url" : "https://api.github.com/users/MarcoFalke/orgs",
         "received_events_url" : "https://api.github.com/users/MarcoFalke/received_events",
         "repos_url" : "https://api.github.com/users/MarcoFalke/repos",
         "site_admin" : false,
         "starred_url" : "https://api.github.com/users/MarcoFalke/starred{/owner}{/repo}",
         "subscriptions_url" : "https://api.github.com/users/MarcoFalke/subscriptions",
         "type" : "User",
         "url" : "https://api.github.com/users/MarcoFalke"
      }
   },
   {
      "author_association" : "CONTRIBUTOR",
      "body" : "Yes, this issue should be addressed per the new `sendall` RPC introduced by #24118.",
      "created_at" : "2022-05-09T18:41:30Z",
      "html_url" : "https://github.com/bitcoin/bitcoin/issues/23026#issuecomment-1121447512",
      "id" : 1121447512,
      "issue_url" : "https://api.github.com/repos/bitcoin/bitcoin/issues/23026",
      "node_id" : "IC_kwDOABII585C1-5Y",
      "performed_via_github_app" : null,
      "reactions" : {
         "+1" : 0,
         "-1" : 0,
         "confused" : 0,
         "eyes" : 0,
         "heart" : 0,
         "hooray" : 0,
         "laugh" : 0,
         "rocket" : 0,
         "total_count" : 0,
         "url" : "https://api.github.com/repos/bitcoin/bitcoin/issues/comments/1121447512/reactions"
      },
      "updated_at" : "2022-05-09T18:41:30Z",
      "url" : "https://api.github.com/repos/bitcoin/bitcoin/issues/comments/1121447512",
      "user" : {
         "avatar_url" : "https://avatars.githubusercontent.com/u/4060799?v=4",
         "events_url" : "https://api.github.com/users/Xekyo/events{/privacy}",
         "followers_url" : "https://api.github.com/users/Xekyo/followers",
         "following_url" : "https://api.github.com/users/Xekyo/following{/other_user}",
         "gists_url" : "https://api.github.com/users/Xekyo/gists{/gist_id}",
         "gravatar_id" : "",
         "html_url" : "https://github.com/Xekyo",
         "id" : 4060799,
         "login" : "Xekyo",
         "node_id" : "MDQ6VXNlcjQwNjA3OTk=",
         "organizations_url" : "https://api.github.com/users/Xekyo/orgs",
         "received_events_url" : "https://api.github.com/users/Xekyo/received_events",
         "repos_url" : "https://api.github.com/users/Xekyo/repos",
         "site_admin" : false,
         "starred_url" : "https://api.github.com/users/Xekyo/starred{/owner}{/repo}",
         "subscriptions_url" : "https://api.github.com/users/Xekyo/subscriptions",
         "type" : "User",
         "url" : "https://api.github.com/users/Xekyo"
      }
   }
]
