{
   "assignee" : null,
   "assignees" : [],
   "author_association" : "NONE",
   "body" : "Example transaction : https://www.blockchain.com/btc/tx/ab39d6d3bc7a7907d95eb47fd0f97f170bc78a0178cc30792d41e8d8a89e10a4\r\n\r\n**I tried wth bitcoin-tx got the below output. But how to derive script hash address from \"vin\" in raw transaction**\r\n\r\n**How to derive '36QbS979hawHk3NM9ohQBj4RFnrMR2jd8u', '3FHVy2Btu1zpadAv78FodN3vf46Be8hTak' from VIN ?**\r\n\r\n```\r\nroot@bnode:~# bitcoin-tx -json 02000000000102e4f23fa7050d2178f80f565578679067f721f7ac52136358ea357203b9b570820000000017160014496ff97c8fe1342a75f6f87c0700cf493372f82afeffffffe7a1d3ef7b49291d04a6392d58ab07c87e52aa37fda06236436ad8f5c9b5ff9c000000001716001418abff0a484ea371b99f51133da790add8d262e0feffffff02ec9b0400000000001976a91441fba3542015667bb84b9ab757a2b80cde9f331888ac3c3f0f000000000017a91490a601f93a8e6633ef1668e69e2b765d50a363328702483045022100eb3b4e154e26d3d00dde415cad31a20b9d6b60b7da17a5bf90c268c3db6022e902207a52e59f107f9e341ae811f881be7c2ca2b216685e87fe2458e1abb4d28b81e7012102fdec433c2400a4b9b823286d3e541f7d56dd928175e528283548e8c72bd06a0502473044022008c858b37cdf9c77010854375cd5aeaec001117251d8f900cb72c4e1277e3a18022042199e03ef34d45a09b064924a9808e37faa2adf87e477ea72e08c3fdb9b3f52012103536294696277d189af8a3ee1847fe3f54f88f7ed8fb6d7739517caa7730d0db852560800\r\n{\r\n    \"txid\": \"ab39d6d3bc7a7907d95eb47fd0f97f170bc78a0178cc30792d41e8d8a89e10a4\",\r\n    \"hash\": \"c231ebd8eabb32206626a3984acc2fbb4881bb57f9a5e765ca48463ffea95fd9\",\r\n    \"version\": 2,\r\n    \"size\": 421,\r\n    \"vsize\": 259,\r\n    \"locktime\": 546386,\r\n    \"vin\": [\r\n        {\r\n            \"txid\": \"8270b5b9037235ea58631352acf721f76790677855560ff878210d05a73ff2e4\",\r\n            \"vout\": 0,\r\n            \"scriptSig\": {\r\n                \"asm\": \"0014496ff97c8fe1342a75f6f87c0700cf493372f82a\",\r\n                \"hex\": \"160014496ff97c8fe1342a75f6f87c0700cf493372f82a\"\r\n            },\r\n            \"txinwitness\": [\r\n                \"3045022100eb3b4e154e26d3d00dde415cad31a20b9d6b60b7da17a5bf90c268c3db6022e902207a52e59f107f9e341ae811f881be7c2ca2b216685e87fe2458e1abb4d28b81e701\",\r\n                \"02fdec433c2400a4b9b823286d3e541f7d56dd928175e528283548e8c72bd06a05\"\r\n            ],\r\n            \"sequence\": 4294967294\r\n        },\r\n        {\r\n            \"txid\": \"9cffb5c9f5d86a433662a0fd37aa527ec807ab582d39a6041d29497befd3a1e7\",\r\n            \"vout\": 0,\r\n            \"scriptSig\": {\r\n                \"asm\": \"001418abff0a484ea371b99f51133da790add8d262e0\",\r\n                \"hex\": \"16001418abff0a484ea371b99f51133da790add8d262e0\"\r\n            },\r\n            \"txinwitness\": [\r\n                \"3044022008c858b37cdf9c77010854375cd5aeaec001117251d8f900cb72c4e1277e3a18022042199e03ef34d45a09b064924a9808e37faa2adf87e477ea72e08c3fdb9b3f5201\",\r\n                \"03536294696277d189af8a3ee1847fe3f54f88f7ed8fb6d7739517caa7730d0db8\"\r\n            ],\r\n            \"sequence\": 4294967294\r\n        }\r\n    ],\r\n    \"vout\": [\r\n        {\r\n            \"value\": 0.00302060,\r\n            \"n\": 0,\r\n            \"scriptPubKey\": {\r\n                \"asm\": \"OP_DUP OP_HASH160 41fba3542015667bb84b9ab757a2b80cde9f3318 OP_EQUALVERIFY OP_CHECKSIG\",\r\n                \"hex\": \"76a91441fba3542015667bb84b9ab757a2b80cde9f331888ac\",\r\n                \"reqSigs\": 1,\r\n                \"type\": \"pubkeyhash\",\r\n                \"addresses\": [\r\n                    \"171tNasF8YTwLx7s11LKH82hM5Carg2qaR\"\r\n                ]\r\n            }\r\n        },\r\n        {\r\n            \"value\": 0.00999228,\r\n            \"n\": 1,\r\n            \"scriptPubKey\": {\r\n                \"asm\": \"OP_HASH160 90a601f93a8e6633ef1668e69e2b765d50a36332 OP_EQUAL\",\r\n                \"hex\": \"a91490a601f93a8e6633ef1668e69e2b765d50a3633287\",\r\n                \"reqSigs\": 1,\r\n                \"type\": \"scripthash\",\r\n                \"addresses\": [\r\n                    \"3Esr6atoH75y9bD6jrtJB9L7TrQtTvkG12\"\r\n                ]\r\n            }\r\n        }\r\n    ],\r\n    \"hex\": \"02000000000102e4f23fa7050d2178f80f565578679067f721f7ac52136358ea357203b9b570820000000017160014496ff97c8fe1342a75f6f87c0700cf493372f82afeffffffe7a1d3ef7b49291d04a6392d58ab07c87e52aa37fda06236436ad8f5c9b5ff9c000000001716001418abff0a484ea371b99f51133da790add8d262e0feffffff02ec9b0400000000001976a91441fba3542015667bb84b9ab757a2b80cde9f331888ac3c3f0f000000000017a91490a601f93a8e6633ef1668e69e2b765d50a363328702483045022100eb3b4e154e26d3d00dde415cad31a20b9d6b60b7da17a5bf90c268c3db6022e902207a52e59f107f9e341ae811f881be7c2ca2b216685e87fe2458e1abb4d28b81e7012102fdec433c2400a4b9b823286d3e541f7d56dd928175e528283548e8c72bd06a0502473044022008c858b37cdf9c77010854375cd5aeaec001117251d8f900cb72c4e1277e3a18022042199e03ef34d45a09b064924a9808e37faa2adf87e477ea72e08c3fdb9b3f52012103536294696277d189af8a3ee1847fe3f54f88f7ed8fb6d7739517caa7730d0db852560800\"\r\n}\r\n```",
   "closed_at" : "2018-10-19T07:54:04Z",
   "closed_by" : {
      "avatar_url" : "https://avatars1.githubusercontent.com/u/548488?v=4",
      "events_url" : "https://api.github.com/users/sipa/events{/privacy}",
      "followers_url" : "https://api.github.com/users/sipa/followers",
      "following_url" : "https://api.github.com/users/sipa/following{/other_user}",
      "gists_url" : "https://api.github.com/users/sipa/gists{/gist_id}",
      "gravatar_id" : "",
      "html_url" : "https://github.com/sipa",
      "id" : 548488,
      "login" : "sipa",
      "node_id" : "MDQ6VXNlcjU0ODQ4OA==",
      "organizations_url" : "https://api.github.com/users/sipa/orgs",
      "received_events_url" : "https://api.github.com/users/sipa/received_events",
      "repos_url" : "https://api.github.com/users/sipa/repos",
      "site_admin" : false,
      "starred_url" : "https://api.github.com/users/sipa/starred{/owner}{/repo}",
      "subscriptions_url" : "https://api.github.com/users/sipa/subscriptions",
      "type" : "User",
      "url" : "https://api.github.com/users/sipa"
   },
   "comments" : 1,
   "comments_url" : "https://api.github.com/repos/bitcoin/bitcoin/issues/14516/comments",
   "created_at" : "2018-10-19T06:59:20Z",
   "events_url" : "https://api.github.com/repos/bitcoin/bitcoin/issues/14516/events",
   "html_url" : "https://github.com/bitcoin/bitcoin/issues/14516",
   "id" : 371830000,
   "labels" : [],
   "labels_url" : "https://api.github.com/repos/bitcoin/bitcoin/issues/14516/labels{/name}",
   "locked" : false,
   "milestone" : null,
   "node_id" : "MDU6SXNzdWUzNzE4MzAwMDA=",
   "number" : 14516,
   "repository_url" : "https://api.github.com/repos/bitcoin/bitcoin",
   "state" : "closed",
   "title" : "Bitcoin-tx : how to derive script hash address from \"VIN\" in raw transaction?",
   "updated_at" : "2018-10-19T07:54:04Z",
   "url" : "https://api.github.com/repos/bitcoin/bitcoin/issues/14516",
   "user" : {
      "avatar_url" : "https://avatars3.githubusercontent.com/u/10137?v=4",
      "events_url" : "https://api.github.com/users/ghost/events{/privacy}",
      "followers_url" : "https://api.github.com/users/ghost/followers",
      "following_url" : "https://api.github.com/users/ghost/following{/other_user}",
      "gists_url" : "https://api.github.com/users/ghost/gists{/gist_id}",
      "gravatar_id" : "",
      "html_url" : "https://github.com/ghost",
      "id" : 10137,
      "login" : "ghost",
      "node_id" : "MDQ6VXNlcjEwMTM3",
      "organizations_url" : "https://api.github.com/users/ghost/orgs",
      "received_events_url" : "https://api.github.com/users/ghost/received_events",
      "repos_url" : "https://api.github.com/users/ghost/repos",
      "site_admin" : false,
      "starred_url" : "https://api.github.com/users/ghost/starred{/owner}{/repo}",
      "subscriptions_url" : "https://api.github.com/users/ghost/subscriptions",
      "type" : "User",
      "url" : "https://api.github.com/users/ghost"
   }
}
