{
   "_links" : {
      "comments" : {
         "href" : "https://api.github.com/repos/bitcoin/bitcoin/issues/17773/comments"
      },
      "commits" : {
         "href" : "https://api.github.com/repos/bitcoin/bitcoin/pulls/17773/commits"
      },
      "html" : {
         "href" : "https://github.com/bitcoin/bitcoin/pull/17773"
      },
      "issue" : {
         "href" : "https://api.github.com/repos/bitcoin/bitcoin/issues/17773"
      },
      "review_comment" : {
         "href" : "https://api.github.com/repos/bitcoin/bitcoin/pulls/comments{/number}"
      },
      "review_comments" : {
         "href" : "https://api.github.com/repos/bitcoin/bitcoin/pulls/17773/comments"
      },
      "self" : {
         "href" : "https://api.github.com/repos/bitcoin/bitcoin/pulls/17773"
      },
      "statuses" : {
         "href" : "https://api.github.com/repos/bitcoin/bitcoin/statuses/fa4c6bf6be5e918b46896fdb353c9d18f0edc635"
      }
   },
   "additions" : 1,
   "assignee" : null,
   "assignees" : [],
   "author_association" : "MEMBER",
   "base" : {
      "label" : "bitcoin:master",
      "ref" : "master",
      "repo" : {
         "archive_url" : "https://api.github.com/repos/bitcoin/bitcoin/{archive_format}{/ref}",
         "archived" : false,
         "assignees_url" : "https://api.github.com/repos/bitcoin/bitcoin/assignees{/user}",
         "blobs_url" : "https://api.github.com/repos/bitcoin/bitcoin/git/blobs{/sha}",
         "branches_url" : "https://api.github.com/repos/bitcoin/bitcoin/branches{/branch}",
         "clone_url" : "https://github.com/bitcoin/bitcoin.git",
         "collaborators_url" : "https://api.github.com/repos/bitcoin/bitcoin/collaborators{/collaborator}",
         "comments_url" : "https://api.github.com/repos/bitcoin/bitcoin/comments{/number}",
         "commits_url" : "https://api.github.com/repos/bitcoin/bitcoin/commits{/sha}",
         "compare_url" : "https://api.github.com/repos/bitcoin/bitcoin/compare/{base}...{head}",
         "contents_url" : "https://api.github.com/repos/bitcoin/bitcoin/contents/{+path}",
         "contributors_url" : "https://api.github.com/repos/bitcoin/bitcoin/contributors",
         "created_at" : "2010-12-19T15:16:43Z",
         "default_branch" : "master",
         "deployments_url" : "https://api.github.com/repos/bitcoin/bitcoin/deployments",
         "description" : "Bitcoin Core integration/staging tree",
         "disabled" : false,
         "downloads_url" : "https://api.github.com/repos/bitcoin/bitcoin/downloads",
         "events_url" : "https://api.github.com/repos/bitcoin/bitcoin/events",
         "fork" : false,
         "forks" : 24811,
         "forks_count" : 24811,
         "forks_url" : "https://api.github.com/repos/bitcoin/bitcoin/forks",
         "full_name" : "bitcoin/bitcoin",
         "git_commits_url" : "https://api.github.com/repos/bitcoin/bitcoin/git/commits{/sha}",
         "git_refs_url" : "https://api.github.com/repos/bitcoin/bitcoin/git/refs{/sha}",
         "git_tags_url" : "https://api.github.com/repos/bitcoin/bitcoin/git/tags{/sha}",
         "git_url" : "git://github.com/bitcoin/bitcoin.git",
         "has_downloads" : false,
         "has_issues" : true,
         "has_pages" : false,
         "has_projects" : true,
         "has_wiki" : false,
         "homepage" : "https://bitcoincore.org/en/download",
         "hooks_url" : "https://api.github.com/repos/bitcoin/bitcoin/hooks",
         "html_url" : "https://github.com/bitcoin/bitcoin",
         "id" : 1181927,
         "issue_comment_url" : "https://api.github.com/repos/bitcoin/bitcoin/issues/comments{/number}",
         "issue_events_url" : "https://api.github.com/repos/bitcoin/bitcoin/issues/events{/number}",
         "issues_url" : "https://api.github.com/repos/bitcoin/bitcoin/issues{/number}",
         "keys_url" : "https://api.github.com/repos/bitcoin/bitcoin/keys{/key_id}",
         "labels_url" : "https://api.github.com/repos/bitcoin/bitcoin/labels{/name}",
         "language" : "C++",
         "languages_url" : "https://api.github.com/repos/bitcoin/bitcoin/languages",
         "license" : {
            "key" : "mit",
            "name" : "MIT License",
            "node_id" : "MDc6TGljZW5zZTEz",
            "spdx_id" : "MIT",
            "url" : "https://api.github.com/licenses/mit"
         },
         "merges_url" : "https://api.github.com/repos/bitcoin/bitcoin/merges",
         "milestones_url" : "https://api.github.com/repos/bitcoin/bitcoin/milestones{/number}",
         "mirror_url" : null,
         "name" : "bitcoin",
         "node_id" : "MDEwOlJlcG9zaXRvcnkxMTgxOTI3",
         "notifications_url" : "https://api.github.com/repos/bitcoin/bitcoin/notifications{?since,all,participating}",
         "open_issues" : 1083,
         "open_issues_count" : 1083,
         "owner" : {
            "avatar_url" : "https://avatars2.githubusercontent.com/u/528860?v=4",
            "events_url" : "https://api.github.com/users/bitcoin/events{/privacy}",
            "followers_url" : "https://api.github.com/users/bitcoin/followers",
            "following_url" : "https://api.github.com/users/bitcoin/following{/other_user}",
            "gists_url" : "https://api.github.com/users/bitcoin/gists{/gist_id}",
            "gravatar_id" : "",
            "html_url" : "https://github.com/bitcoin",
            "id" : 528860,
            "login" : "bitcoin",
            "node_id" : "MDEyOk9yZ2FuaXphdGlvbjUyODg2MA==",
            "organizations_url" : "https://api.github.com/users/bitcoin/orgs",
            "received_events_url" : "https://api.github.com/users/bitcoin/received_events",
            "repos_url" : "https://api.github.com/users/bitcoin/repos",
            "site_admin" : false,
            "starred_url" : "https://api.github.com/users/bitcoin/starred{/owner}{/repo}",
            "subscriptions_url" : "https://api.github.com/users/bitcoin/subscriptions",
            "type" : "Organization",
            "url" : "https://api.github.com/users/bitcoin"
         },
         "private" : false,
         "pulls_url" : "https://api.github.com/repos/bitcoin/bitcoin/pulls{/number}",
         "pushed_at" : "2019-12-19T17:45:42Z",
         "releases_url" : "https://api.github.com/repos/bitcoin/bitcoin/releases{/id}",
         "size" : 138699,
         "ssh_url" : "git@github.com:bitcoin/bitcoin.git",
         "stargazers_count" : 41611,
         "stargazers_url" : "https://api.github.com/repos/bitcoin/bitcoin/stargazers",
         "statuses_url" : "https://api.github.com/repos/bitcoin/bitcoin/statuses/{sha}",
         "subscribers_url" : "https://api.github.com/repos/bitcoin/bitcoin/subscribers",
         "subscription_url" : "https://api.github.com/repos/bitcoin/bitcoin/subscription",
         "svn_url" : "https://github.com/bitcoin/bitcoin",
         "tags_url" : "https://api.github.com/repos/bitcoin/bitcoin/tags",
         "teams_url" : "https://api.github.com/repos/bitcoin/bitcoin/teams",
         "trees_url" : "https://api.github.com/repos/bitcoin/bitcoin/git/trees{/sha}",
         "updated_at" : "2019-12-19T17:38:59Z",
         "url" : "https://api.github.com/repos/bitcoin/bitcoin",
         "watchers" : 41611,
         "watchers_count" : 41611
      },
      "sha" : "6fef85bfa3cd7f76e83b8b57f9e4acd63eb664ec",
      "user" : {
         "avatar_url" : "https://avatars2.githubusercontent.com/u/528860?v=4",
         "events_url" : "https://api.github.com/users/bitcoin/events{/privacy}",
         "followers_url" : "https://api.github.com/users/bitcoin/followers",
         "following_url" : "https://api.github.com/users/bitcoin/following{/other_user}",
         "gists_url" : "https://api.github.com/users/bitcoin/gists{/gist_id}",
         "gravatar_id" : "",
         "html_url" : "https://github.com/bitcoin",
         "id" : 528860,
         "login" : "bitcoin",
         "node_id" : "MDEyOk9yZ2FuaXphdGlvbjUyODg2MA==",
         "organizations_url" : "https://api.github.com/users/bitcoin/orgs",
         "received_events_url" : "https://api.github.com/users/bitcoin/received_events",
         "repos_url" : "https://api.github.com/users/bitcoin/repos",
         "site_admin" : false,
         "starred_url" : "https://api.github.com/users/bitcoin/starred{/owner}{/repo}",
         "subscriptions_url" : "https://api.github.com/users/bitcoin/subscriptions",
         "type" : "Organization",
         "url" : "https://api.github.com/users/bitcoin"
      }
   },
   "body" : "Wallet transactions have inputs, thus they are witness transactions. So properly set `iswitness` to true.\r\n\r\nThis fixes the errors of the following kind:\r\n\r\n```\r\n test  2019-12-18T14:46:14.457000Z TestFramework (ERROR): Assertion failed \r\n                                   Traceback (most recent call last):\r\n                                     File \"/bitcoin/test/functional/test_framework/test_framework.py\", line 112, in main\r\n                                       self.run_test()\r\n                                     File \"/bitcoin/test/functional/wallet_basic.py\", line 207, in run_test\r\n                                       node_0_bal = self.check_fee_amount(self.nodes[0].getbalance(), Decimal('20'), fee_per_byte, self.get_vsize(self.nodes[2].gettransaction(txid)['hex']))\r\n                                     File \"/bitcoin/test/functional/wallet_basic.py\", line 48, in check_fee_amount\r\n                                       assert_fee_amount(fee, tx_size, fee_per_byte * 1000)\r\n                                     File \"/bitcoin/test/functional/test_framework/util.py\", line 39, in assert_fee_amount\r\n                                       raise AssertionError(\"Fee of %s BTC too low! (Should be %s BTC)\" % (str(fee), str(target_fee)))\r\n                                   AssertionError: Fee of 0.00011000 BTC too low! (Should be 0.00019100 BTC)\r\n```\r\n\r\nFull log (with color):\r\n\r\n[log.colored.txt](https://github.com/bitcoin/bitcoin/files/3980749/log.colored.txt)\r\n\r\nRelevant excerpt:\r\n\r\n```\r\n node2 2019-12-18T14:46:13.427834Z [httpworker.0] [default wallet] Fee Calculation: Fee:11000 Bytes:110 Needed:11000 Tgt:0 (requested 0) Reason:\"PayTxFee set\" Decay 0.00000: Estimation: (-1 - -1) -nan% 0.0/(0.0 0 mem 0.0 out) Fail: (-1 - -1) -nan% 0.0/(0.0 0 mem 0.0 out) \r\n node2 2019-12-18T14:46:13.427867Z [httpworker.0] [default wallet] CommitTransaction: \r\n                                   CTransaction(hash=cc2d0a7862, ver=2, vin.size=1, vout.size=1, nLockTime=205)\r\n                                       CTxIn(COutPoint(fe5a0c8830, 1), scriptSig=, nSequence=4294967294)\r\n                                       CScriptWitness(30440220072d2f1dd001dc40aadec3c3926360033cc036250d603d957556562569d59958022000ca2f88a49c29075d534c1ed89ee678b6b4e9b5e28a897f37e3b5df6d114dff01, 03a7059f3416e80411ec1e02ecbf3e665fceda21d23a4e84e1559f2ed628da95c2)\r\n                                       CTxOut(nValue=9.99989000, scriptPubKey=001475dafea69b760d8e2024cf0bcd)\r\n node2 2019-12-18T14:46:13.427954Z [httpworker.0] [default wallet] AddToWallet cc2d0a786278c12034c0d286d1876bfaf10dd19253d8efecaa6621c81baa0030  new \r\n```\r\n\r\nRaw transaction:\r\n\r\n```\r\n# ./src/bitcoin-cli -datadir=/tmp/test_runner_\\342\\202\\277_\\360\\237\\217\\203_20191218_144609/wallet_basic_126/node2/ gettransaction cc2d0a786278c12034c0d286d1876bfaf10dd19253d8efecaa6621c81baa0030\r\n{\r\n  \"amount\": -9.99989000,\r\n  \"fee\": -0.00011000,\r\n  \"confirmations\": 1,\r\n  \"blockhash\": \"16f12dd1747458d905ec81af9dc1d576e011f0e4bc426f1b4559e77dd9d922df\",\r\n  \"blockheight\": 206,\r\n  \"blockindex\": 1,\r\n  \"blocktime\": 1576680407,\r\n  \"txid\": \"cc2d0a786278c12034c0d286d1876bfaf10dd19253d8efecaa6621c81baa0030\",\r\n  \"walletconflicts\": [\r\n  ],\r\n  \"time\": 1576680373,\r\n  \"timereceived\": 1576680373,\r\n  \"bip125-replaceable\": \"no\",\r\n  \"details\": [\r\n    {\r\n      \"address\": \"bcrt1qwhd0af5mwcxcugpyeu9umng4zewfwug47fhhe7\",\r\n      \"category\": \"send\",\r\n      \"amount\": -9.99989000,\r\n      \"vout\": 0,\r\n      \"fee\": -0.00011000,\r\n      \"abandoned\": false\r\n    }\r\n  ],\r\n  \"hex\": \"02000000000101dbada06e823a7eaca640c0248aaa7c145f790299acddfc49f6fdbf30880c5afe0100000000feffffff01089f9a3b0000000016001475dafea69b760d8e2024cf0bcdcd15165c977115024730440220072d2f1dd001dc40aadec3c3926360033cc036250d603d957556562569d59958022000ca2f88a49c29075d534c1ed89ee678b6b4e9b5e28a897f37e3b5df6d114dff012103a7059f3416e80411ec1e02ecbf3e665fceda21d23a4e84e1559f2ed628da95c2cd000000\"\r\n}\r\n\r\n# ./src/bitcoin-cli -datadir=/tmp/test_runner_\\342\\202\\277_\\360\\237\\217\\203_20191218_144609/wallet_basic_126/node2/ decoderawtransaction 02000000000101dbada06e823a7eaca640c0248aaa7c145f790299acddfc49f6fdbf30880c5afe0100000000feffffff01089f9a3b0000000016001475dafea69b760d8e2024cf0bcdcd15165c977115024730440220072d2f1dd001dc40aadec3c3926360033cc036250d603d957556562569d59958022000ca2f88a49c29075d534c1ed89ee678b6b4e9b5e28a897f37e3b5df6d114dff012103a7059f3416e80411ec1e02ecbf3e665fceda21d23a4e84e1559f2ed628da95c2cd000000\r\n{\r\n  \"txid\": \"658ee42c79f167c7ad21071773ca008d71e73cd42a36d6da0b66651b6d203a00\",\r\n  \"hash\": \"658ee42c79f167c7ad21071773ca008d71e73cd42a36d6da0b66651b6d203a00\",\r\n  \"version\": 2,\r\n  \"size\": 191,\r\n  \"vsize\": 191,\r\n  \"weight\": 764,\r\n  \"locktime\": 205,\r\n  \"vin\": [\r\n  ],\r\n  \"vout\": [\r\n    {\r\n      \"value\": 90957258090.81899777,\r\n      \"n\": 0,\r\n      \"scriptPubKey\": {\r\n        \"asm\": \"OP_RIPEMD160 c0248aaa7c145f790299acddfc49f6fdbf30880c5afe0100000000feffffff01089f9a3b0000000016001475dafea69b760d8e2024cf0bcdcd15165c97711502 30440220072d2f1dd001dc40aadec3c3926360033cc036250d603d957556562569d59958022000ca2f88a49c29075d534c1ed89ee678b6b4e9b5e28a897f37e3b5df6d114dff01 03a7059f3416e80411ec1e02ecbf3e665fceda21d23a4e84e1559f2ed628da95c2\",\r\n        \"hex\": \"a640c0248aaa7c145f790299acddfc49f6fdbf30880c5afe0100000000feffffff01089f9a3b0000000016001475dafea69b760d8e2024cf0bcdcd15165c977115024730440220072d2f1dd001dc40aadec3c3926360033cc036250d603d957556562569d59958022000ca2f88a49c29075d534c1ed89ee678b6b4e9b5e28a897f37e3b5df6d114dff012103a7059f3416e80411ec1e02ecbf3e665fceda21d23a4e84e1559f2ed628da95c2\",\r\n        \"type\": \"nonstandard\"\r\n      }\r\n    }\r\n  ]\r\n}\r\n\r\n# ./src/bitcoin-cli -datadir=/tmp/test_runner_\\342\\202\\277_\\360\\237\\217\\203_20191218_144609/wallet_basic_126/node2/ decoderawtransaction 02000000000101dbada06e823a7eaca640c0248aaa7c145f790299acddfc49f6fdbf30880c5afe0100000000feffffff01089f9a3b0000000016001475dafea69b760d8e2024cf0bcdcd15165c977115024730440220072d2f1dd001dc40aadec3c3926360033cc036250d603d957556562569d59958022000ca2f88a49c29075d534c1ed89ee678b6b4e9b5e28a897f37e3b5df6d114dff012103a7059f3416e80411ec1e02ecbf3e665fceda21d23a4e84e1559f2ed628da95c2cd000000 | grep vsize\r\n  \"vsize\": 191,\r\n\r\n\r\n# ./src/bitcoin-cli -datadir=/tmp/test_runner_\\342\\202\\277_\\360\\237\\217\\203_20191218_144609/wallet_basic_126/node2/ decoderawtransaction 02000000000101dbada06e823a7eaca640c0248aaa7c145f790299acddfc49f6fdbf30880c5afe0100000000feffffff01089f9a3b0000000016001475dafea69b760d8e2024cf0bcdcd15165c977115024730440220072d2f1dd001dc40aadec3c3926360033cc036250d603d957556562569d59958022000ca2f88a49c29075d534c1ed89ee678b6b4e9b5e28a897f37e3b5df6d114dff012103a7059f3416e80411ec1e02ecbf3e665fceda21d23a4e84e1559f2ed628da95c2cd000000 true | grep vsize\r\n  \"vsize\": 110,\r\n\r\n\r\n\r\n```\r\n",
   "changed_files" : 1,
   "closed_at" : "2019-12-19T16:54:43Z",
   "comments" : 2,
   "comments_url" : "https://api.github.com/repos/bitcoin/bitcoin/issues/17773/comments",
   "commits" : 1,
   "commits_url" : "https://api.github.com/repos/bitcoin/bitcoin/pulls/17773/commits",
   "created_at" : "2019-12-18T22:21:36Z",
   "deletions" : 1,
   "diff_url" : "https://github.com/bitcoin/bitcoin/pull/17773.diff",
   "head" : {
      "label" : "MarcoFalke:1912-testWalletVsizeWitness",
      "ref" : "1912-testWalletVsizeWitness",
      "repo" : {
         "archive_url" : "https://api.github.com/repos/MarcoFalke/bitcoin-core/{archive_format}{/ref}",
         "archived" : false,
         "assignees_url" : "https://api.github.com/repos/MarcoFalke/bitcoin-core/assignees{/user}",
         "blobs_url" : "https://api.github.com/repos/MarcoFalke/bitcoin-core/git/blobs{/sha}",
         "branches_url" : "https://api.github.com/repos/MarcoFalke/bitcoin-core/branches{/branch}",
         "clone_url" : "https://github.com/MarcoFalke/bitcoin-core.git",
         "collaborators_url" : "https://api.github.com/repos/MarcoFalke/bitcoin-core/collaborators{/collaborator}",
         "comments_url" : "https://api.github.com/repos/MarcoFalke/bitcoin-core/comments{/number}",
         "commits_url" : "https://api.github.com/repos/MarcoFalke/bitcoin-core/commits{/sha}",
         "compare_url" : "https://api.github.com/repos/MarcoFalke/bitcoin-core/compare/{base}...{head}",
         "contents_url" : "https://api.github.com/repos/MarcoFalke/bitcoin-core/contents/{+path}",
         "contributors_url" : "https://api.github.com/repos/MarcoFalke/bitcoin-core/contributors",
         "created_at" : "2015-08-01T12:42:47Z",
         "default_branch" : "master",
         "deployments_url" : "https://api.github.com/repos/MarcoFalke/bitcoin-core/deployments",
         "description" : "Development fork of https://github.com/bitcoin/bitcoin",
         "disabled" : false,
         "downloads_url" : "https://api.github.com/repos/MarcoFalke/bitcoin-core/downloads",
         "events_url" : "https://api.github.com/repos/MarcoFalke/bitcoin-core/events",
         "fork" : true,
         "forks" : 5,
         "forks_count" : 5,
         "forks_url" : "https://api.github.com/repos/MarcoFalke/bitcoin-core/forks",
         "full_name" : "MarcoFalke/bitcoin-core",
         "git_commits_url" : "https://api.github.com/repos/MarcoFalke/bitcoin-core/git/commits{/sha}",
         "git_refs_url" : "https://api.github.com/repos/MarcoFalke/bitcoin-core/git/refs{/sha}",
         "git_tags_url" : "https://api.github.com/repos/MarcoFalke/bitcoin-core/git/tags{/sha}",
         "git_url" : "git://github.com/MarcoFalke/bitcoin-core.git",
         "has_downloads" : false,
         "has_issues" : true,
         "has_pages" : false,
         "has_projects" : true,
         "has_wiki" : false,
         "homepage" : "",
         "hooks_url" : "https://api.github.com/repos/MarcoFalke/bitcoin-core/hooks",
         "html_url" : "https://github.com/MarcoFalke/bitcoin-core",
         "id" : 40046254,
         "issue_comment_url" : "https://api.github.com/repos/MarcoFalke/bitcoin-core/issues/comments{/number}",
         "issue_events_url" : "https://api.github.com/repos/MarcoFalke/bitcoin-core/issues/events{/number}",
         "issues_url" : "https://api.github.com/repos/MarcoFalke/bitcoin-core/issues{/number}",
         "keys_url" : "https://api.github.com/repos/MarcoFalke/bitcoin-core/keys{/key_id}",
         "labels_url" : "https://api.github.com/repos/MarcoFalke/bitcoin-core/labels{/name}",
         "language" : "C++",
         "languages_url" : "https://api.github.com/repos/MarcoFalke/bitcoin-core/languages",
         "license" : {
            "key" : "mit",
            "name" : "MIT License",
            "node_id" : "MDc6TGljZW5zZTEz",
            "spdx_id" : "MIT",
            "url" : "https://api.github.com/licenses/mit"
         },
         "merges_url" : "https://api.github.com/repos/MarcoFalke/bitcoin-core/merges",
         "milestones_url" : "https://api.github.com/repos/MarcoFalke/bitcoin-core/milestones{/number}",
         "mirror_url" : null,
         "name" : "bitcoin-core",
         "node_id" : "MDEwOlJlcG9zaXRvcnk0MDA0NjI1NA==",
         "notifications_url" : "https://api.github.com/repos/MarcoFalke/bitcoin-core/notifications{?since,all,participating}",
         "open_issues" : 2,
         "open_issues_count" : 2,
         "owner" : {
            "avatar_url" : "https://avatars0.githubusercontent.com/u/6399679?v=4",
            "events_url" : "https://api.github.com/users/MarcoFalke/events{/privacy}",
            "followers_url" : "https://api.github.com/users/MarcoFalke/followers",
            "following_url" : "https://api.github.com/users/MarcoFalke/following{/other_user}",
            "gists_url" : "https://api.github.com/users/MarcoFalke/gists{/gist_id}",
            "gravatar_id" : "",
            "html_url" : "https://github.com/MarcoFalke",
            "id" : 6399679,
            "login" : "MarcoFalke",
            "node_id" : "MDQ6VXNlcjYzOTk2Nzk=",
            "organizations_url" : "https://api.github.com/users/MarcoFalke/orgs",
            "received_events_url" : "https://api.github.com/users/MarcoFalke/received_events",
            "repos_url" : "https://api.github.com/users/MarcoFalke/repos",
            "site_admin" : false,
            "starred_url" : "https://api.github.com/users/MarcoFalke/starred{/owner}{/repo}",
            "subscriptions_url" : "https://api.github.com/users/MarcoFalke/subscriptions",
            "type" : "User",
            "url" : "https://api.github.com/users/MarcoFalke"
         },
         "private" : false,
         "pulls_url" : "https://api.github.com/repos/MarcoFalke/bitcoin-core/pulls{/number}",
         "pushed_at" : "2019-12-19T17:53:15Z",
         "releases_url" : "https://api.github.com/repos/MarcoFalke/bitcoin-core/releases{/id}",
         "size" : 126916,
         "ssh_url" : "git@github.com:MarcoFalke/bitcoin-core.git",
         "stargazers_count" : 5,
         "stargazers_url" : "https://api.github.com/repos/MarcoFalke/bitcoin-core/stargazers",
         "statuses_url" : "https://api.github.com/repos/MarcoFalke/bitcoin-core/statuses/{sha}",
         "subscribers_url" : "https://api.github.com/repos/MarcoFalke/bitcoin-core/subscribers",
         "subscription_url" : "https://api.github.com/repos/MarcoFalke/bitcoin-core/subscription",
         "svn_url" : "https://github.com/MarcoFalke/bitcoin-core",
         "tags_url" : "https://api.github.com/repos/MarcoFalke/bitcoin-core/tags",
         "teams_url" : "https://api.github.com/repos/MarcoFalke/bitcoin-core/teams",
         "trees_url" : "https://api.github.com/repos/MarcoFalke/bitcoin-core/git/trees{/sha}",
         "updated_at" : "2019-12-19T17:53:19Z",
         "url" : "https://api.github.com/repos/MarcoFalke/bitcoin-core",
         "watchers" : 5,
         "watchers_count" : 5
      },
      "sha" : "fa4c6bf6be5e918b46896fdb353c9d18f0edc635",
      "user" : {
         "avatar_url" : "https://avatars0.githubusercontent.com/u/6399679?v=4",
         "events_url" : "https://api.github.com/users/MarcoFalke/events{/privacy}",
         "followers_url" : "https://api.github.com/users/MarcoFalke/followers",
         "following_url" : "https://api.github.com/users/MarcoFalke/following{/other_user}",
         "gists_url" : "https://api.github.com/users/MarcoFalke/gists{/gist_id}",
         "gravatar_id" : "",
         "html_url" : "https://github.com/MarcoFalke",
         "id" : 6399679,
         "login" : "MarcoFalke",
         "node_id" : "MDQ6VXNlcjYzOTk2Nzk=",
         "organizations_url" : "https://api.github.com/users/MarcoFalke/orgs",
         "received_events_url" : "https://api.github.com/users/MarcoFalke/received_events",
         "repos_url" : "https://api.github.com/users/MarcoFalke/repos",
         "site_admin" : false,
         "starred_url" : "https://api.github.com/users/MarcoFalke/starred{/owner}{/repo}",
         "subscriptions_url" : "https://api.github.com/users/MarcoFalke/subscriptions",
         "type" : "User",
         "url" : "https://api.github.com/users/MarcoFalke"
      }
   },
   "html_url" : "https://github.com/bitcoin/bitcoin/pull/17773",
   "id" : 354845597,
   "issue_url" : "https://api.github.com/repos/bitcoin/bitcoin/issues/17773",
   "labels" : [
      {
         "color" : "d4c5f9",
         "default" : false,
         "description" : null,
         "id" : 62963516,
         "name" : "Tests",
         "node_id" : "MDU6TGFiZWw2Mjk2MzUxNg==",
         "url" : "https://api.github.com/repos/bitcoin/bitcoin/labels/Tests"
      }
   ],
   "locked" : false,
   "maintainer_can_modify" : false,
   "merge_commit_sha" : "f38b2763b527cf2c352bb100a6ca9e453c1f06c8",
   "mergeable" : true,
   "mergeable_state" : "blocked",
   "merged" : false,
   "merged_at" : null,
   "merged_by" : null,
   "milestone" : null,
   "node_id" : "MDExOlB1bGxSZXF1ZXN0MzU0ODQ1NTk3",
   "number" : 17773,
   "patch_url" : "https://github.com/bitcoin/bitcoin/pull/17773.patch",
   "rebaseable" : false,
   "requested_reviewers" : [],
   "requested_teams" : [],
   "review_comment_url" : "https://api.github.com/repos/bitcoin/bitcoin/pulls/comments{/number}",
   "review_comments" : 0,
   "review_comments_url" : "https://api.github.com/repos/bitcoin/bitcoin/pulls/17773/comments",
   "state" : "closed",
   "statuses_url" : "https://api.github.com/repos/bitcoin/bitcoin/statuses/fa4c6bf6be5e918b46896fdb353c9d18f0edc635",
   "title" : "test: Properly deserialize witness transactions in wallet_basic test",
   "updated_at" : "2019-12-19T16:54:47Z",
   "url" : "https://api.github.com/repos/bitcoin/bitcoin/pulls/17773",
   "user" : {
      "avatar_url" : "https://avatars0.githubusercontent.com/u/6399679?v=4",
      "events_url" : "https://api.github.com/users/MarcoFalke/events{/privacy}",
      "followers_url" : "https://api.github.com/users/MarcoFalke/followers",
      "following_url" : "https://api.github.com/users/MarcoFalke/following{/other_user}",
      "gists_url" : "https://api.github.com/users/MarcoFalke/gists{/gist_id}",
      "gravatar_id" : "",
      "html_url" : "https://github.com/MarcoFalke",
      "id" : 6399679,
      "login" : "MarcoFalke",
      "node_id" : "MDQ6VXNlcjYzOTk2Nzk=",
      "organizations_url" : "https://api.github.com/users/MarcoFalke/orgs",
      "received_events_url" : "https://api.github.com/users/MarcoFalke/received_events",
      "repos_url" : "https://api.github.com/users/MarcoFalke/repos",
      "site_admin" : false,
      "starred_url" : "https://api.github.com/users/MarcoFalke/starred{/owner}{/repo}",
      "subscriptions_url" : "https://api.github.com/users/MarcoFalke/subscriptions",
      "type" : "User",
      "url" : "https://api.github.com/users/MarcoFalke"
   }
}
