{
   "assignee" : null,
   "assignees" : [],
   "author_association" : "MEMBER",
   "body" : "Wallet transactions have inputs, thus they are witness transactions. So properly set `iswitness` to true.\r\n\r\nThis fixes the errors of the following kind:\r\n\r\n```\r\n test  2019-12-18T14:46:14.457000Z TestFramework (ERROR): Assertion failed \r\n                                   Traceback (most recent call last):\r\n                                     File \"/bitcoin/test/functional/test_framework/test_framework.py\", line 112, in main\r\n                                       self.run_test()\r\n                                     File \"/bitcoin/test/functional/wallet_basic.py\", line 207, in run_test\r\n                                       node_0_bal = self.check_fee_amount(self.nodes[0].getbalance(), Decimal('20'), fee_per_byte, self.get_vsize(self.nodes[2].gettransaction(txid)['hex']))\r\n                                     File \"/bitcoin/test/functional/wallet_basic.py\", line 48, in check_fee_amount\r\n                                       assert_fee_amount(fee, tx_size, fee_per_byte * 1000)\r\n                                     File \"/bitcoin/test/functional/test_framework/util.py\", line 39, in assert_fee_amount\r\n                                       raise AssertionError(\"Fee of %s BTC too low! (Should be %s BTC)\" % (str(fee), str(target_fee)))\r\n                                   AssertionError: Fee of 0.00011000 BTC too low! (Should be 0.00019100 BTC)\r\n```\r\n\r\nFull log (with color):\r\n\r\n[log.colored.txt](https://github.com/bitcoin/bitcoin/files/3980749/log.colored.txt)\r\n\r\nRelevant excerpt:\r\n\r\n```\r\n node2 2019-12-18T14:46:13.427834Z [httpworker.0] [default wallet] Fee Calculation: Fee:11000 Bytes:110 Needed:11000 Tgt:0 (requested 0) Reason:\"PayTxFee set\" Decay 0.00000: Estimation: (-1 - -1) -nan% 0.0/(0.0 0 mem 0.0 out) Fail: (-1 - -1) -nan% 0.0/(0.0 0 mem 0.0 out) \r\n node2 2019-12-18T14:46:13.427867Z [httpworker.0] [default wallet] CommitTransaction: \r\n                                   CTransaction(hash=cc2d0a7862, ver=2, vin.size=1, vout.size=1, nLockTime=205)\r\n                                       CTxIn(COutPoint(fe5a0c8830, 1), scriptSig=, nSequence=4294967294)\r\n                                       CScriptWitness(30440220072d2f1dd001dc40aadec3c3926360033cc036250d603d957556562569d59958022000ca2f88a49c29075d534c1ed89ee678b6b4e9b5e28a897f37e3b5df6d114dff01, 03a7059f3416e80411ec1e02ecbf3e665fceda21d23a4e84e1559f2ed628da95c2)\r\n                                       CTxOut(nValue=9.99989000, scriptPubKey=001475dafea69b760d8e2024cf0bcd)\r\n node2 2019-12-18T14:46:13.427954Z [httpworker.0] [default wallet] AddToWallet cc2d0a786278c12034c0d286d1876bfaf10dd19253d8efecaa6621c81baa0030  new \r\n```\r\n\r\nRaw transaction:\r\n\r\n```\r\n# ./src/bitcoin-cli -datadir=/tmp/test_runner_\\342\\202\\277_\\360\\237\\217\\203_20191218_144609/wallet_basic_126/node2/ gettransaction cc2d0a786278c12034c0d286d1876bfaf10dd19253d8efecaa6621c81baa0030\r\n{\r\n  \"amount\": -9.99989000,\r\n  \"fee\": -0.00011000,\r\n  \"confirmations\": 1,\r\n  \"blockhash\": \"16f12dd1747458d905ec81af9dc1d576e011f0e4bc426f1b4559e77dd9d922df\",\r\n  \"blockheight\": 206,\r\n  \"blockindex\": 1,\r\n  \"blocktime\": 1576680407,\r\n  \"txid\": \"cc2d0a786278c12034c0d286d1876bfaf10dd19253d8efecaa6621c81baa0030\",\r\n  \"walletconflicts\": [\r\n  ],\r\n  \"time\": 1576680373,\r\n  \"timereceived\": 1576680373,\r\n  \"bip125-replaceable\": \"no\",\r\n  \"details\": [\r\n    {\r\n      \"address\": \"bcrt1qwhd0af5mwcxcugpyeu9umng4zewfwug47fhhe7\",\r\n      \"category\": \"send\",\r\n      \"amount\": -9.99989000,\r\n      \"vout\": 0,\r\n      \"fee\": -0.00011000,\r\n      \"abandoned\": false\r\n    }\r\n  ],\r\n  \"hex\": \"02000000000101dbada06e823a7eaca640c0248aaa7c145f790299acddfc49f6fdbf30880c5afe0100000000feffffff01089f9a3b0000000016001475dafea69b760d8e2024cf0bcdcd15165c977115024730440220072d2f1dd001dc40aadec3c3926360033cc036250d603d957556562569d59958022000ca2f88a49c29075d534c1ed89ee678b6b4e9b5e28a897f37e3b5df6d114dff012103a7059f3416e80411ec1e02ecbf3e665fceda21d23a4e84e1559f2ed628da95c2cd000000\"\r\n}\r\n\r\n# ./src/bitcoin-cli -datadir=/tmp/test_runner_\\342\\202\\277_\\360\\237\\217\\203_20191218_144609/wallet_basic_126/node2/ decoderawtransaction 02000000000101dbada06e823a7eaca640c0248aaa7c145f790299acddfc49f6fdbf30880c5afe0100000000feffffff01089f9a3b0000000016001475dafea69b760d8e2024cf0bcdcd15165c977115024730440220072d2f1dd001dc40aadec3c3926360033cc036250d603d957556562569d59958022000ca2f88a49c29075d534c1ed89ee678b6b4e9b5e28a897f37e3b5df6d114dff012103a7059f3416e80411ec1e02ecbf3e665fceda21d23a4e84e1559f2ed628da95c2cd000000\r\n{\r\n  \"txid\": \"658ee42c79f167c7ad21071773ca008d71e73cd42a36d6da0b66651b6d203a00\",\r\n  \"hash\": \"658ee42c79f167c7ad21071773ca008d71e73cd42a36d6da0b66651b6d203a00\",\r\n  \"version\": 2,\r\n  \"size\": 191,\r\n  \"vsize\": 191,\r\n  \"weight\": 764,\r\n  \"locktime\": 205,\r\n  \"vin\": [\r\n  ],\r\n  \"vout\": [\r\n    {\r\n      \"value\": 90957258090.81899777,\r\n      \"n\": 0,\r\n      \"scriptPubKey\": {\r\n        \"asm\": \"OP_RIPEMD160 c0248aaa7c145f790299acddfc49f6fdbf30880c5afe0100000000feffffff01089f9a3b0000000016001475dafea69b760d8e2024cf0bcdcd15165c97711502 30440220072d2f1dd001dc40aadec3c3926360033cc036250d603d957556562569d59958022000ca2f88a49c29075d534c1ed89ee678b6b4e9b5e28a897f37e3b5df6d114dff01 03a7059f3416e80411ec1e02ecbf3e665fceda21d23a4e84e1559f2ed628da95c2\",\r\n        \"hex\": \"a640c0248aaa7c145f790299acddfc49f6fdbf30880c5afe0100000000feffffff01089f9a3b0000000016001475dafea69b760d8e2024cf0bcdcd15165c977115024730440220072d2f1dd001dc40aadec3c3926360033cc036250d603d957556562569d59958022000ca2f88a49c29075d534c1ed89ee678b6b4e9b5e28a897f37e3b5df6d114dff012103a7059f3416e80411ec1e02ecbf3e665fceda21d23a4e84e1559f2ed628da95c2\",\r\n        \"type\": \"nonstandard\"\r\n      }\r\n    }\r\n  ]\r\n}\r\n\r\n# ./src/bitcoin-cli -datadir=/tmp/test_runner_\\342\\202\\277_\\360\\237\\217\\203_20191218_144609/wallet_basic_126/node2/ decoderawtransaction 02000000000101dbada06e823a7eaca640c0248aaa7c145f790299acddfc49f6fdbf30880c5afe0100000000feffffff01089f9a3b0000000016001475dafea69b760d8e2024cf0bcdcd15165c977115024730440220072d2f1dd001dc40aadec3c3926360033cc036250d603d957556562569d59958022000ca2f88a49c29075d534c1ed89ee678b6b4e9b5e28a897f37e3b5df6d114dff012103a7059f3416e80411ec1e02ecbf3e665fceda21d23a4e84e1559f2ed628da95c2cd000000 | grep vsize\r\n  \"vsize\": 191,\r\n\r\n\r\n# ./src/bitcoin-cli -datadir=/tmp/test_runner_\\342\\202\\277_\\360\\237\\217\\203_20191218_144609/wallet_basic_126/node2/ decoderawtransaction 02000000000101dbada06e823a7eaca640c0248aaa7c145f790299acddfc49f6fdbf30880c5afe0100000000feffffff01089f9a3b0000000016001475dafea69b760d8e2024cf0bcdcd15165c977115024730440220072d2f1dd001dc40aadec3c3926360033cc036250d603d957556562569d59958022000ca2f88a49c29075d534c1ed89ee678b6b4e9b5e28a897f37e3b5df6d114dff012103a7059f3416e80411ec1e02ecbf3e665fceda21d23a4e84e1559f2ed628da95c2cd000000 true | grep vsize\r\n  \"vsize\": 110,\r\n\r\n\r\n\r\n```\r\n",
   "closed_at" : "2019-12-19T16:54:43Z",
   "closed_by" : {
      "avatar_url" : "https://avatars0.githubusercontent.com/u/6399679?v=4",
      "events_url" : "https://api.github.com/users/MarcoFalke/events{/privacy}",
      "followers_url" : "https://api.github.com/users/MarcoFalke/followers",
      "following_url" : "https://api.github.com/users/MarcoFalke/following{/other_user}",
      "gists_url" : "https://api.github.com/users/MarcoFalke/gists{/gist_id}",
      "gravatar_id" : "",
      "html_url" : "https://github.com/MarcoFalke",
      "id" : 6399679,
      "login" : "MarcoFalke",
      "node_id" : "MDQ6VXNlcjYzOTk2Nzk=",
      "organizations_url" : "https://api.github.com/users/MarcoFalke/orgs",
      "received_events_url" : "https://api.github.com/users/MarcoFalke/received_events",
      "repos_url" : "https://api.github.com/users/MarcoFalke/repos",
      "site_admin" : false,
      "starred_url" : "https://api.github.com/users/MarcoFalke/starred{/owner}{/repo}",
      "subscriptions_url" : "https://api.github.com/users/MarcoFalke/subscriptions",
      "type" : "User",
      "url" : "https://api.github.com/users/MarcoFalke"
   },
   "comments" : 2,
   "comments_url" : "https://api.github.com/repos/bitcoin/bitcoin/issues/17773/comments",
   "created_at" : "2019-12-18T22:21:36Z",
   "events_url" : "https://api.github.com/repos/bitcoin/bitcoin/issues/17773/events",
   "html_url" : "https://github.com/bitcoin/bitcoin/pull/17773",
   "id" : 539957129,
   "labels" : [
      {
         "color" : "d4c5f9",
         "default" : false,
         "description" : null,
         "id" : 62963516,
         "name" : "Tests",
         "node_id" : "MDU6TGFiZWw2Mjk2MzUxNg==",
         "url" : "https://api.github.com/repos/bitcoin/bitcoin/labels/Tests"
      }
   ],
   "labels_url" : "https://api.github.com/repos/bitcoin/bitcoin/issues/17773/labels{/name}",
   "locked" : false,
   "milestone" : null,
   "node_id" : "MDExOlB1bGxSZXF1ZXN0MzU0ODQ1NTk3",
   "number" : 17773,
   "pull_request" : {
      "diff_url" : "https://github.com/bitcoin/bitcoin/pull/17773.diff",
      "html_url" : "https://github.com/bitcoin/bitcoin/pull/17773",
      "patch_url" : "https://github.com/bitcoin/bitcoin/pull/17773.patch",
      "url" : "https://api.github.com/repos/bitcoin/bitcoin/pulls/17773"
   },
   "repository_url" : "https://api.github.com/repos/bitcoin/bitcoin",
   "state" : "closed",
   "title" : "test: Properly deserialize witness transactions in wallet_basic test",
   "updated_at" : "2019-12-19T16:54:47Z",
   "url" : "https://api.github.com/repos/bitcoin/bitcoin/issues/17773",
   "user" : {
      "avatar_url" : "https://avatars0.githubusercontent.com/u/6399679?v=4",
      "events_url" : "https://api.github.com/users/MarcoFalke/events{/privacy}",
      "followers_url" : "https://api.github.com/users/MarcoFalke/followers",
      "following_url" : "https://api.github.com/users/MarcoFalke/following{/other_user}",
      "gists_url" : "https://api.github.com/users/MarcoFalke/gists{/gist_id}",
      "gravatar_id" : "",
      "html_url" : "https://github.com/MarcoFalke",
      "id" : 6399679,
      "login" : "MarcoFalke",
      "node_id" : "MDQ6VXNlcjYzOTk2Nzk=",
      "organizations_url" : "https://api.github.com/users/MarcoFalke/orgs",
      "received_events_url" : "https://api.github.com/users/MarcoFalke/received_events",
      "repos_url" : "https://api.github.com/users/MarcoFalke/repos",
      "site_admin" : false,
      "starred_url" : "https://api.github.com/users/MarcoFalke/starred{/owner}{/repo}",
      "subscriptions_url" : "https://api.github.com/users/MarcoFalke/subscriptions",
      "type" : "User",
      "url" : "https://api.github.com/users/MarcoFalke"
   }
}
