{
   "active_lock_reason" : null,
   "assignee" : null,
   "assignees" : [],
   "author_association" : "CONTRIBUTOR",
   "body" : "there two transaction, because  bitcoin malleability attack ,the transaction 3bb876013ffdac65ada2b89b042212a5f12750aeb97d1019950c83354985402c be confirmed.so the other transaction  cdec67e52e7f7c73256bcd4dc07d8b7d4d1d8326faea396d189fb81612eed7ba  will be invalid,and not in mempool. but when i run below the invalid transaction cdec67e52e7f7c73256bcd4dc07d8b7d4d1d8326faea396d189fb81612eed7ba  still in mempool.\nsee below:\n<pre><code>[root@centos]# bitcoin-cli getrawtransaction 3bb876013ffdac65ada2b89b042212a5f12750aeb97d1019950c83354985402c 1\n{\n    \"hex\" : \"0100000001a1240e62b297f2152826ebe23fc73ad5f022b86acd53a9ff3ce9a152ff41ef82010000006b483045022031745451764c82722921f74603c956e0b679085f62b0ea64ba7f8799ffd440b2022100fd4c4d98a7706abdbeef8796480dc0e56dd2d767e16db2c7d8f23ba04efa28060121022c495c8dfd8be23a268843865b3220dfd08310c55079ab0de59a8fb7a28a8872feffffff02aba27a12000000001976a9145cbfc7b26c28233adc77c4fa7aea27a7ea648d9088accd162029000000001976a914df3b8fdc90efa2c6ca508d5e5ef2b55039cd1c4388ace0c40500\",\n    \"txid\" : \"3bb876013ffdac65ada2b89b042212a5f12750aeb97d1019950c83354985402c\",\n    \"version\" : 1,\n    \"locktime\" : 378080,\n    \"vin\" : [\n        {\n            \"txid\" : \"82ef41ff52a1e93cffa953cd6ab822f0d53ac73fe2eb262815f297b2620e24a1\",\n            \"vout\" : 1,\n            \"scriptSig\" : {\n                \"asm\" : \"3045022031745451764c82722921f74603c956e0b679085f62b0ea64ba7f8799ffd440b2022100fd4c4d98a7706abdbeef8796480dc0e56dd2d767e16db2c7d8f23ba04efa280601 022c495c8dfd8be23a268843865b3220dfd08310c55079ab0de59a8fb7a28a8872\",\n                \"hex\" : \"483045022031745451764c82722921f74603c956e0b679085f62b0ea64ba7f8799ffd440b2022100fd4c4d98a7706abdbeef8796480dc0e56dd2d767e16db2c7d8f23ba04efa28060121022c495c8dfd8be23a268843865b3220dfd08310c55079ab0de59a8fb7a28a8872\"\n            },\n            \"sequence\" : 4294967294\n        }\n    ],\n    \"vout\" : [\n        {\n            \"value\" : 3.10026923,\n            \"n\" : 0,\n            \"scriptPubKey\" : {\n                \"asm\" : \"OP_DUP OP_HASH160 5cbfc7b26c28233adc77c4fa7aea27a7ea648d90 OP_EQUALVERIFY OP_CHECKSIG\",\n                \"hex\" : \"76a9145cbfc7b26c28233adc77c4fa7aea27a7ea648d9088ac\",\n                \"reqSigs\" : 1,\n                \"type\" : \"pubkeyhash\",\n                \"addresses\" : [\n                    \"19TQum92fZfCNrTHWoazwd3UHXEf8htqow\"\n                ]\n            }\n        },\n        {\n            \"value\" : 6.89968845,\n            \"n\" : 1,\n            \"scriptPubKey\" : {\n                \"asm\" : \"OP_DUP OP_HASH160 df3b8fdc90efa2c6ca508d5e5ef2b55039cd1c43 OP_EQUALVERIFY OP_CHECKSIG\",\n                \"hex\" : \"76a914df3b8fdc90efa2c6ca508d5e5ef2b55039cd1c4388ac\",\n                \"reqSigs\" : 1,\n                \"type\" : \"pubkeyhash\",\n                \"addresses\" : [\n                    \"1MMM3DWWcDU6ZAw74huLi8daoztr6M4gd7\"\n                ]\n            }\n        }\n    ],\n    \"blockhash\" : \"00000000000000000d1ce717c49be25b22be331913e3f2d1337788036f2e3c49\",\n    \"confirmations\" : 30,\n    \"time\" : 1444369147,\n    \"blocktime\" : 1444369147\n}\n[root@centos ]# bitcoin-cli getrawtransaction cdec67e52e7f7c73256bcd4dc07d8b7d4d1d8326faea396d189fb81612eed7ba 1\n{\n    \"hex\" : \"0100000001a1240e62b297f2152826ebe23fc73ad5f022b86acd53a9ff3ce9a152ff41ef82010000006a473044022031745451764c82722921f74603c956e0b679085f62b0ea64ba7f8799ffd440b2022002b3b267588f954241107869b7f23f194cdc057ecddaed73e6e022ec813c193b0121022c495c8dfd8be23a268843865b3220dfd08310c55079ab0de59a8fb7a28a8872feffffff02aba27a12000000001976a9145cbfc7b26c28233adc77c4fa7aea27a7ea648d9088accd162029000000001976a914df3b8fdc90efa2c6ca508d5e5ef2b55039cd1c4388ace0c40500\",\n    \"txid\" : \"cdec67e52e7f7c73256bcd4dc07d8b7d4d1d8326faea396d189fb81612eed7ba\",\n    \"version\" : 1,\n    \"locktime\" : 378080,\n    \"vin\" : [\n        {\n            \"txid\" : \"82ef41ff52a1e93cffa953cd6ab822f0d53ac73fe2eb262815f297b2620e24a1\",\n            \"vout\" : 1,\n            \"scriptSig\" : {\n                \"asm\" : \"3044022031745451764c82722921f74603c956e0b679085f62b0ea64ba7f8799ffd440b2022002b3b267588f954241107869b7f23f194cdc057ecddaed73e6e022ec813c193b01 022c495c8dfd8be23a268843865b3220dfd08310c55079ab0de59a8fb7a28a8872\",\n                \"hex\" : \"473044022031745451764c82722921f74603c956e0b679085f62b0ea64ba7f8799ffd440b2022002b3b267588f954241107869b7f23f194cdc057ecddaed73e6e022ec813c193b0121022c495c8dfd8be23a268843865b3220dfd08310c55079ab0de59a8fb7a28a8872\"\n            },\n            \"sequence\" : 4294967294\n        }\n    ],\n    \"vout\" : [\n        {\n            \"value\" : 3.10026923,\n            \"n\" : 0,\n            \"scriptPubKey\" : {\n                \"asm\" : \"OP_DUP OP_HASH160 5cbfc7b26c28233adc77c4fa7aea27a7ea648d90 OP_EQUALVERIFY OP_CHECKSIG\",\n                \"hex\" : \"76a9145cbfc7b26c28233adc77c4fa7aea27a7ea648d9088ac\",\n                \"reqSigs\" : 1,\n                \"type\" : \"pubkeyhash\",\n                \"addresses\" : [\n                    \"19TQum92fZfCNrTHWoazwd3UHXEf8htqow\"\n                ]\n            }\n        },\n        {\n            \"value\" : 6.89968845,\n            \"n\" : 1,\n            \"scriptPubKey\" : {\n                \"asm\" : \"OP_DUP OP_HASH160 df3b8fdc90efa2c6ca508d5e5ef2b55039cd1c43 OP_EQUALVERIFY OP_CHECKSIG\",\n                \"hex\" : \"76a914df3b8fdc90efa2c6ca508d5e5ef2b55039cd1c4388ac\",\n                \"reqSigs\" : 1,\n                \"type\" : \"pubkeyhash\",\n                \"addresses\" : [\n                    \"1MMM3DWWcDU6ZAw74huLi8daoztr6M4gd7\"\n                ]\n            }\n        }\n    ],\n    \"blockhash\" : \"0000000000000000030ad9ac88e664eff0a6de343a086dea5bba708e052227aa\",\n    \"confirmations\" : 0\n}\n[root@centos ]# bitcoin-cli getinfo\n{\n    \"version\" : 100200,\n    \"protocolversion\" : 70002,\n    \"walletversion\" : 60000,\n    \"balance\" : 0.00000000,\n    \"blocks\" : 378121,\n    \"timeoffset\" : 523,\n    \"connections\" : 49,\n    \"proxy\" : \"\",\n    \"difficulty\" : 60813224039.44034576,\n    \"testnet\" : false,\n    \"keypoololdest\" : 1426660142,\n    \"keypoolsize\" : 101,\n    \"paytxfee\" : 0.00000000,\n    \"relayfee\" : 0.00001000,\n    \"errors\" : \"\"\n}\n\n</pre></code>\n\nit's a bug !\n",
   "closed_at" : "2023-04-14T20:08:04Z",
   "closed_by" : {
      "avatar_url" : "https://avatars.githubusercontent.com/u/2084648?v=4",
      "events_url" : "https://api.github.com/users/pinheadmz/events{/privacy}",
      "followers_url" : "https://api.github.com/users/pinheadmz/followers",
      "following_url" : "https://api.github.com/users/pinheadmz/following{/other_user}",
      "gists_url" : "https://api.github.com/users/pinheadmz/gists{/gist_id}",
      "gravatar_id" : "",
      "html_url" : "https://github.com/pinheadmz",
      "id" : 2084648,
      "login" : "pinheadmz",
      "node_id" : "MDQ6VXNlcjIwODQ2NDg=",
      "organizations_url" : "https://api.github.com/users/pinheadmz/orgs",
      "received_events_url" : "https://api.github.com/users/pinheadmz/received_events",
      "repos_url" : "https://api.github.com/users/pinheadmz/repos",
      "site_admin" : false,
      "starred_url" : "https://api.github.com/users/pinheadmz/starred{/owner}{/repo}",
      "subscriptions_url" : "https://api.github.com/users/pinheadmz/subscriptions",
      "type" : "User",
      "url" : "https://api.github.com/users/pinheadmz"
   },
   "comments" : 5,
   "comments_url" : "https://api.github.com/repos/bitcoin/bitcoin/issues/6787/comments",
   "created_at" : "2015-10-09T09:14:35Z",
   "events_url" : "https://api.github.com/repos/bitcoin/bitcoin/issues/6787/events",
   "html_url" : "https://github.com/bitcoin/bitcoin/issues/6787",
   "id" : 110618881,
   "labels" : [
      {
         "color" : "fbca04",
         "default" : false,
         "description" : null,
         "id" : 97470796,
         "name" : "UTXO Db and Indexes",
         "node_id" : "MDU6TGFiZWw5NzQ3MDc5Ng==",
         "url" : "https://api.github.com/repos/bitcoin/bitcoin/labels/UTXO%20Db%20and%20Indexes"
      }
   ],
   "labels_url" : "https://api.github.com/repos/bitcoin/bitcoin/issues/6787/labels{/name}",
   "locked" : false,
   "milestone" : null,
   "node_id" : "MDU6SXNzdWUxMTA2MTg4ODE=",
   "number" : 6787,
   "performed_via_github_app" : null,
   "reactions" : {
      "+1" : 0,
      "-1" : 0,
      "confused" : 0,
      "eyes" : 0,
      "heart" : 0,
      "hooray" : 0,
      "laugh" : 0,
      "rocket" : 0,
      "total_count" : 0,
      "url" : "https://api.github.com/repos/bitcoin/bitcoin/issues/6787/reactions"
   },
   "repository_url" : "https://api.github.com/repos/bitcoin/bitcoin",
   "state" : "closed",
   "state_reason" : "completed",
   "timeline_url" : "https://api.github.com/repos/bitcoin/bitcoin/issues/6787/timeline",
   "title" : "Transactions in stale blocks still show in txindex",
   "updated_at" : "2023-04-14T20:08:05Z",
   "url" : "https://api.github.com/repos/bitcoin/bitcoin/issues/6787",
   "user" : {
      "avatar_url" : "https://avatars.githubusercontent.com/u/6994201?v=4",
      "events_url" : "https://api.github.com/users/maiiz/events{/privacy}",
      "followers_url" : "https://api.github.com/users/maiiz/followers",
      "following_url" : "https://api.github.com/users/maiiz/following{/other_user}",
      "gists_url" : "https://api.github.com/users/maiiz/gists{/gist_id}",
      "gravatar_id" : "",
      "html_url" : "https://github.com/maiiz",
      "id" : 6994201,
      "login" : "maiiz",
      "node_id" : "MDQ6VXNlcjY5OTQyMDE=",
      "organizations_url" : "https://api.github.com/users/maiiz/orgs",
      "received_events_url" : "https://api.github.com/users/maiiz/received_events",
      "repos_url" : "https://api.github.com/users/maiiz/repos",
      "site_admin" : false,
      "starred_url" : "https://api.github.com/users/maiiz/starred{/owner}{/repo}",
      "subscriptions_url" : "https://api.github.com/users/maiiz/subscriptions",
      "type" : "User",
      "url" : "https://api.github.com/users/maiiz"
   }
}
