{
   "assignee" : null,
   "body" : "If there are any script verification errors, when using `signrawtransaction`, they are shown in the RPC result.\r\n\r\nExample:\r\n```bash\r\n./bitcoin-cli \"signrawtransaction\" \"0100000002d8fde545ff10eec10a6bef0c293c892b556aaa8c9e2f5f4c8545ca5c88e41c930100000000ffffffff62a717b7379c9fd900bf8cd42d6cbe1992f51aac2edff637dd291ec0b710acf23800000000ffffffff01a0410000000000001976a9142d0242ee11731e1fb95f3917b61a11aa400f6d5388ac00000000\" \"[{\\\"txid\\\":\\\"931ce4885cca45854c5f2f9e8caa6a552b893c290cef6b0ac1ee10ff45e5fdd8\\\",\\\"vout\\\":1,\\\"scriptPubKey\\\":\\\"512102a6bce06d76dfa05974f50e71660936966be40fceee99fed481a526016b3b240e21160000000100000001d865ecba07d000000000000000000000000000000000000052ae\\\"},{\\\"txid\\\":\\\"f2ac10b7c01e29dd37f6df2eac1af59219be6c2dd48cbf00d99f9c37b717a762\\\",\\\"vout\\\":56,\\\"scriptPubKey\\\":\\\"01\\\"}]\" \"[\\\"xxxxxx\\\"]\"\r\n```\r\n```json\r\n{\r\n  \"hex\" : \"0100000002d8fde545ff10eec10a6bef0c293c892b556aaa8c9e2f5f4c8545ca5c88e41c93010000004a00483045022100f5e5d54c229c241c8525a9e01c9774d0cf974f2262a7045636c2308dbae43af90220151439bb3913379327fcf10ee51b779f9b349c58870962a605276419122a2fb601ffffffff62a717b7379c9fd900bf8cd42d6cbe1992f51aac2edff637dd291ec0b710acf23800000000ffffffff01a0410000000000001976a9142d0242ee11731e1fb95f3917b61a11aa400f6d5388ac00000000\",\r\n  \"complete\" : false,\r\n  \"errors\" : [\r\n    {\r\n      \"txid\" : \"931ce4885cca45854c5f2f9e8caa6a552b893c290cef6b0ac1ee10ff45e5fdd8\",\r\n      \"vout\" : 1,\r\n      \"scriptSig\" : \"00483045022100f5e5d54c229c241c8525a9e01c9774d0cf974f2262a7045636c2308dbae43af90220151439bb3913379327fcf10ee51b779f9b349c58870962a605276419122a2fb601\",\r\n      \"sequence\" : 4294967295,\r\n      \"error\" : \"Public key is neither compressed or uncompressed\"\r\n    },\r\n    {\r\n      \"txid\" : \"f2ac10b7c01e29dd37f6df2eac1af59219be6c2dd48cbf00d99f9c37b717a762\",\r\n      \"vout\" : 56,\r\n      \"scriptSig\" : \"\",\r\n      \"sequence\" : 4294967295,\r\n      \"error\" : \"Opcode missing or not understood\"\r\n    }\r\n  ]\r\n}\r\n```\r\n\r\nThe field `errors` is currently omitted, if no script verification error occured, but alternatively an empty array could be returned, which might be easier to process, but right now it basically mirrors the behavior of `getrawtransaction` and others, where some fields are only returned, if available.\r\n\r\nThis could be perceived as inconsistent, as `signrawtransaction` also returns actual RPC errors, and not all error descriptions might be intuitive, for example, when partially signing a script-hash transaction, which then results in the message `\"Operation not valid with the current stack size\"`, but addressing this seemed out of scope of this PR.",
   "closed_at" : "2015-05-05T17:04:57Z",
   "closed_by" : {
      "avatar_url" : "https://avatars.githubusercontent.com/u/126646?v=3",
      "events_url" : "https://api.github.com/users/laanwj/events{/privacy}",
      "followers_url" : "https://api.github.com/users/laanwj/followers",
      "following_url" : "https://api.github.com/users/laanwj/following{/other_user}",
      "gists_url" : "https://api.github.com/users/laanwj/gists{/gist_id}",
      "gravatar_id" : "",
      "html_url" : "https://github.com/laanwj",
      "id" : 126646,
      "login" : "laanwj",
      "organizations_url" : "https://api.github.com/users/laanwj/orgs",
      "received_events_url" : "https://api.github.com/users/laanwj/received_events",
      "repos_url" : "https://api.github.com/users/laanwj/repos",
      "site_admin" : false,
      "starred_url" : "https://api.github.com/users/laanwj/starred{/owner}{/repo}",
      "subscriptions_url" : "https://api.github.com/users/laanwj/subscriptions",
      "type" : "User",
      "url" : "https://api.github.com/users/laanwj"
   },
   "comments" : 9,
   "comments_url" : "https://api.github.com/repos/bitcoin/bitcoin/issues/5937/comments",
   "created_at" : "2015-03-22T19:21:18Z",
   "events_url" : "https://api.github.com/repos/bitcoin/bitcoin/issues/5937/events",
   "html_url" : "https://github.com/bitcoin/bitcoin/pull/5937",
   "id" : 63565799,
   "labels" : [
      {
         "color" : "0052cc",
         "name" : "RPC/REST/ZMQ",
         "url" : "https://api.github.com/repos/bitcoin/bitcoin/labels/RPC/REST/ZMQ"
      }
   ],
   "labels_url" : "https://api.github.com/repos/bitcoin/bitcoin/issues/5937/labels{/name}",
   "locked" : false,
   "milestone" : null,
   "number" : 5937,
   "pull_request" : {
      "diff_url" : "https://github.com/bitcoin/bitcoin/pull/5937.diff",
      "html_url" : "https://github.com/bitcoin/bitcoin/pull/5937",
      "patch_url" : "https://github.com/bitcoin/bitcoin/pull/5937.patch",
      "url" : "https://api.github.com/repos/bitcoin/bitcoin/pulls/5937"
   },
   "repository_url" : "https://api.github.com/repos/bitcoin/bitcoin",
   "state" : "closed",
   "title" : "[RPC] show script verification errors in signrawtransaction result",
   "updated_at" : "2015-05-05T17:04:57Z",
   "url" : "https://api.github.com/repos/bitcoin/bitcoin/issues/5937",
   "user" : {
      "avatar_url" : "https://avatars.githubusercontent.com/u/5836089?v=3",
      "events_url" : "https://api.github.com/users/dexX7/events{/privacy}",
      "followers_url" : "https://api.github.com/users/dexX7/followers",
      "following_url" : "https://api.github.com/users/dexX7/following{/other_user}",
      "gists_url" : "https://api.github.com/users/dexX7/gists{/gist_id}",
      "gravatar_id" : "",
      "html_url" : "https://github.com/dexX7",
      "id" : 5836089,
      "login" : "dexX7",
      "organizations_url" : "https://api.github.com/users/dexX7/orgs",
      "received_events_url" : "https://api.github.com/users/dexX7/received_events",
      "repos_url" : "https://api.github.com/users/dexX7/repos",
      "site_admin" : false,
      "starred_url" : "https://api.github.com/users/dexX7/starred{/owner}{/repo}",
      "subscriptions_url" : "https://api.github.com/users/dexX7/subscriptions",
      "type" : "User",
      "url" : "https://api.github.com/users/dexX7"
   }
}
