[
   {
      "author_association" : "NONE",
      "body" : "Last version of bitcoin core does not work neither,\r\nthere are steps to reproduce with current release\r\n(Bitcoin Core RPC client version v0.16.99.0-e76acf3):\r\n\r\n```\r\ngit clone ...\r\nrebuild ...\r\nrm -rf ~/.bitcoin/testnet3 # remove database \r\nbitcoind -txindex -testnet # reload blockchain \r\n\r\n```\r\n \r\n```\r\ngenosse@local:~$ /usr/local/bin/bitcoin-cli getrawtransaction f0a1d41cb2d1cea36b334c77f90f1a88b0f01332fffefaac3be9bb77f5b5f5b6\r\n02000000000101c79161617adc1cad419254fd0194193dd6786a7faf1f65df9b3a369e8e600a3c0000000000ffffffff017b134c000000000016001443aac20a116e09ea4f7914be1c55e4c17aa600b70248304502210087116858148c7f4e33c05881103444ae5d67b1b5fd922ca18c00127c9683c4a502206ede2a47953942365a01fb772d2644dcfa59968fcece1caa305d8235557b0456012103335134d7414e1d1a154600b124a96f5ef2c6ca21434d2622469a96bd5262fd5600000000\r\ngenosse@local:~$ /usr/local/bin/bitcoin-cli decoderawtransaction 02000000000101c79161617adc1cad419254fd0194193dd6786a7faf1f65df9b3a369e8e600a3c0000000000ffffffff017b134c000000000016001443aac20a116e09ea4f7914be1c55e4c17aa600b70248304502210087116858148c7f4e33c05881103444ae5d67b1b5fd922ca18c00127c9683c4a502206ede2a47953942365a01fb772d2644dcfa59968fcece1caa305d8235557b0456012103335134d7414e1d1a154600b124a96f5ef2c6ca21434d2622469a96bd5262fd5600000000\r\n{\r\n  \"txid\": \"22519827b1dc985ed4d0115e58c3f327a60e44015c8499ff3c5bc7fe5a8ce3f0\",\r\n  \"hash\": \"22519827b1dc985ed4d0115e58c3f327a60e44015c8499ff3c5bc7fe5a8ce3f0\",\r\n  \"version\": 2,\r\n  \"size\": 192,\r\n  \"vsize\": 192,\r\n  \"locktime\": 0,\r\n  \"vin\": [\r\n  ],\r\n  \"vout\": [\r\n    {\r\n      \"value\": 20796716866.05686529,\r\n      \"n\": 0,\r\n      \"scriptPubKey\": {\r\n        \"asm\": \"9254fd0194193dd6786a7faf1f65df9b3a369e8e600a3c0000000000ffffffff017b134c000000000016001443aac20a116e09ea4f7914be1c55e4c17aa600b702 304502210087116858148c7f4e33c05881103444ae5d67b1b5fd922ca18c00127c9683c4a502206ede2a47953942365a01fb772d2644dcfa59968fcece1caa305d8235557b045601 03335134d7414e1d1a154600b124a96f5ef2c6ca21434d2622469a96bd5262fd56\",\r\n        \"hex\": \"419254fd0194193dd6786a7faf1f65df9b3a369e8e600a3c0000000000ffffffff017b134c000000000016001443aac20a116e09ea4f7914be1c55e4c17aa600b70248304502210087116858148c7f4e33c05881103444ae5d67b1b5fd922ca18c00127c9683c4a502206ede2a47953942365a01fb772d2644dcfa59968fcece1caa305d8235557b0456012103335134d7414e1d1a154600b124a96f5ef2c6ca21434d2622469a96bd5262fd56\",\r\n        \"type\": \"nonstandard\"\r\n      }\r\n    }\r\n  ]\r\n}\r\n\r\n\r\n\r\n\r\n```",
      "created_at" : "2018-04-15T17:57:09Z",
      "html_url" : "https://github.com/bitcoin/bitcoin/issues/12989#issuecomment-381425155",
      "id" : 381425155,
      "issue_url" : "https://api.github.com/repos/bitcoin/bitcoin/issues/12989",
      "updated_at" : "2018-04-15T17:57:09Z",
      "url" : "https://api.github.com/repos/bitcoin/bitcoin/issues/comments/381425155",
      "user" : {
         "avatar_url" : "https://avatars2.githubusercontent.com/u/1252487?v=4",
         "events_url" : "https://api.github.com/users/genosse/events{/privacy}",
         "followers_url" : "https://api.github.com/users/genosse/followers",
         "following_url" : "https://api.github.com/users/genosse/following{/other_user}",
         "gists_url" : "https://api.github.com/users/genosse/gists{/gist_id}",
         "gravatar_id" : "",
         "html_url" : "https://github.com/genosse",
         "id" : 1252487,
         "login" : "genosse",
         "organizations_url" : "https://api.github.com/users/genosse/orgs",
         "received_events_url" : "https://api.github.com/users/genosse/received_events",
         "repos_url" : "https://api.github.com/users/genosse/repos",
         "site_admin" : false,
         "starred_url" : "https://api.github.com/users/genosse/starred{/owner}{/repo}",
         "subscriptions_url" : "https://api.github.com/users/genosse/subscriptions",
         "type" : "User",
         "url" : "https://api.github.com/users/genosse"
      }
   },
   {
      "author_association" : "MEMBER",
      "body" : "This is a transaction that includes witness data. Does it help if you explicitly specify `iswitness=true`?\r\n\r\n```\r\ndecoderawtransaction 02000000000101c79161617adc1cad419254fd0194193dd6786a7faf1f65df9b3a369e8e600a3c0000000000ffffffff017b134c000000000016001443aac20a116e09ea4f7914be1c55e4c17aa600b70248304502210087116858148c7f4e33c05881103444ae5d67b1b5fd922ca18c00127c9683c4a502206ede2a47953942365a01fb772d2644dcfa59968fcece1caa305d8235557b0456012103335134d7414e1d1a154600b124a96f5ef2c6ca21434d2622469a96bd5262fd5600000000 true",
      "created_at" : "2018-04-15T18:19:59Z",
      "html_url" : "https://github.com/bitcoin/bitcoin/issues/12989#issuecomment-381426739",
      "id" : 381426739,
      "issue_url" : "https://api.github.com/repos/bitcoin/bitcoin/issues/12989",
      "updated_at" : "2018-04-15T18:19:59Z",
      "url" : "https://api.github.com/repos/bitcoin/bitcoin/issues/comments/381426739",
      "user" : {
         "avatar_url" : "https://avatars0.githubusercontent.com/u/6399679?v=4",
         "events_url" : "https://api.github.com/users/MarcoFalke/events{/privacy}",
         "followers_url" : "https://api.github.com/users/MarcoFalke/followers",
         "following_url" : "https://api.github.com/users/MarcoFalke/following{/other_user}",
         "gists_url" : "https://api.github.com/users/MarcoFalke/gists{/gist_id}",
         "gravatar_id" : "",
         "html_url" : "https://github.com/MarcoFalke",
         "id" : 6399679,
         "login" : "MarcoFalke",
         "organizations_url" : "https://api.github.com/users/MarcoFalke/orgs",
         "received_events_url" : "https://api.github.com/users/MarcoFalke/received_events",
         "repos_url" : "https://api.github.com/users/MarcoFalke/repos",
         "site_admin" : false,
         "starred_url" : "https://api.github.com/users/MarcoFalke/starred{/owner}{/repo}",
         "subscriptions_url" : "https://api.github.com/users/MarcoFalke/subscriptions",
         "type" : "User",
         "url" : "https://api.github.com/users/MarcoFalke"
      }
   },
   {
      "author_association" : "OWNER",
      "body" : "There are a few strange things about this:\r\n* The `txid` and `hash` both list the transaction's (correct) wtxid. For `hash` this is correct behaviour; for `txid` it isn't.\r\n* The decoded output does not include the inputs (which sounds like it fails to detect it as a witness tx).\r\n",
      "created_at" : "2018-04-15T18:23:52Z",
      "html_url" : "https://github.com/bitcoin/bitcoin/issues/12989#issuecomment-381427038",
      "id" : 381427038,
      "issue_url" : "https://api.github.com/repos/bitcoin/bitcoin/issues/12989",
      "updated_at" : "2018-04-15T18:23:52Z",
      "url" : "https://api.github.com/repos/bitcoin/bitcoin/issues/comments/381427038",
      "user" : {
         "avatar_url" : "https://avatars1.githubusercontent.com/u/548488?v=4",
         "events_url" : "https://api.github.com/users/sipa/events{/privacy}",
         "followers_url" : "https://api.github.com/users/sipa/followers",
         "following_url" : "https://api.github.com/users/sipa/following{/other_user}",
         "gists_url" : "https://api.github.com/users/sipa/gists{/gist_id}",
         "gravatar_id" : "",
         "html_url" : "https://github.com/sipa",
         "id" : 548488,
         "login" : "sipa",
         "organizations_url" : "https://api.github.com/users/sipa/orgs",
         "received_events_url" : "https://api.github.com/users/sipa/received_events",
         "repos_url" : "https://api.github.com/users/sipa/repos",
         "site_admin" : false,
         "starred_url" : "https://api.github.com/users/sipa/starred{/owner}{/repo}",
         "subscriptions_url" : "https://api.github.com/users/sipa/subscriptions",
         "type" : "User",
         "url" : "https://api.github.com/users/sipa"
      }
   },
   {
      "author_association" : "CONTRIBUTOR",
      "body" : "The transaction has correct encoding in both witness and non-witness forms because the prev-txid makes it all align\r\n```\r\n              size of\r\n              first \"item\"\r\n              pushed\r\n                VV\r\nC79161617ADC1CAD419254FD0194193DD6786A7FAF1F65DF9B3A369E8E600A3C\r\n              ^^\r\n            size of\r\n            perceived\r\n            scriptpubkey\r\n```\r\nThe remainder is exactly the nlocktime field",
      "created_at" : "2018-04-15T21:02:32Z",
      "html_url" : "https://github.com/bitcoin/bitcoin/issues/12989#issuecomment-381437755",
      "id" : 381437755,
      "issue_url" : "https://api.github.com/repos/bitcoin/bitcoin/issues/12989",
      "updated_at" : "2018-04-15T21:02:32Z",
      "url" : "https://api.github.com/repos/bitcoin/bitcoin/issues/comments/381437755",
      "user" : {
         "avatar_url" : "https://avatars0.githubusercontent.com/u/5624963?v=4",
         "events_url" : "https://api.github.com/users/fivepiece/events{/privacy}",
         "followers_url" : "https://api.github.com/users/fivepiece/followers",
         "following_url" : "https://api.github.com/users/fivepiece/following{/other_user}",
         "gists_url" : "https://api.github.com/users/fivepiece/gists{/gist_id}",
         "gravatar_id" : "",
         "html_url" : "https://github.com/fivepiece",
         "id" : 5624963,
         "login" : "fivepiece",
         "organizations_url" : "https://api.github.com/users/fivepiece/orgs",
         "received_events_url" : "https://api.github.com/users/fivepiece/received_events",
         "repos_url" : "https://api.github.com/users/fivepiece/repos",
         "site_admin" : false,
         "starred_url" : "https://api.github.com/users/fivepiece/starred{/owner}{/repo}",
         "subscriptions_url" : "https://api.github.com/users/fivepiece/subscriptions",
         "type" : "User",
         "url" : "https://api.github.com/users/fivepiece"
      }
   }
]
