{
   "assignee" : null,
   "assignees" : [],
   "author_association" : "NONE",
   "body" : "<!-- Describe the issue -->\r\nI have a problem with decoding transaction on testnet.\r\nI call method getrawtransaction for txhash f0a1d41cb2d1cea36b334c77f90f1a88b0f01332fffefaac3be9bb77f5b5f5b6\r\n\r\nBut then I call the decoderawtransaction it returns another txid in decoded transaction data: 22519827b1dc985ed4d0115e58c3f327a60e44015c8499ff3c5bc7fe5a8ce3f0\r\n\r\n<!--- What behavior did you expect? -->\r\nI expect that txid in both cases should be the same\r\n\r\n<!--- How reliably can you reproduce the issue, what are the steps to do so? -->\r\nIt occurs everytime, on two different machines\r\n\r\n<!-- What version of Bitcoin Core are you using, where did you get it (website, self-compiled, etc)? -->\r\nBitcoin Core RPC client version v0.16.0.0-g4b4d7eb255\r\n\r\n<!-- What type of machine are you observing the error on (OS/CPU and disk type)? -->\r\nUbuntu linux 16.04, i7-2600 CPU\r\n\r\n<!-- Any extra information that might be useful in the debugging process. -->\r\n<!--- This is normally the contents of a `debug.log` or `config.log` file. Raw text or a link to a pastebin type site are preferred. -->\r\n\r\n```\r\ngenosse@local:~$ bitcoin-cli -testnet getrawtransaction f0a1d41cb2d1cea36b334c77f90f1a88b0f01332fffefaac3be9bb77f5b5f5b6\r\n02000000000101c79161617adc1cad419254fd0194193dd6786a7faf1f65df9b3a369e8e600a3c0000000000ffffffff017b134c000000000016001443aac20a116e09ea4f7914be1c55e4c17aa600b70248304502210087116858148c7f4e33c05881103444ae5d67b1b5fd922ca18c00127c9683c4a502206ede2a47953942365a01fb772d2644dcfa59968fcece1caa305d8235557b0456012103335134d7414e1d1a154600b124a96f5ef2c6ca21434d2622469a96bd5262fd5600000000\r\ngenosse@local:~$ bitcoin-cli -testnet decoderawtransaction 02000000000101c79161617adc1cad419254fd0194193dd6786a7faf1f65df9b3a369e8e600a3c0000000000ffffffff017b134c000000000016001443aac20a116e09ea4f7914be1c55e4c17aa600b70248304502210087116858148c7f4e33c05881103444ae5d67b1b5fd922ca18c00127c9683c4a502206ede2a47953942365a01fb772d2644dcfa59968fcece1caa305d8235557b0456012103335134d7414e1d1a154600b124a96f5ef2c6ca21434d2622469a96bd5262fd5600000000\r\n{\r\n  \"txid\": \"22519827b1dc985ed4d0115e58c3f327a60e44015c8499ff3c5bc7fe5a8ce3f0\",\r\n  \"hash\": \"22519827b1dc985ed4d0115e58c3f327a60e44015c8499ff3c5bc7fe5a8ce3f0\",\r\n  \"version\": 2,\r\n  \"size\": 192,\r\n  \"vsize\": 192,\r\n  \"locktime\": 0,\r\n  \"vin\": [\r\n  ],\r\n  \"vout\": [\r\n    {\r\n      \"value\": 20796716866.05686529,\r\n      \"n\": 0,\r\n      \"scriptPubKey\": {\r\n        \"asm\": \"9254fd0194193dd6786a7faf1f65df9b3a369e8e600a3c0000000000ffffffff017b134c000000000016001443aac20a116e09ea4f7914be1c55e4c17aa600b702 304502210087116858148c7f4e33c05881103444ae5d67b1b5fd922ca18c00127c9683c4a502206ede2a47953942365a01fb772d2644dcfa59968fcece1caa305d8235557b045601 03335134d7414e1d1a154600b124a96f5ef2c6ca21434d2622469a96bd5262fd56\",\r\n        \"hex\": \"419254fd0194193dd6786a7faf1f65df9b3a369e8e600a3c0000000000ffffffff017b134c000000000016001443aac20a116e09ea4f7914be1c55e4c17aa600b70248304502210087116858148c7f4e33c05881103444ae5d67b1b5fd922ca18c00127c9683c4a502206ede2a47953942365a01fb772d2644dcfa59968fcece1caa305d8235557b0456012103335134d7414e1d1a154600b124a96f5ef2c6ca21434d2622469a96bd5262fd56\",\r\n        \"type\": \"nonstandard\"\r\n      }\r\n    }\r\n  ]\r\n}\r\n\r\n```\r\n\r\n```\r\ngenosse@local:~$ bitcoin-cli -testnet getrawtransaction d259c4573cffb992df4c864c8fb172fb934e83ce3fa58e5fabb16bccfc59e273\r\n02000000000101d3171d300fefb4ada940a7e6b4411391909908838db0532db8cd90b36367407a0000000000ffffffff0106ea4b000000000016001435600b44f82d414e451a4d5ed2e23e7f38a0de3502483045022100da76f404dfe7d29e8283f715509a2bbec14a4fbb13603d374f760c1da6b67705022017c15cad3e1420369e6734bbdc158f58cf07f4e4afe4f854ce9a11dfaefe6d00012102192a09100e62eefcf1b6b6ed4d6c81e3b95d29f6c2f8cb39841a8158e41d0d6600000000\r\ngenosse@local:~$ raw=02000000000101d3171d300fefb4ada940a7e6b4411391909908838db0532db8cd90b36367407a0000000000ffffffff0106ea4b000000000016001435600b44f82d414e451a4d5ed2e23e7f38a0de3502483045022100da76f404dfe7d29e8283f715509a2bbec14a4fbb13603d374f760c1da6b67705022017c15cad3e1420369e6734bbdc158f58cf07f4e4afe4f854ce9a11dfaefe6d00012102192a09100e62eefcf1b6b6ed4d6c81e3b95d29f6c2f8cb39841a8158e41d0d6600000000\r\ngenosse@local:~$ bitcoin-cli -testnet decoderawtransaction $raw\r\n{\r\n  \"txid\": \"a4d7ce0d0df329bc697a85c9f1108a4466d765a123b8a35e4ba835fd57346649\",\r\n  \"hash\": \"a4d7ce0d0df329bc697a85c9f1108a4466d765a123b8a35e4ba835fd57346649\",\r\n  \"version\": 2,\r\n  \"size\": 192,\r\n  \"vsize\": 192,\r\n  \"locktime\": 0,\r\n  \"vin\": [\r\n  ],\r\n  \"vout\": [\r\n    {\r\n      \"value\": -54090879281.27728895,\r\n      \"n\": 0,\r\n      \"scriptPubKey\": {\r\n        \"asm\": \"OP_HASH160 a7e6b4411391909908838db0532db8cd90b36367407a0000000000ffffffff0106ea4b000000000016001435600b44f82d414e451a4d5ed2e23e7f38a0de3502 3045022100da76f404dfe7d29e8283f715509a2bbec14a4fbb13603d374f760c1da6b67705022017c15cad3e1420369e6734bbdc158f58cf07f4e4afe4f854ce9a11dfaefe6d0001 02192a09100e62eefcf1b6b6ed4d6c81e3b95d29f6c2f8cb39841a8158e41d0d66\",\r\n        \"hex\": \"a940a7e6b4411391909908838db0532db8cd90b36367407a0000000000ffffffff0106ea4b000000000016001435600b44f82d414e451a4d5ed2e23e7f38a0de3502483045022100da76f404dfe7d29e8283f715509a2bbec14a4fbb13603d374f760c1da6b67705022017c15cad3e1420369e6734bbdc158f58cf07f4e4afe4f854ce9a11dfaefe6d00012102192a09100e62eefcf1b6b6ed4d6c81e3b95d29f6c2f8cb39841a8158e41d0d66\",\r\n        \"type\": \"nonstandard\"\r\n      }\r\n    }\r\n  ]\r\n}\r\n\r\n```",
   "closed_at" : "2019-06-18T12:53:54Z",
   "closed_by" : {
      "avatar_url" : "https://avatars2.githubusercontent.com/u/3211283?v=4",
      "events_url" : "https://api.github.com/users/meshcollider/events{/privacy}",
      "followers_url" : "https://api.github.com/users/meshcollider/followers",
      "following_url" : "https://api.github.com/users/meshcollider/following{/other_user}",
      "gists_url" : "https://api.github.com/users/meshcollider/gists{/gist_id}",
      "gravatar_id" : "",
      "html_url" : "https://github.com/meshcollider",
      "id" : 3211283,
      "login" : "meshcollider",
      "node_id" : "MDQ6VXNlcjMyMTEyODM=",
      "organizations_url" : "https://api.github.com/users/meshcollider/orgs",
      "received_events_url" : "https://api.github.com/users/meshcollider/received_events",
      "repos_url" : "https://api.github.com/users/meshcollider/repos",
      "site_admin" : false,
      "starred_url" : "https://api.github.com/users/meshcollider/starred{/owner}{/repo}",
      "subscriptions_url" : "https://api.github.com/users/meshcollider/subscriptions",
      "type" : "User",
      "url" : "https://api.github.com/users/meshcollider"
   },
   "comments" : 14,
   "comments_url" : "https://api.github.com/repos/bitcoin/bitcoin/issues/12989/comments",
   "created_at" : "2018-04-15T15:52:08Z",
   "events_url" : "https://api.github.com/repos/bitcoin/bitcoin/issues/12989/events",
   "html_url" : "https://github.com/bitcoin/bitcoin/issues/12989",
   "id" : 314427099,
   "labels" : [
      {
         "color" : "0052cc",
         "default" : false,
         "id" : 98279177,
         "name" : "RPC/REST/ZMQ",
         "node_id" : "MDU6TGFiZWw5ODI3OTE3Nw==",
         "url" : "https://api.github.com/repos/bitcoin/bitcoin/labels/RPC/REST/ZMQ"
      }
   ],
   "labels_url" : "https://api.github.com/repos/bitcoin/bitcoin/issues/12989/labels{/name}",
   "locked" : false,
   "milestone" : null,
   "node_id" : "MDU6SXNzdWUzMTQ0MjcwOTk=",
   "number" : 12989,
   "repository_url" : "https://api.github.com/repos/bitcoin/bitcoin",
   "state" : "closed",
   "title" : "Problem with decoding transaction",
   "updated_at" : "2019-06-19T14:59:20Z",
   "url" : "https://api.github.com/repos/bitcoin/bitcoin/issues/12989",
   "user" : {
      "avatar_url" : "https://avatars2.githubusercontent.com/u/1252487?v=4",
      "events_url" : "https://api.github.com/users/genosse/events{/privacy}",
      "followers_url" : "https://api.github.com/users/genosse/followers",
      "following_url" : "https://api.github.com/users/genosse/following{/other_user}",
      "gists_url" : "https://api.github.com/users/genosse/gists{/gist_id}",
      "gravatar_id" : "",
      "html_url" : "https://github.com/genosse",
      "id" : 1252487,
      "login" : "genosse",
      "node_id" : "MDQ6VXNlcjEyNTI0ODc=",
      "organizations_url" : "https://api.github.com/users/genosse/orgs",
      "received_events_url" : "https://api.github.com/users/genosse/received_events",
      "repos_url" : "https://api.github.com/users/genosse/repos",
      "site_admin" : false,
      "starred_url" : "https://api.github.com/users/genosse/starred{/owner}{/repo}",
      "subscriptions_url" : "https://api.github.com/users/genosse/subscriptions",
      "type" : "User",
      "url" : "https://api.github.com/users/genosse"
   }
}
