{
   "assignee" : null,
   "assignees" : [],
   "body" : "This PR adds code to print a readable `asm` version of the `redeemScript` of a `P2WSH` input in the `getrawtransaction` RPC call which is useful to explore that kind of transactions.\r\n\r\nExample (on testnet3):\r\n`./bitcoin-cli getrawtransaction cd56a4b017bf5aeeb86e1397ac91bb9b4ee091d3be1c89b11b08c196468464bf 1` will output the following (note the new `redeemScript` key):\r\n```json\r\n{\r\n  \"hex\": \"020000000001014558b8bc7f79efde796a90dca073e0808115365bb792db673cecf323c4eda2b40000000000ffffffff010eb50c00000000002200201d68ed9621fc634989c9988eda4883de4b3c699a154739a28891cb893ee7335c04004730440220120592e838230fb57292258dc98b6603ffd367adefb8f33fdea8b242f92823bc0220441d5fc90f6a3f61678db7bdb8256a61b08468fccad841841ec53791b27b002901483045022100bb3beffa751d485228d84513d84db6d2125af8f51bbaf6dd9a4a6ecbd7f73766022070b3478448192fd0d386a47e9a80b7d66839594526cdf33819c05449714c1242014752210251873cb58e82b8ba295cbaeb31bf5ce546182c6ff094b8c1fd0b33f82299d57721038f199dfacc8d2c83856d4a2ebda9f676962c880f7df3431fa47175940a1e101b52ae00000000\",\r\n  \"txid\": \"cd56a4b017bf5aeeb86e1397ac91bb9b4ee091d3be1c89b11b08c196468464bf\",\r\n  \"hash\": \"28961e39115f22896565e184beeb659ab68f6a8f9f0e4b8ca33699e837c4ca06\",\r\n  \"size\": 315,\r\n  \"vsize\": 150,\r\n  \"version\": 2,\r\n  \"locktime\": 0,\r\n  \"vin\": [\r\n    {\r\n      \"txid\": \"b4a2edc423f3ec3c67db92b75b36158180e073a0dc906a79deef797fbcb85845\",\r\n      \"vout\": 0,\r\n      \"scriptSig\": {\r\n        \"asm\": \"\",\r\n        \"hex\": \"\"\r\n      },\r\n      \"txinwitness\": [\r\n        \"\", \r\n        \"30440220120592e838230fb57292258dc98b6603ffd367adefb8f33fdea8b242f92823bc0220441d5fc90f6a3f61678db7bdb8256a61b08468fccad841841ec53791b27b002901\", \r\n        \"3045022100bb3beffa751d485228d84513d84db6d2125af8f51bbaf6dd9a4a6ecbd7f73766022070b3478448192fd0d386a47e9a80b7d66839594526cdf33819c05449714c124201\", \r\n        \"52210251873cb58e82b8ba295cbaeb31bf5ce546182c6ff094b8c1fd0b33f82299d57721038f199dfacc8d2c83856d4a2ebda9f676962c880f7df3431fa47175940a1e101b52ae\"\r\n      ],\r\n      \"redeemScript\": {\r\n        \"asm\": \"2 0251873cb58e82b8ba295cbaeb31bf5ce546182c6ff094b8c1fd0b33f82299d577 038f199dfacc8d2c83856d4a2ebda9f676962c880f7df3431fa47175940a1e101b 2 OP_CHECKMULTISIG\",\r\n        \"hex\": \"52210251873cb58e82b8ba295cbaeb31bf5ce546182c6ff094b8c1fd0b33f82299d57721038f199dfacc8d2c83856d4a2ebda9f676962c880f7df3431fa47175940a1e101b52ae\",\r\n        \"reqSigs\": 2,\r\n        \"type\": \"multisig\",\r\n        \"addresses\": [\r\n          \"mzLfZ7AJNtrcBZqXYXkMXRty6HoQB31Sbo\", \r\n          \"n1ANhQLAaEyswK9VWpEqCyTfgFvwtqtAYi\"\r\n        ]\r\n      },\r\n      \"sequence\": 4294967295\r\n    }\r\n  ],\r\n  \"vout\": [\r\n    {\r\n      \"value\": 0.00832782,\r\n      \"n\": 0,\r\n      \"scriptPubKey\": {\r\n        \"asm\": \"0 1d68ed9621fc634989c9988eda4883de4b3c699a154739a28891cb893ee7335c\",\r\n        \"hex\": \"00201d68ed9621fc634989c9988eda4883de4b3c699a154739a28891cb893ee7335c\",\r\n        \"type\": \"witness_v0_scripthash\"\r\n      }\r\n    }\r\n  ],\r\n  \"blockhash\": \"00000000000000fd63636cdfdf9b5469b5cc57b379c40e12ecda58b3dcc7e932\",\r\n  \"confirmations\": 36672,\r\n  \"time\": 1474472930,\r\n  \"blocktime\": 1474472930\r\n}\r\n```",
   "closed_at" : null,
   "closed_by" : null,
   "comments" : 0,
   "comments_url" : "https://api.github.com/repos/bitcoin/bitcoin/issues/8849/comments",
   "created_at" : "2016-09-30T15:12:58Z",
   "events_url" : "https://api.github.com/repos/bitcoin/bitcoin/issues/8849/events",
   "html_url" : "https://github.com/bitcoin/bitcoin/pull/8849",
   "id" : 180329052,
   "labels" : [
      {
         "color" : "0052cc",
         "name" : "RPC/REST/ZMQ",
         "url" : "https://api.github.com/repos/bitcoin/bitcoin/labels/RPC/REST/ZMQ"
      }
   ],
   "labels_url" : "https://api.github.com/repos/bitcoin/bitcoin/issues/8849/labels{/name}",
   "locked" : false,
   "milestone" : null,
   "number" : 8849,
   "pull_request" : {
      "diff_url" : "https://github.com/bitcoin/bitcoin/pull/8849.diff",
      "html_url" : "https://github.com/bitcoin/bitcoin/pull/8849",
      "patch_url" : "https://github.com/bitcoin/bitcoin/pull/8849.patch",
      "url" : "https://api.github.com/repos/bitcoin/bitcoin/pulls/8849"
   },
   "repository_url" : "https://api.github.com/repos/bitcoin/bitcoin",
   "state" : "open",
   "title" : "print P2WSH redeemScript in getrawtransaction if it s not a pubkey",
   "updated_at" : "2016-09-30T16:22:50Z",
   "url" : "https://api.github.com/repos/bitcoin/bitcoin/issues/8849",
   "user" : {
      "avatar_url" : "https://avatars.githubusercontent.com/u/855082?v=3",
      "events_url" : "https://api.github.com/users/czzarr/events{/privacy}",
      "followers_url" : "https://api.github.com/users/czzarr/followers",
      "following_url" : "https://api.github.com/users/czzarr/following{/other_user}",
      "gists_url" : "https://api.github.com/users/czzarr/gists{/gist_id}",
      "gravatar_id" : "",
      "html_url" : "https://github.com/czzarr",
      "id" : 855082,
      "login" : "czzarr",
      "organizations_url" : "https://api.github.com/users/czzarr/orgs",
      "received_events_url" : "https://api.github.com/users/czzarr/received_events",
      "repos_url" : "https://api.github.com/users/czzarr/repos",
      "site_admin" : false,
      "starred_url" : "https://api.github.com/users/czzarr/starred{/owner}{/repo}",
      "subscriptions_url" : "https://api.github.com/users/czzarr/subscriptions",
      "type" : "User",
      "url" : "https://api.github.com/users/czzarr"
   }
}
