[
   {
      "author_association" : "NONE",
      "body" : "I use `gettransaction` check other txid it have details, and they are all show in `listtransactions`",
      "created_at" : "2021-07-22T04:22:34Z",
      "html_url" : "https://github.com/bitcoin/bitcoin/issues/22524#issuecomment-884647374",
      "id" : 884647374,
      "issue_url" : "https://api.github.com/repos/bitcoin/bitcoin/issues/22524",
      "node_id" : "IC_kwDOABII5840uqXO",
      "performed_via_github_app" : null,
      "updated_at" : "2021-07-22T04:22:34Z",
      "url" : "https://api.github.com/repos/bitcoin/bitcoin/issues/comments/884647374",
      "user" : {
         "avatar_url" : "https://avatars.githubusercontent.com/u/43004977?v=4",
         "events_url" : "https://api.github.com/users/lpf763827726/events{/privacy}",
         "followers_url" : "https://api.github.com/users/lpf763827726/followers",
         "following_url" : "https://api.github.com/users/lpf763827726/following{/other_user}",
         "gists_url" : "https://api.github.com/users/lpf763827726/gists{/gist_id}",
         "gravatar_id" : "",
         "html_url" : "https://github.com/lpf763827726",
         "id" : 43004977,
         "login" : "lpf763827726",
         "node_id" : "MDQ6VXNlcjQzMDA0OTc3",
         "organizations_url" : "https://api.github.com/users/lpf763827726/orgs",
         "received_events_url" : "https://api.github.com/users/lpf763827726/received_events",
         "repos_url" : "https://api.github.com/users/lpf763827726/repos",
         "site_admin" : false,
         "starred_url" : "https://api.github.com/users/lpf763827726/starred{/owner}{/repo}",
         "subscriptions_url" : "https://api.github.com/users/lpf763827726/subscriptions",
         "type" : "User",
         "url" : "https://api.github.com/users/lpf763827726"
      }
   },
   {
      "author_association" : "CONTRIBUTOR",
      "body" : "> I back up the database in qt, then i try to use listtransactions \"*\" 500 0 search my all transactions (my transactions only about 50), but i can't search 2 txid in listtransactions\r\n\r\nNot sure why you couldn't find 2 transactions in it but I have explained few things about `listtransactions` in this answer: https://bitcoin.stackexchange.com/a/106127/\r\n\r\n\r\n> Then i try to use gettransaction to search this two txid, i found it, but not any details. These two txids are:\r\n0d45dacc0e50066a55c13b54cdcd6e365bb90be3a492c55bf4200b01d02fd748\r\n9e85595156e661a9748a52cd2fa6b3bd1e85a6bd6f4ba13c382db19baa8f2117\r\n\r\nI have shared the steps which you can follow to get information about inputs and outputs for your transaction:\r\n\r\n```\r\n$ bitcoin-cli getrawtransaction 0d45dacc0e50066a55c13b54cdcd6e365bb90be3a492c55bf4200b01d02fd748\r\n```\r\n```\r\n0200000000010102a174af0e050d47ab0d97de5061c1ff63039af1057fc0831caa908b5d5f5bb00100000000ffffffff02e803000000000000160014cd2c4a02e161d15b5a403d5b5cdbdbd92971e2ec2823000000000000160014dc5f9f8d627ae1d05b749bff299276b01fe65bf40247304402206bd02dc89ef5f85f6e67221ab75a00761f659357bfad4cbc2438e647ac8fefd40220507fe9d99035b62fc27a3475070ebbbd0d4c3bee5617175dbcba03170eab44f20121022a652d8f4bd0533797f8ce53aa40563eacf32c2d0a7c0a184aadb7504d960e6900000000\r\n```\r\n```\r\n$ bitcoin-cli decoderawtransaction 0200000000010102a174af0e050d47ab0d97de5061c1ff63039af1057fc0831caa908b5d5f5bb00100000000ffffffff02e803000000000000160014cd2c4a02e161d15b5a403d5b5cdbdbd92971e2ec2823000000000000160014dc5f9f8d627ae1d05b749bff299276b01fe65bf40247304402206bd02dc89ef5f85f6e67221ab75a00761f659357bfad4cbc2438e647ac8fefd40220507fe9d99035b62fc27a3475070ebbbd0d4c3bee5617175dbcba03170eab44f20121022a652d8f4bd0533797f8ce53aa40563eacf32c2d0a7c0a184aadb7504d960e6900000000\r\n```\r\n```json\r\n{\r\n  \"txid\": \"0d45dacc0e50066a55c13b54cdcd6e365bb90be3a492c55bf4200b01d02fd748\",\r\n  \"hash\": \"0685132e0acb402814d26c9a67cb97658522bcd270658f748125155262abde08\",\r\n  \"version\": 2,\r\n  \"size\": 222,\r\n  \"vsize\": 141,\r\n  \"weight\": 561,\r\n  \"locktime\": 0,\r\n  \"vin\": [\r\n    {\r\n      \"txid\": \"b05b5f5d8b90aa1c83c07f05f19a0363ffc16150de970dab470d050eaf74a102\",\r\n      \"vout\": 1,\r\n      \"scriptSig\": {\r\n        \"asm\": \"\",\r\n        \"hex\": \"\"\r\n      },\r\n      \"txinwitness\": [\r\n        \"304402206bd02dc89ef5f85f6e67221ab75a00761f659357bfad4cbc2438e647ac8fefd40220507fe9d99035b62fc27a3475070ebbbd0d4c3bee5617175dbcba03170eab44f201\",\r\n        \"022a652d8f4bd0533797f8ce53aa40563eacf32c2d0a7c0a184aadb7504d960e69\"\r\n      ],\r\n      \"sequence\": 4294967295\r\n    }\r\n  ],\r\n  \"vout\": [\r\n    {\r\n      \"value\": 0.00001000,\r\n      \"n\": 0,\r\n      \"scriptPubKey\": {\r\n        \"asm\": \"0 cd2c4a02e161d15b5a403d5b5cdbdbd92971e2ec\",\r\n        \"hex\": \"0014cd2c4a02e161d15b5a403d5b5cdbdbd92971e2ec\",\r\n        \"address\": \"tb1qe5ky5qhpv8g4kkjq84d4ek7mmy5hrchvmcv90y\",\r\n        \"type\": \"witness_v0_keyhash\"\r\n      }\r\n    },\r\n    {\r\n      \"value\": 0.00009000,\r\n      \"n\": 1,\r\n      \"scriptPubKey\": {\r\n        \"asm\": \"0 dc5f9f8d627ae1d05b749bff299276b01fe65bf4\",\r\n        \"hex\": \"0014dc5f9f8d627ae1d05b749bff299276b01fe65bf4\",\r\n        \"address\": \"tb1qm30elrtz0tsaqkm5n0ljnynkkq07vkl5zfeuah\",\r\n        \"type\": \"witness_v0_keyhash\"\r\n      }\r\n    }\r\n  ]\r\n}\r\n```\r\nSo we have this information from the above result:\r\n\r\n| Inputs  | Outputs |\r\n| ------------- | ------------- |\r\n|       \"txid\": \"b05b5f5d8b90aa1c83c07f05f19a0363ffc16150de970dab470d050eaf74a102\", \"vout\": 1  | tb1qe5ky5qhpv8g4kkjq84d4ek7mmy5hrchvmcv90y (0.00001000)|\r\n|   | tb1qm30elrtz0tsaqkm5n0ljnynkkq07vkl5zfeuah (0.00009000)|\r\n\r\nTo get  more information about inputs, run the following commands:\r\n\r\n```\r\n$ bitcoin-cli getrawtransaction b05b5f5d8b90aa1c83c07f05f19a0363ffc16150de970dab470d050eaf74a102\r\n```\r\n\r\n```\r\n02000000000101de726d3e81ea2c3561dbd54d89e524bf697ef99869f89171b1c0e572ecfa7c5a0000000000ffffffff03204e000000000000160014cd2c4a02e161d15b5a403d5b5cdbdbd92971e2ec204e00000000000016001410d76e5811f766bf2767b439f29604e038ae199300000000000000001600149867e363621a530bc726d33cd076f914e8062fc20247304402203c34d2c3b5383026dba2b03d194ee8fe4c9d5e1e5bc63fedbe906f5b8066aa3c022063620470d11244d67cff605a3642b4569ccc1d918b2a9a949603947fb872c36e0121031c7a9f9443ff7e62c0685a31c24af4b810dbf09adbee6926db7d7d3b4b18a34b00000000\r\n```\r\n\r\n```\r\n$ bitcoin-cli decoderawtransaction 02000000000101de726d3e81ea2c3561dbd54d89e524bf697ef99869f89171b1c0e572ecfa7c5a0000000000ffffffff03204e000000000000160014cd2c4a02e161d15b5a403d5b5cdbdbd92971e2ec204e00000000000016001410d76e5811f766bf2767b439f29604e038ae199300000000000000001600149867e363621a530bc726d33cd076f914e8062fc20247304402203c34d2c3b5383026dba2b03d194ee8fe4c9d5e1e5bc63fedbe906f5b8066aa3c022063620470d11244d67cff605a3642b4569ccc1d918b2a9a949603947fb872c36e0121031c7a9f9443ff7e62c0685a31c24af4b810dbf09adbee6926db7d7d3b4b18a34b00000000\r\n```\r\nCheck `vout:1` in this transaction below:\r\n```json\r\n{\r\n  \"txid\": \"b05b5f5d8b90aa1c83c07f05f19a0363ffc16150de970dab470d050eaf74a102\",\r\n  \"hash\": \"ef3f537f47465f58737a5fe81a2bb5688dc9e82f9d0472fdd86baac4375572e8\",\r\n  \"version\": 2,\r\n  \"size\": 253,\r\n  \"vsize\": 172,\r\n  \"weight\": 685,\r\n  \"locktime\": 0,\r\n  \"vin\": [\r\n    {\r\n      \"txid\": \"5a7cfaec72e5c0b17191f86998f97e69bf24e5894dd5db61352cea813e6d72de\",\r\n      \"vout\": 0,\r\n      \"scriptSig\": {\r\n        \"asm\": \"\",\r\n        \"hex\": \"\"\r\n      },\r\n      \"txinwitness\": [\r\n        \"304402203c34d2c3b5383026dba2b03d194ee8fe4c9d5e1e5bc63fedbe906f5b8066aa3c022063620470d11244d67cff605a3642b4569ccc1d918b2a9a949603947fb872c36e01\",\r\n        \"031c7a9f9443ff7e62c0685a31c24af4b810dbf09adbee6926db7d7d3b4b18a34b\"\r\n      ],\r\n      \"sequence\": 4294967295\r\n    }\r\n  ],\r\n  \"vout\": [\r\n    {\r\n      \"value\": 0.00020000,\r\n      \"n\": 0,\r\n      \"scriptPubKey\": {\r\n        \"asm\": \"0 cd2c4a02e161d15b5a403d5b5cdbdbd92971e2ec\",\r\n        \"hex\": \"0014cd2c4a02e161d15b5a403d5b5cdbdbd92971e2ec\",\r\n        \"address\": \"tb1qe5ky5qhpv8g4kkjq84d4ek7mmy5hrchvmcv90y\",\r\n        \"type\": \"witness_v0_keyhash\"\r\n      }\r\n    },\r\n    {\r\n      \"value\": 0.00020000,\r\n      \"n\": 1,\r\n      \"scriptPubKey\": {\r\n        \"asm\": \"0 10d76e5811f766bf2767b439f29604e038ae1993\",\r\n        \"hex\": \"001410d76e5811f766bf2767b439f29604e038ae1993\",\r\n        \"address\": \"tb1qzrtkukq37ant7fm8ksul99syuqu2uxvnk9lw45\",\r\n        \"type\": \"witness_v0_keyhash\"\r\n      }\r\n    },\r\n    {\r\n      \"value\": 0.00000000,\r\n      \"n\": 2,\r\n      \"scriptPubKey\": {\r\n        \"asm\": \"0 9867e363621a530bc726d33cd076f914e8062fc2\",\r\n        \"hex\": \"00149867e363621a530bc726d33cd076f914e8062fc2\",\r\n        \"address\": \"tb1qnpn7xcmzrffsh3ex6v7dqahezn5qvt7za39uhw\",\r\n        \"type\": \"witness_v0_keyhash\"\r\n      }\r\n    }\r\n  ]\r\n}\r\n```\r\nSo finally we have all the information about inputs and outputs for your first transaction similar to block explorer:\r\n\r\n| Inputs  | Outputs |\r\n| ------------- | ------------- |\r\n|       tb1qzrtkukq37ant7fm8ksul99syuqu2uxvnk9lw45 (0.00020000) | tb1qe5ky5qhpv8g4kkjq84d4ek7mmy5hrchvmcv90y (0.00001000)|\r\n|   | tb1qm30elrtz0tsaqkm5n0ljnynkkq07vkl5zfeuah (0.00009000)|\r\n\r\n",
      "created_at" : "2021-07-22T05:24:39Z",
      "html_url" : "https://github.com/bitcoin/bitcoin/issues/22524#issuecomment-884663685",
      "id" : 884663685,
      "issue_url" : "https://api.github.com/repos/bitcoin/bitcoin/issues/22524",
      "node_id" : "IC_kwDOABII5840uuWF",
      "performed_via_github_app" : null,
      "updated_at" : "2021-07-22T05:24:39Z",
      "url" : "https://api.github.com/repos/bitcoin/bitcoin/issues/comments/884663685",
      "user" : {
         "avatar_url" : "https://avatars.githubusercontent.com/u/13405205?v=4",
         "events_url" : "https://api.github.com/users/prayank23/events{/privacy}",
         "followers_url" : "https://api.github.com/users/prayank23/followers",
         "following_url" : "https://api.github.com/users/prayank23/following{/other_user}",
         "gists_url" : "https://api.github.com/users/prayank23/gists{/gist_id}",
         "gravatar_id" : "",
         "html_url" : "https://github.com/prayank23",
         "id" : 13405205,
         "login" : "prayank23",
         "node_id" : "MDQ6VXNlcjEzNDA1MjA1",
         "organizations_url" : "https://api.github.com/users/prayank23/orgs",
         "received_events_url" : "https://api.github.com/users/prayank23/received_events",
         "repos_url" : "https://api.github.com/users/prayank23/repos",
         "site_admin" : false,
         "starred_url" : "https://api.github.com/users/prayank23/starred{/owner}{/repo}",
         "subscriptions_url" : "https://api.github.com/users/prayank23/subscriptions",
         "type" : "User",
         "url" : "https://api.github.com/users/prayank23"
      }
   },
   {
      "author_association" : "NONE",
      "body" : "> I have shared the steps which you can follow to get information about inputs and outputs for your transaction:\r\n\r\nthanks for your share, but now i can't find this two txid in `listtransactions`, i can't do anything with `getrawtransaction`, because i don't know whice one txid i lost if i use automation to search\r\n\r\nnow my transactionList is only use `listtransactions`\r\n\r\nif there have some way to find all txid, can you teach me?",
      "created_at" : "2021-07-22T06:31:59Z",
      "html_url" : "https://github.com/bitcoin/bitcoin/issues/22524#issuecomment-884685849",
      "id" : 884685849,
      "issue_url" : "https://api.github.com/repos/bitcoin/bitcoin/issues/22524",
      "node_id" : "IC_kwDOABII5840uzwZ",
      "performed_via_github_app" : null,
      "updated_at" : "2021-07-22T06:31:59Z",
      "url" : "https://api.github.com/repos/bitcoin/bitcoin/issues/comments/884685849",
      "user" : {
         "avatar_url" : "https://avatars.githubusercontent.com/u/43004977?v=4",
         "events_url" : "https://api.github.com/users/lpf763827726/events{/privacy}",
         "followers_url" : "https://api.github.com/users/lpf763827726/followers",
         "following_url" : "https://api.github.com/users/lpf763827726/following{/other_user}",
         "gists_url" : "https://api.github.com/users/lpf763827726/gists{/gist_id}",
         "gravatar_id" : "",
         "html_url" : "https://github.com/lpf763827726",
         "id" : 43004977,
         "login" : "lpf763827726",
         "node_id" : "MDQ6VXNlcjQzMDA0OTc3",
         "organizations_url" : "https://api.github.com/users/lpf763827726/orgs",
         "received_events_url" : "https://api.github.com/users/lpf763827726/received_events",
         "repos_url" : "https://api.github.com/users/lpf763827726/repos",
         "site_admin" : false,
         "starred_url" : "https://api.github.com/users/lpf763827726/starred{/owner}{/repo}",
         "subscriptions_url" : "https://api.github.com/users/lpf763827726/subscriptions",
         "type" : "User",
         "url" : "https://api.github.com/users/lpf763827726"
      }
   },
   {
      "author_association" : "CONTRIBUTOR",
      "body" : "> if there have some way to find all txid, can you teach me?\r\n\r\n[`listtransactions`](https://bitcoincore.org/en/doc/0.21.0/rpc/wallet/listtransactions/) should list all transactions IMO. If few transactions are missing, you can share all the details of your wallet, steps to reproduce, logs etc. and ask a question on [Bitcoin Stackexchange](https://bitcoin.stackexchange.com)",
      "created_at" : "2021-07-22T15:52:29Z",
      "html_url" : "https://github.com/bitcoin/bitcoin/issues/22524#issuecomment-885022753",
      "id" : 885022753,
      "issue_url" : "https://api.github.com/repos/bitcoin/bitcoin/issues/22524",
      "node_id" : "IC_kwDOABII5840wGAh",
      "performed_via_github_app" : null,
      "updated_at" : "2021-07-22T15:52:29Z",
      "url" : "https://api.github.com/repos/bitcoin/bitcoin/issues/comments/885022753",
      "user" : {
         "avatar_url" : "https://avatars.githubusercontent.com/u/13405205?v=4",
         "events_url" : "https://api.github.com/users/prayank23/events{/privacy}",
         "followers_url" : "https://api.github.com/users/prayank23/followers",
         "following_url" : "https://api.github.com/users/prayank23/following{/other_user}",
         "gists_url" : "https://api.github.com/users/prayank23/gists{/gist_id}",
         "gravatar_id" : "",
         "html_url" : "https://github.com/prayank23",
         "id" : 13405205,
         "login" : "prayank23",
         "node_id" : "MDQ6VXNlcjEzNDA1MjA1",
         "organizations_url" : "https://api.github.com/users/prayank23/orgs",
         "received_events_url" : "https://api.github.com/users/prayank23/received_events",
         "repos_url" : "https://api.github.com/users/prayank23/repos",
         "site_admin" : false,
         "starred_url" : "https://api.github.com/users/prayank23/starred{/owner}{/repo}",
         "subscriptions_url" : "https://api.github.com/users/prayank23/subscriptions",
         "type" : "User",
         "url" : "https://api.github.com/users/prayank23"
      }
   },
   {
      "author_association" : "NONE",
      "body" : "> [`listtransactions`](https://bitcoincore.org/en/doc/0.21.0/rpc/wallet/listtransactions/) should list all transactions IMO. If few transactions are missing, you can share all the details of your wallet, steps to reproduce, logs etc. and ask a question on [Bitcoin Stackexchange](https://bitcoin.stackexchange.com)\r\n\r\nAlthough I also want to provide you with the wrong steps, But I'm so sorry, I don't know how it happened\r\nI guess this error may occur because I sent the transaction to txid's current address?\r\nAlso, thank you very much for your help, I'll try to see if this problem will happen again",
      "created_at" : "2021-07-23T03:16:21Z",
      "html_url" : "https://github.com/bitcoin/bitcoin/issues/22524#issuecomment-885370650",
      "id" : 885370650,
      "issue_url" : "https://api.github.com/repos/bitcoin/bitcoin/issues/22524",
      "node_id" : "IC_kwDOABII5840xa8a",
      "performed_via_github_app" : null,
      "updated_at" : "2021-07-23T03:16:21Z",
      "url" : "https://api.github.com/repos/bitcoin/bitcoin/issues/comments/885370650",
      "user" : {
         "avatar_url" : "https://avatars.githubusercontent.com/u/43004977?v=4",
         "events_url" : "https://api.github.com/users/lpf763827726/events{/privacy}",
         "followers_url" : "https://api.github.com/users/lpf763827726/followers",
         "following_url" : "https://api.github.com/users/lpf763827726/following{/other_user}",
         "gists_url" : "https://api.github.com/users/lpf763827726/gists{/gist_id}",
         "gravatar_id" : "",
         "html_url" : "https://github.com/lpf763827726",
         "id" : 43004977,
         "login" : "lpf763827726",
         "node_id" : "MDQ6VXNlcjQzMDA0OTc3",
         "organizations_url" : "https://api.github.com/users/lpf763827726/orgs",
         "received_events_url" : "https://api.github.com/users/lpf763827726/received_events",
         "repos_url" : "https://api.github.com/users/lpf763827726/repos",
         "site_admin" : false,
         "starred_url" : "https://api.github.com/users/lpf763827726/starred{/owner}{/repo}",
         "subscriptions_url" : "https://api.github.com/users/lpf763827726/subscriptions",
         "type" : "User",
         "url" : "https://api.github.com/users/lpf763827726"
      }
   }
]
