{
   "active_lock_reason" : null,
   "assignee" : null,
   "assignees" : [],
   "author_association" : "CONTRIBUTOR",
   "body" : "When using the `rescanblockchain` wallet RPC command, it seems like sometimes (though not always, and I couldn't find a specific pattern for when this does and doesn't happen) the `time` field of all transactions found is being set to the time of the most recent transaction detected. Besides that field, all data (including block and blocktime) return correctly. What's more, even in a node with `txindex=1` this happens, despite that when calling the (non-wallet-specific) `getrawtransaction` command, it returns the correct time.\r\n\r\nHere's an example of a testnet transaction where I experienced this behaviour, and the output of Core where the same `txid` has. 2 different `time`s - a correct one using `getrawtransaction` and an incorrect one using `gettransaction`:\r\n```\r\nbitcoin-cli --testnet -rpcwallet=wallet getrawtransaction 8bacfc9c63d181e9d303f57f550fe72870afd640c961466829c6212bb23a72fe 1\r\n{\r\n  \"txid\": \"8bacfc9c63d181e9d303f57f550fe72870afd640c961466829c6212bb23a72fe\",\r\n  \"hash\": \"3de22064b8fec52fb183a8ad46fd011e6c6cab9906a008afa3d649d11bd250f1\",\r\n  \"version\": 2,\r\n  \"size\": 222,\r\n  \"vsize\": 141,\r\n  \"weight\": 561,\r\n  \"locktime\": 0,\r\n  \"vin\": [\r\n    {\r\n      \"txid\": \"685571776adce2ac3332faf6ed125235366cc3cb464604c9234bf371f1ab4e02\",\r\n      \"vout\": 0,\r\n      \"scriptSig\": {\r\n        \"asm\": \"\",\r\n        \"hex\": \"\"\r\n      },\r\n      \"txinwitness\": [\r\n        \"30440220516d0b313aae44f639a111dac8f27bc1fac446345aaad51852a784620ac62c690220433cb7fdeb78cd84574ec0ddd08789a248fe19b71759e1b3b448ff9c3f980be401\",\r\n        \"03eca8ceb44c4d930ab89fb5d721d02a745e4aeb0f75993fa535e98fb6c7f6e16e\"\r\n      ],\r\n      \"sequence\": 4294967294\r\n    }\r\n  ],\r\n  \"vout\": [\r\n    {\r\n      \"value\": 0.53891045,\r\n      \"n\": 0,\r\n      \"scriptPubKey\": {\r\n        \"asm\": \"0 f3020d45a9ccf870ddf4176fde4420931ffd9af6\",\r\n        \"hex\": \"0014f3020d45a9ccf870ddf4176fde4420931ffd9af6\",\r\n        \"reqSigs\": 1,\r\n        \"type\": \"witness_v0_keyhash\",\r\n        \"addresses\": [\r\n          \"tb1q7vpq63dfenu8ph05zahau3pqjv0lmxhk73dsjm\"\r\n        ]\r\n      }\r\n    },\r\n    {\r\n      \"value\": 0.10000000,\r\n      \"n\": 1,\r\n      \"scriptPubKey\": {\r\n        \"asm\": \"0 bf702bf755da860153e7b1043fea160c6dcd9f1a\",\r\n        \"hex\": \"0014bf702bf755da860153e7b1043fea160c6dcd9f1a\",\r\n        \"reqSigs\": 1,\r\n        \"type\": \"witness_v0_keyhash\",\r\n        \"addresses\": [\r\n          \"tb1qhaczha64m2rqz5l8kyzrl6skp3kum8c6m0c2h4\"\r\n        ]\r\n      }\r\n    }\r\n  ],\r\n  \"hex\": \"02000000000101024eabf171f34b23c9044646cbc36c36355212edf6fa3233ace2dc6a777155680000000000feffffff02e54f360300000000160014f3020d45a9ccf870ddf4176fde4420931ffd9af68096980000000000160014bf702bf755da860153e7b1043fea160c6dcd9f1a024730440220516d0b313aae44f639a111dac8f27bc1fac446345aaad51852a784620ac62c690220433cb7fdeb78cd84574ec0ddd08789a248fe19b71759e1b3b448ff9c3f980be4012103eca8ceb44c4d930ab89fb5d721d02a745e4aeb0f75993fa535e98fb6c7f6e16e00000000\",\r\n  \"blockhash\": \"00000000000000bc3b97cbe323c4695f39a65cc1d73060dca8ad084fb0ce61b5\",\r\n  \"confirmations\": 27528,\r\n  \"time\": 1600623861,\r\n  \"blocktime\": 1600623861\r\n}\r\n```\r\n```\r\nbitcoin-cli --testnet -rpcwallet=wallet gettransaction 8bacfc9c63d181e9d303f57f550fe72870afd640c961466829c6212bb23a72fe\r\n{\r\n  \"amount\": -0.10000000,\r\n  \"fee\": -0.00000142,\r\n  \"confirmations\": 27528,\r\n  \"blockhash\": \"00000000000000bc3b97cbe323c4695f39a65cc1d73060dca8ad084fb0ce61b5\",\r\n  \"blockheight\": 1835261,\r\n  \"blockindex\": 24,\r\n  \"blocktime\": 1600623861,\r\n  \"txid\": \"8bacfc9c63d181e9d303f57f550fe72870afd640c961466829c6212bb23a72fe\",\r\n  \"walletconflicts\": [\r\n  ],\r\n  \"time\": 1601486746,\r\n  \"timereceived\": 1602570577,\r\n  \"bip125-replaceable\": \"no\",\r\n  \"details\": [\r\n    {\r\n      \"involvesWatchonly\": true,\r\n      \"address\": \"tb1q7vpq63dfenu8ph05zahau3pqjv0lmxhk73dsjm\",\r\n      \"category\": \"send\",\r\n      \"amount\": -0.53891045,\r\n      \"label\": \"Change #5\",\r\n      \"vout\": 0,\r\n      \"fee\": -0.00000142,\r\n      \"abandoned\": false\r\n    },\r\n    {\r\n      \"involvesWatchonly\": true,\r\n      \"address\": \"tb1qhaczha64m2rqz5l8kyzrl6skp3kum8c6m0c2h4\",\r\n      \"category\": \"send\",\r\n      \"amount\": -0.10000000,\r\n      \"vout\": 1,\r\n      \"fee\": -0.00000142,\r\n      \"abandoned\": false\r\n    },\r\n    {\r\n      \"involvesWatchonly\": true,\r\n      \"address\": \"tb1q7vpq63dfenu8ph05zahau3pqjv0lmxhk73dsjm\",\r\n      \"category\": \"receive\",\r\n      \"amount\": 0.53891045,\r\n      \"label\": \"Change #5\",\r\n      \"vout\": 0\r\n    }\r\n  ],\r\n  \"hex\": \"02000000000101024eabf171f34b23c9044646cbc36c36355212edf6fa3233ace2dc6a777155680000000000feffffff02e54f360300000000160014f3020d45a9ccf870ddf4176fde4420931ffd9af68096980000000000160014bf702bf755da860153e7b1043fea160c6dcd9f1a024730440220516d0b313aae44f639a111dac8f27bc1fac446345aaad51852a784620ac62c690220433cb7fdeb78cd84574ec0ddd08789a248fe19b71759e1b3b448ff9c3f980be4012103eca8ceb44c4d930ab89fb5d721d02a745e4aeb0f75993fa535e98fb6c7f6e16e00000000\"\r\n}\r\n```",
   "closed_at" : "2021-09-28T22:18:46Z",
   "closed_by" : {
      "avatar_url" : "https://avatars.githubusercontent.com/u/3211283?v=4",
      "events_url" : "https://api.github.com/users/meshcollider/events{/privacy}",
      "followers_url" : "https://api.github.com/users/meshcollider/followers",
      "following_url" : "https://api.github.com/users/meshcollider/following{/other_user}",
      "gists_url" : "https://api.github.com/users/meshcollider/gists{/gist_id}",
      "gravatar_id" : "",
      "html_url" : "https://github.com/meshcollider",
      "id" : 3211283,
      "login" : "meshcollider",
      "node_id" : "MDQ6VXNlcjMyMTEyODM=",
      "organizations_url" : "https://api.github.com/users/meshcollider/orgs",
      "received_events_url" : "https://api.github.com/users/meshcollider/received_events",
      "repos_url" : "https://api.github.com/users/meshcollider/repos",
      "site_admin" : false,
      "starred_url" : "https://api.github.com/users/meshcollider/starred{/owner}{/repo}",
      "subscriptions_url" : "https://api.github.com/users/meshcollider/subscriptions",
      "type" : "User",
      "url" : "https://api.github.com/users/meshcollider"
   },
   "comments" : 9,
   "comments_url" : "https://api.github.com/repos/bitcoin/bitcoin/issues/20181/comments",
   "created_at" : "2020-10-18T18:02:04Z",
   "events_url" : "https://api.github.com/repos/bitcoin/bitcoin/issues/20181/events",
   "html_url" : "https://github.com/bitcoin/bitcoin/issues/20181",
   "id" : 724062887,
   "labels" : [
      {
         "color" : "FBBAAB",
         "default" : false,
         "description" : null,
         "id" : 64585,
         "name" : "Bug",
         "node_id" : "MDU6TGFiZWw2NDU4NQ==",
         "url" : "https://api.github.com/repos/bitcoin/bitcoin/labels/Bug"
      }
   ],
   "labels_url" : "https://api.github.com/repos/bitcoin/bitcoin/issues/20181/labels{/name}",
   "locked" : false,
   "milestone" : null,
   "node_id" : "MDU6SXNzdWU3MjQwNjI4ODc=",
   "number" : 20181,
   "performed_via_github_app" : null,
   "repository_url" : "https://api.github.com/repos/bitcoin/bitcoin",
   "state" : "closed",
   "timeline_url" : "https://api.github.com/repos/bitcoin/bitcoin/issues/20181/timeline",
   "title" : "Wrong `time` when importing transactions with `rescanblockchain ` RPC command",
   "updated_at" : "2021-09-28T22:18:46Z",
   "url" : "https://api.github.com/repos/bitcoin/bitcoin/issues/20181",
   "user" : {
      "avatar_url" : "https://avatars.githubusercontent.com/u/10667901?v=4",
      "events_url" : "https://api.github.com/users/ben-kaufman/events{/privacy}",
      "followers_url" : "https://api.github.com/users/ben-kaufman/followers",
      "following_url" : "https://api.github.com/users/ben-kaufman/following{/other_user}",
      "gists_url" : "https://api.github.com/users/ben-kaufman/gists{/gist_id}",
      "gravatar_id" : "",
      "html_url" : "https://github.com/ben-kaufman",
      "id" : 10667901,
      "login" : "ben-kaufman",
      "node_id" : "MDQ6VXNlcjEwNjY3OTAx",
      "organizations_url" : "https://api.github.com/users/ben-kaufman/orgs",
      "received_events_url" : "https://api.github.com/users/ben-kaufman/received_events",
      "repos_url" : "https://api.github.com/users/ben-kaufman/repos",
      "site_admin" : false,
      "starred_url" : "https://api.github.com/users/ben-kaufman/starred{/owner}{/repo}",
      "subscriptions_url" : "https://api.github.com/users/ben-kaufman/subscriptions",
      "type" : "User",
      "url" : "https://api.github.com/users/ben-kaufman"
   }
}
