[
   {
      "body" : "Works here on regtest:\r\n\r\n```\r\n> listunspent\r\n\r\n[\r\n...\r\n{\r\n\"txid\": \"dbea6d5785707b97a9ceb8943502e41925e9f765740bd0df1961e93a1652d083\",\r\n\"vout\": 0,\r\n\"address\": \"mkgUgzujPDmYRbhFZhc8Tz1GFtd7ihhYFV\",\r\n\"scriptPubKey\": \"21027d9d4cb50d15b22d0e739bfaed87509f634bdfb1d010f25ea4c7cbca489f3dcbac\",\r\n\"amount\": 50.00000000,\r\n\"confirmations\": 104,\r\n\"spendable\": true\r\n}\r\n]\r\n\r\n> createrawtransaction \"[{\\\"txid\\\":\\\"dbea6d5785707b97a9ceb8943502e41925e9f765740bd0df1961e93a1652d083\\\",\\\"vout\\\":0}]\" \"{\\\"mugZmmNY1q1PeWsszGzvMEvWWbAgGjcNuQ\\\":40}\"\r\n\r\n010000000183d052163ae96119dfd00b7465f7e92519e4023594b8cea9977b7085576deadb0000000000ffffffff0100286bee000000001976a9149b631eb819687a6c1652e4664cef525e4ef8d2b788ac00000000\r\n\r\n> decoderawtransaction 010000000183d052163ae96119dfd00b7465f7e92519e4023594b8cea9977b7085576deadb0000000000ffffffff0100286bee000000001976a9149b631eb819687a6c1652e4664cef525e4ef8d2b788ac00000000\r\n\r\n{\r\n\"txid\": \"0fddff76b31deb4b27ebee244036bbc44a31fdfbde9516e8745d0ad1ec4eba59\",\r\n\"version\": 1,\r\n\"locktime\": 0,\r\n\"vin\": [\r\n{\r\n\"txid\": \"dbea6d5785707b97a9ceb8943502e41925e9f765740bd0df1961e93a1652d083\",\r\n\"vout\": 0,\r\n\"scriptSig\": {\r\n\"asm\": \"\",\r\n\"hex\": \"\"\r\n},\r\n\"sequence\": 4294967295\r\n}\r\n],\r\n\"vout\": [\r\n{\r\n\"value\": 40.00000000,\r\n\"n\": 0,\r\n\"scriptPubKey\": {\r\n\"asm\": \"OP_DUP OP_HASH160 9b631eb819687a6c1652e4664cef525e4ef8d2b7 OP_EQUALVERIFY OP_CHECKSIG\",\r\n\"hex\": \"76a9149b631eb819687a6c1652e4664cef525e4ef8d2b788ac\",\r\n\"reqSigs\": 1,\r\n\"type\": \"pubkeyhash\",\r\n\"addresses\": [\r\n\"mugZmmNY1q1PeWsszGzvMEvWWbAgGjcNuQ\"\r\n]\r\n}\r\n}\r\n]\r\n}\r\n\r\n> signrawtransaction 010000000183d052163ae96119dfd00b7465f7e92519e4023594b8cea9977b7085576deadb0000000000ffffffff0100286bee000000001976a9149b631eb819687a6c1652e4664cef525e4ef8d2b788ac00000000\r\n\r\n{\r\n\"hex\": \"010000000183d052163ae96119dfd00b7465f7e92519e4023594b8cea9977b7085576deadb0000000049483045022100fdafbd08e99c345f42faf038cae5eef321fd43378e2159f3999958210602e06102201950ffe4e5dd70d655262fe1d7c76ff92e5154ac2e9595c651b422e495cdfa8001ffffffff0100286bee000000001976a9149b631eb819687a6c1652e4664cef525e4ef8d2b788ac00000000\",\r\n\"complete\": true\r\n}\r\n\r\n```\r\n",
      "created_at" : "2015-10-01T11:54:45Z",
      "html_url" : "https://github.com/bitcoin/bitcoin/issues/2267#issuecomment-144705976",
      "id" : 144705976,
      "issue_url" : "https://api.github.com/repos/bitcoin/bitcoin/issues/2267",
      "updated_at" : "2015-10-01T11:54:45Z",
      "url" : "https://api.github.com/repos/bitcoin/bitcoin/issues/comments/144705976",
      "user" : {
         "avatar_url" : "https://avatars.githubusercontent.com/u/6848764?v=3",
         "events_url" : "https://api.github.com/users/paveljanik/events{/privacy}",
         "followers_url" : "https://api.github.com/users/paveljanik/followers",
         "following_url" : "https://api.github.com/users/paveljanik/following{/other_user}",
         "gists_url" : "https://api.github.com/users/paveljanik/gists{/gist_id}",
         "gravatar_id" : "",
         "html_url" : "https://github.com/paveljanik",
         "id" : 6848764,
         "login" : "paveljanik",
         "organizations_url" : "https://api.github.com/users/paveljanik/orgs",
         "received_events_url" : "https://api.github.com/users/paveljanik/received_events",
         "repos_url" : "https://api.github.com/users/paveljanik/repos",
         "site_admin" : false,
         "starred_url" : "https://api.github.com/users/paveljanik/starred{/owner}{/repo}",
         "subscriptions_url" : "https://api.github.com/users/paveljanik/subscriptions",
         "type" : "User",
         "url" : "https://api.github.com/users/paveljanik"
      }
   },
   {
      "body" : "@paveljanik Thanks for testing. Although I think @gavinandresen means a different thing: you're signing a transaction that spends a coinbase transaction, not signing a coinbase transaction",
      "created_at" : "2015-10-01T15:44:19Z",
      "html_url" : "https://github.com/bitcoin/bitcoin/issues/2267#issuecomment-144766902",
      "id" : 144766902,
      "issue_url" : "https://api.github.com/repos/bitcoin/bitcoin/issues/2267",
      "updated_at" : "2015-10-01T15:44:19Z",
      "url" : "https://api.github.com/repos/bitcoin/bitcoin/issues/comments/144766902",
      "user" : {
         "avatar_url" : "https://avatars.githubusercontent.com/u/126646?v=3",
         "events_url" : "https://api.github.com/users/laanwj/events{/privacy}",
         "followers_url" : "https://api.github.com/users/laanwj/followers",
         "following_url" : "https://api.github.com/users/laanwj/following{/other_user}",
         "gists_url" : "https://api.github.com/users/laanwj/gists{/gist_id}",
         "gravatar_id" : "",
         "html_url" : "https://github.com/laanwj",
         "id" : 126646,
         "login" : "laanwj",
         "organizations_url" : "https://api.github.com/users/laanwj/orgs",
         "received_events_url" : "https://api.github.com/users/laanwj/received_events",
         "repos_url" : "https://api.github.com/users/laanwj/repos",
         "site_admin" : false,
         "starred_url" : "https://api.github.com/users/laanwj/starred{/owner}{/repo}",
         "subscriptions_url" : "https://api.github.com/users/laanwj/subscriptions",
         "type" : "User",
         "url" : "https://api.github.com/users/laanwj"
      }
   },
   {
      "body" : "The log (http://www.bitbin.it/raw.php?id=wh0V8Q6I) is spending coinbase transaction output... It looks like this testnet block: http://tbtc.blockr.io/block/info/49147\r\nCoinbase is 0dd6c0e60a4c39e3e3371c4d83896f941a9979b5327aae2ae414165957b99428 and the user tried:\r\n```\r\n#bitcoind createrawtransaction '[{\"txid\":\"0dd6c0e60a4c39e3e3371c4d83896f941a9979b5327aae2ae414165957b99428\",\"vout\":0}]' '{\"miUL2hm9kV4jzSPFhS9rciafxtPiE7doqP\":50}'\r\n```\r\nSo IIUIC, he is signing the transaction spending the coinbase transaction output.\r\nBut maybe I do not see it/am blind ;-)\r\n",
      "created_at" : "2015-10-01T16:08:19Z",
      "html_url" : "https://github.com/bitcoin/bitcoin/issues/2267#issuecomment-144773893",
      "id" : 144773893,
      "issue_url" : "https://api.github.com/repos/bitcoin/bitcoin/issues/2267",
      "updated_at" : "2015-10-01T16:08:19Z",
      "url" : "https://api.github.com/repos/bitcoin/bitcoin/issues/comments/144773893",
      "user" : {
         "avatar_url" : "https://avatars.githubusercontent.com/u/6848764?v=3",
         "events_url" : "https://api.github.com/users/paveljanik/events{/privacy}",
         "followers_url" : "https://api.github.com/users/paveljanik/followers",
         "following_url" : "https://api.github.com/users/paveljanik/following{/other_user}",
         "gists_url" : "https://api.github.com/users/paveljanik/gists{/gist_id}",
         "gravatar_id" : "",
         "html_url" : "https://github.com/paveljanik",
         "id" : 6848764,
         "login" : "paveljanik",
         "organizations_url" : "https://api.github.com/users/paveljanik/orgs",
         "received_events_url" : "https://api.github.com/users/paveljanik/received_events",
         "repos_url" : "https://api.github.com/users/paveljanik/repos",
         "site_admin" : false,
         "starred_url" : "https://api.github.com/users/paveljanik/starred{/owner}{/repo}",
         "subscriptions_url" : "https://api.github.com/users/paveljanik/subscriptions",
         "type" : "User",
         "url" : "https://api.github.com/users/paveljanik"
      }
   },
   {
      "body" : "Whoa. I have reused the regtest tree from previous run. Will replicate with coinbase transaction...\r\n",
      "created_at" : "2015-10-01T16:30:45Z",
      "html_url" : "https://github.com/bitcoin/bitcoin/issues/2267#issuecomment-144780189",
      "id" : 144780189,
      "issue_url" : "https://api.github.com/repos/bitcoin/bitcoin/issues/2267",
      "updated_at" : "2015-10-01T16:30:45Z",
      "url" : "https://api.github.com/repos/bitcoin/bitcoin/issues/comments/144780189",
      "user" : {
         "avatar_url" : "https://avatars.githubusercontent.com/u/6848764?v=3",
         "events_url" : "https://api.github.com/users/paveljanik/events{/privacy}",
         "followers_url" : "https://api.github.com/users/paveljanik/followers",
         "following_url" : "https://api.github.com/users/paveljanik/following{/other_user}",
         "gists_url" : "https://api.github.com/users/paveljanik/gists{/gist_id}",
         "gravatar_id" : "",
         "html_url" : "https://github.com/paveljanik",
         "id" : 6848764,
         "login" : "paveljanik",
         "organizations_url" : "https://api.github.com/users/paveljanik/orgs",
         "received_events_url" : "https://api.github.com/users/paveljanik/received_events",
         "repos_url" : "https://api.github.com/users/paveljanik/repos",
         "site_admin" : false,
         "starred_url" : "https://api.github.com/users/paveljanik/starred{/owner}{/repo}",
         "subscriptions_url" : "https://api.github.com/users/paveljanik/subscriptions",
         "type" : "User",
         "url" : "https://api.github.com/users/paveljanik"
      }
   },
   {
      "body" : "```\r\n> gettransaction d6a815dca3ad60e798a653b3768fa0bd79125772063684a9f969b533fe0ae9ef\r\n\r\n{\r\n\"amount\": 50.00000000,\r\n\"confirmations\": 121,\r\n\"generated\": true,\r\n\"blockhash\": \"579329c48041083807855fb3bb048c5e571936e3733ffebddad210ee38516b1f\",\r\n\"blockindex\": 0,\r\n\"blocktime\": 1443714885,\r\n\"txid\": \"d6a815dca3ad60e798a653b3768fa0bd79125772063684a9f969b533fe0ae9ef\",\r\n\"walletconflicts\": [\r\n],\r\n\"time\": 1443714882,\r\n\"timereceived\": 1443714882,\r\n\"details\": [\r\n{\r\n\"account\": \"\",\r\n\"address\": \"mn8Ui1zzSpSCg3b6p8Zbw2hqD1RhdjP6Wh\",\r\n\"category\": \"generate\",\r\n\"amount\": 50.00000000,\r\n\"vout\": 0\r\n}\r\n],\r\n\"hex\": \"01000000010000000000000000000000000000000000000000000000000000000000000000ffffffff04012d0101ffffffff0100f2052a01000000232103c8d456ff17fb575601f3758a31cedb9856d5b5245a9d8d968df1e98907af02b4ac00000000\"\r\n}\r\n\r\n> createrawtransaction \"[{\\\"txid\\\":\\\"d6a815dca3ad60e798a653b3768fa0bd79125772063684a9f969b533fe0ae9ef\\\",\\\"vout\\\":0}]\" \"{\\\"mugZmmNY1q1PeWsszGzvMEvWWbAgGjcNuQ\\\":50}\"\r\n\r\n0100000001efe90afe33b569f9a984360672571279bda08f76b353a698e760ada3dc15a8d60000000000ffffffff0100f2052a010000001976a9149b631eb819687a6c1652e4664cef525e4ef8d2b788ac00000000\r\n\r\n> signrawtransaction 0100000001efe90afe33b569f9a984360672571279bda08f76b353a698e760ada3dc15a8d60000000000ffffffff0100f2052a010000001976a9149b631eb819687a6c1652e4664cef525e4ef8d2b788ac00000000\r\n\r\n{\r\n\"hex\": \"0100000001efe90afe33b569f9a984360672571279bda08f76b353a698e760ada3dc15a8d6000000004847304402204fd12f1e6f7fb96157ebd20b3165ae69daad06e650362115fe4c705dac139f35022052089d59a243ef0bfb017a32ab9ed9bc44449dad65c0da4e76c7f1689cf94d2201ffffffff0100f2052a010000001976a9149b631eb819687a6c1652e4664cef525e4ef8d2b788ac00000000\",\r\n\"complete\": true\r\n}\r\n```",
      "created_at" : "2015-10-01T16:34:30Z",
      "html_url" : "https://github.com/bitcoin/bitcoin/issues/2267#issuecomment-144780979",
      "id" : 144780979,
      "issue_url" : "https://api.github.com/repos/bitcoin/bitcoin/issues/2267",
      "updated_at" : "2015-10-01T16:34:30Z",
      "url" : "https://api.github.com/repos/bitcoin/bitcoin/issues/comments/144780979",
      "user" : {
         "avatar_url" : "https://avatars.githubusercontent.com/u/6848764?v=3",
         "events_url" : "https://api.github.com/users/paveljanik/events{/privacy}",
         "followers_url" : "https://api.github.com/users/paveljanik/followers",
         "following_url" : "https://api.github.com/users/paveljanik/following{/other_user}",
         "gists_url" : "https://api.github.com/users/paveljanik/gists{/gist_id}",
         "gravatar_id" : "",
         "html_url" : "https://github.com/paveljanik",
         "id" : 6848764,
         "login" : "paveljanik",
         "organizations_url" : "https://api.github.com/users/paveljanik/orgs",
         "received_events_url" : "https://api.github.com/users/paveljanik/received_events",
         "repos_url" : "https://api.github.com/users/paveljanik/repos",
         "site_admin" : false,
         "starred_url" : "https://api.github.com/users/paveljanik/starred{/owner}{/repo}",
         "subscriptions_url" : "https://api.github.com/users/paveljanik/subscriptions",
         "type" : "User",
         "url" : "https://api.github.com/users/paveljanik"
      }
   }
]
