[
   {
      "body" : "Works here on regtest:\r\n\r\n```\r\n> listunspent\r\n\r\n[\r\n...\r\n{\r\n\"txid\": \"dbea6d5785707b97a9ceb8943502e41925e9f765740bd0df1961e93a1652d083\",\r\n\"vout\": 0,\r\n\"address\": \"mkgUgzujPDmYRbhFZhc8Tz1GFtd7ihhYFV\",\r\n\"scriptPubKey\": \"21027d9d4cb50d15b22d0e739bfaed87509f634bdfb1d010f25ea4c7cbca489f3dcbac\",\r\n\"amount\": 50.00000000,\r\n\"confirmations\": 104,\r\n\"spendable\": true\r\n}\r\n]\r\n\r\n> createrawtransaction \"[{\\\"txid\\\":\\\"dbea6d5785707b97a9ceb8943502e41925e9f765740bd0df1961e93a1652d083\\\",\\\"vout\\\":0}]\" \"{\\\"mugZmmNY1q1PeWsszGzvMEvWWbAgGjcNuQ\\\":40}\"\r\n\r\n010000000183d052163ae96119dfd00b7465f7e92519e4023594b8cea9977b7085576deadb0000000000ffffffff0100286bee000000001976a9149b631eb819687a6c1652e4664cef525e4ef8d2b788ac00000000\r\n\r\n> decoderawtransaction 010000000183d052163ae96119dfd00b7465f7e92519e4023594b8cea9977b7085576deadb0000000000ffffffff0100286bee000000001976a9149b631eb819687a6c1652e4664cef525e4ef8d2b788ac00000000\r\n\r\n{\r\n\"txid\": \"0fddff76b31deb4b27ebee244036bbc44a31fdfbde9516e8745d0ad1ec4eba59\",\r\n\"version\": 1,\r\n\"locktime\": 0,\r\n\"vin\": [\r\n{\r\n\"txid\": \"dbea6d5785707b97a9ceb8943502e41925e9f765740bd0df1961e93a1652d083\",\r\n\"vout\": 0,\r\n\"scriptSig\": {\r\n\"asm\": \"\",\r\n\"hex\": \"\"\r\n},\r\n\"sequence\": 4294967295\r\n}\r\n],\r\n\"vout\": [\r\n{\r\n\"value\": 40.00000000,\r\n\"n\": 0,\r\n\"scriptPubKey\": {\r\n\"asm\": \"OP_DUP OP_HASH160 9b631eb819687a6c1652e4664cef525e4ef8d2b7 OP_EQUALVERIFY OP_CHECKSIG\",\r\n\"hex\": \"76a9149b631eb819687a6c1652e4664cef525e4ef8d2b788ac\",\r\n\"reqSigs\": 1,\r\n\"type\": \"pubkeyhash\",\r\n\"addresses\": [\r\n\"mugZmmNY1q1PeWsszGzvMEvWWbAgGjcNuQ\"\r\n]\r\n}\r\n}\r\n]\r\n}\r\n\r\n> signrawtransaction 010000000183d052163ae96119dfd00b7465f7e92519e4023594b8cea9977b7085576deadb0000000000ffffffff0100286bee000000001976a9149b631eb819687a6c1652e4664cef525e4ef8d2b788ac00000000\r\n\r\n{\r\n\"hex\": \"010000000183d052163ae96119dfd00b7465f7e92519e4023594b8cea9977b7085576deadb0000000049483045022100fdafbd08e99c345f42faf038cae5eef321fd43378e2159f3999958210602e06102201950ffe4e5dd70d655262fe1d7c76ff92e5154ac2e9595c651b422e495cdfa8001ffffffff0100286bee000000001976a9149b631eb819687a6c1652e4664cef525e4ef8d2b788ac00000000\",\r\n\"complete\": true\r\n}\r\n\r\n```\r\n",
      "created_at" : "2015-10-01T11:54:45Z",
      "html_url" : "https://github.com/bitcoin/bitcoin/issues/2267#issuecomment-144705976",
      "id" : 144705976,
      "issue_url" : "https://api.github.com/repos/bitcoin/bitcoin/issues/2267",
      "updated_at" : "2015-10-01T11:54:45Z",
      "url" : "https://api.github.com/repos/bitcoin/bitcoin/issues/comments/144705976",
      "user" : {
         "avatar_url" : "https://avatars.githubusercontent.com/u/6848764?v=3",
         "events_url" : "https://api.github.com/users/paveljanik/events{/privacy}",
         "followers_url" : "https://api.github.com/users/paveljanik/followers",
         "following_url" : "https://api.github.com/users/paveljanik/following{/other_user}",
         "gists_url" : "https://api.github.com/users/paveljanik/gists{/gist_id}",
         "gravatar_id" : "",
         "html_url" : "https://github.com/paveljanik",
         "id" : 6848764,
         "login" : "paveljanik",
         "organizations_url" : "https://api.github.com/users/paveljanik/orgs",
         "received_events_url" : "https://api.github.com/users/paveljanik/received_events",
         "repos_url" : "https://api.github.com/users/paveljanik/repos",
         "site_admin" : false,
         "starred_url" : "https://api.github.com/users/paveljanik/starred{/owner}{/repo}",
         "subscriptions_url" : "https://api.github.com/users/paveljanik/subscriptions",
         "type" : "User",
         "url" : "https://api.github.com/users/paveljanik"
      }
   },
   {
      "body" : "@paveljanik Thanks for testing. Although I think @gavinandresen means a different thing: you're signing a transaction that spends a coinbase transaction, not signing a coinbase transaction",
      "created_at" : "2015-10-01T15:44:19Z",
      "html_url" : "https://github.com/bitcoin/bitcoin/issues/2267#issuecomment-144766902",
      "id" : 144766902,
      "issue_url" : "https://api.github.com/repos/bitcoin/bitcoin/issues/2267",
      "updated_at" : "2015-10-01T15:44:19Z",
      "url" : "https://api.github.com/repos/bitcoin/bitcoin/issues/comments/144766902",
      "user" : {
         "avatar_url" : "https://avatars.githubusercontent.com/u/126646?v=3",
         "events_url" : "https://api.github.com/users/laanwj/events{/privacy}",
         "followers_url" : "https://api.github.com/users/laanwj/followers",
         "following_url" : "https://api.github.com/users/laanwj/following{/other_user}",
         "gists_url" : "https://api.github.com/users/laanwj/gists{/gist_id}",
         "gravatar_id" : "",
         "html_url" : "https://github.com/laanwj",
         "id" : 126646,
         "login" : "laanwj",
         "organizations_url" : "https://api.github.com/users/laanwj/orgs",
         "received_events_url" : "https://api.github.com/users/laanwj/received_events",
         "repos_url" : "https://api.github.com/users/laanwj/repos",
         "site_admin" : false,
         "starred_url" : "https://api.github.com/users/laanwj/starred{/owner}{/repo}",
         "subscriptions_url" : "https://api.github.com/users/laanwj/subscriptions",
         "type" : "User",
         "url" : "https://api.github.com/users/laanwj"
      }
   }
]
