{
   "assignee" : null,
   "assignees" : [],
   "body" : "bitcoin core v0.13.0.0 decodes the following tx as follows\r\ntx hash: c49b3c445c89d832289de0fd3b0281efdcce418333dacd028061e8de9f0a6f10\r\n\r\n```\r\ndecoderawtransaction 0100000001dbb3197449c0ede76729d75fdf845d1b4e367770211a0b30305e17ba7fa57f41010000006b483045022100b6db6e71652d2dcaa818c24d7dcba0ddca9a9a09f45a5a8b175784dde494d78602204e4b1042564da546b032f09eb02d2211f9e8fa3aeb3c987a28962a0a7a6d312b0121037a380cf3628417c275e9010eea2d7b2a05337d38af25054675e3441a43aa4565ffffffff01a0bb0d0000000000fd1901514c78ffffffffffffffffffffffffffffffffffffffffffffffffffffffffffffffffffffffffffffffffffffffffffffffffffffffffffffffffffffffffffffffffffffffffffffffffffffffffffffffffffffffffffffffffffffffffffffffffffffffffffffffffffffffffffffffffffffffffffffffff4c78ffffffffffffffffffffffffffffffffffffffffffffffffffffffffffffffffffffffffffffffffffffffffffffffffffffffffffffffffffffffffffffffffffffffffffffffffffffffffffffffffffffffffffffffffffffffffffffffffffffffffffffffffffffffffffffffffffffffffffffffff2102323c909b017748294c1d1fb82648b2c2905cd941d9a863e036b3157e8aa85dd353ae00000000\r\n\r\n{\r\n  \"txid\": \"c49b3c445c89d832289de0fd3b0281efdcce418333dacd028061e8de9f0a6f10\",\r\n  \"hash\": \"c49b3c445c89d832289de0fd3b0281efdcce418333dacd028061e8de9f0a6f10\",\r\n  \"size\": 450,\r\n  \"vsize\": 450,\r\n  \"version\": 1,\r\n  \"locktime\": 0,\r\n  \"vin\": [\r\n    {\r\n      \"txid\": \"417fa57fba175e30300b1a217077364e1b5d84df5fd72967e7edc0497419b3db\",\r\n      \"vout\": 1,\r\n      \"scriptSig\": {\r\n        \"asm\": \"3045022100b6db6e71652d2dcaa818c24d7dcba0ddca9a9a09f45a5a8b175784dde494d78602204e4b1042564da546b032f09eb02d2211f9e8fa3aeb3c987a28962a0a7a6d312b[ALL] 037a380cf3628417c275e9010eea2d7b2a05337d38af25054675e3441a43aa4565\",\r\n        \"hex\": \"483045022100b6db6e71652d2dcaa818c24d7dcba0ddca9a9a09f45a5a8b175784dde494d78602204e4b1042564da546b032f09eb02d2211f9e8fa3aeb3c987a28962a0a7a6d312b0121037a380cf3628417c275e9010eea2d7b2a05337d38af25054675e3441a43aa4565\"\r\n      },\r\n      \"sequence\": 4294967295\r\n    }\r\n  ],\r\n  \"vout\": [\r\n    {\r\n      \"value\": 0.00900000,\r\n      \"n\": 0,\r\n      \"scriptPubKey\": {\r\n        \"asm\": \"1 ffffffffffffffffffffffffffffffffffffffffffffffffffffffffffffffffffffffffffffffffffffffffffffffffffffffffffffffffffffffffffffffffffffffffffffffffffffffffffffffffffffffffffffffffffffffffffffffffffffffffffffffffffffffffffffffffffffffffffffffff ffffffffffffffffffffffffffffffffffffffffffffffffffffffffffffffffffffffffffffffffffffffffffffffffffffffffffffffffffffffffffffffffffffffffffffffffffffffffffffffffffffffffffffffffffffffffffffffffffffffffffffffffffffffffffffffffffffffffffffffff 02323c909b017748294c1d1fb82648b2c2905cd941d9a863e036b3157e8aa85dd3 3 OP_CHECKMULTISIG\",\r\n        \"hex\": \"514c78ffffffffffffffffffffffffffffffffffffffffffffffffffffffffffffffffffffffffffffffffffffffffffffffffffffffffffffffffffffffffffffffffffffffffffffffffffffffffffffffffffffffffffffffffffffffffffffffffffffffffffffffffffffffffffffffffffffffffffffffff4c78ffffffffffffffffffffffffffffffffffffffffffffffffffffffffffffffffffffffffffffffffffffffffffffffffffffffffffffffffffffffffffffffffffffffffffffffffffffffffffffffffffffffffffffffffffffffffffffffffffffffffffffffffffffffffffffffffffffffffffffffff2102323c909b017748294c1d1fb82648b2c2905cd941d9a863e036b3157e8aa85dd353ae\",\r\n        \"type\": \"nonstandard\"\r\n      }\r\n    }\r\n  ]\r\n}\r\n\r\ndecodescript 514c78ffffffffffffffffffffffffffffffffffffffffffffffffffffffffffffffffffffffffffffffffffffffffffffffffffffffffffffffffffffffffffffffffffffffffffffffffffffffffffffffffffffffffffffffffffffffffffffffffffffffffffffffffffffffffffffffffffffffffffffffff4c78ffffffffffffffffffffffffffffffffffffffffffffffffffffffffffffffffffffffffffffffffffffffffffffffffffffffffffffffffffffffffffffffffffffffffffffffffffffffffffffffffffffffffffffffffffffffffffffffffffffffffffffffffffffffffffffffffffffffffffffffff2102323c909b017748294c1d1fb82648b2c2905cd941d9a863e036b3157e8aa85dd353ae\r\n\r\n{\r\n  \"asm\": \"1 ffffffffffffffffffffffffffffffffffffffffffffffffffffffffffffffffffffffffffffffffffffffffffffffffffffffffffffffffffffffffffffffffffffffffffffffffffffffffffffffffffffffffffffffffffffffffffffffffffffffffffffffffffffffffffffffffffffffffffffffff ffffffffffffffffffffffffffffffffffffffffffffffffffffffffffffffffffffffffffffffffffffffffffffffffffffffffffffffffffffffffffffffffffffffffffffffffffffffffffffffffffffffffffffffffffffffffffffffffffffffffffffffffffffffffffffffffffffffffffffffff 02323c909b017748294c1d1fb82648b2c2905cd941d9a863e036b3157e8aa85dd3 3 OP_CHECKMULTISIG\",\r\n  \"type\": \"nonstandard\",\r\n  \"p2sh\": \"3Pr9qaUxaHFZbbdojAZFozH34dEqjpe4dU\"\r\n}\r\n```\r\nbut decoding it manually we have:\r\n\r\n```\r\n51\tOP_1\r\n4c\tPush data\r\n78\tPush 120 decimal  = 78 hex bytes\r\n    ffffffffffffffffffffffffffffffffffffffffffffffffffffffffffffffffffffffffffffffffffffffffffffffffffffffffffffffffffffffffffffffffffffffffffffffffffffffffffffffffffffffffffffffffffffffffffffffffffffffffffffffffffffffffffffffffffffffffffffffff\r\n4c\tPush data\r\n78\tPush 120 decimal  = 78 hex bytes\r\n    ffffffffffffffffffffffffffffffffffffffffffffffffffffffffffffffffffffffffffffffffffffffffffffffffffffffffffffffffffffffffffffffffffffffffffffffffffffffffffffffffffffffffffffffffffffffffffffffffffffffffffffffffffffffffffffffffffffffffffffffff\r\n21 \tPush 33 dec = 21 hex: \r\n02323c909b017748294c1d1fb82648b2c2905cd941d9a863e036b3157e8aa85dd3\r\n53 \tOP_3\r\nae\tOP_CHECKMULTISIG\r\n```\r\n\r\n`02323c909b017748294c1d1fb82648b2c2905cd941d9a863e036b3157e8aa85dd3` translates to: `1AqLAdfMzfVpdCAtk4rMCUCK6vvNUkGBdm`\r\n\r\nIt seems like core does not see the 33 byte compressed key as valid, or is it not recognizing 0x21? opcode (quick search of 0x21 in script.h comes up empty)",
   "closed_at" : null,
   "closed_by" : null,
   "comments" : 5,
   "comments_url" : "https://api.github.com/repos/bitcoin/bitcoin/issues/8770/comments",
   "created_at" : "2016-09-21T00:07:25Z",
   "events_url" : "https://api.github.com/repos/bitcoin/bitcoin/issues/8770/events",
   "html_url" : "https://github.com/bitcoin/bitcoin/issues/8770",
   "id" : 178212367,
   "labels" : [],
   "labels_url" : "https://api.github.com/repos/bitcoin/bitcoin/issues/8770/labels{/name}",
   "locked" : false,
   "milestone" : null,
   "number" : 8770,
   "repository_url" : "https://api.github.com/repos/bitcoin/bitcoin",
   "state" : "open",
   "title" : "Script decode not decoding 0x21",
   "updated_at" : "2016-09-21T05:01:23Z",
   "url" : "https://api.github.com/repos/bitcoin/bitcoin/issues/8770",
   "user" : {
      "avatar_url" : "https://avatars.githubusercontent.com/u/4933679?v=3",
      "events_url" : "https://api.github.com/users/0xfff/events{/privacy}",
      "followers_url" : "https://api.github.com/users/0xfff/followers",
      "following_url" : "https://api.github.com/users/0xfff/following{/other_user}",
      "gists_url" : "https://api.github.com/users/0xfff/gists{/gist_id}",
      "gravatar_id" : "",
      "html_url" : "https://github.com/0xfff",
      "id" : 4933679,
      "login" : "0xfff",
      "organizations_url" : "https://api.github.com/users/0xfff/orgs",
      "received_events_url" : "https://api.github.com/users/0xfff/received_events",
      "repos_url" : "https://api.github.com/users/0xfff/repos",
      "site_admin" : false,
      "starred_url" : "https://api.github.com/users/0xfff/starred{/owner}{/repo}",
      "subscriptions_url" : "https://api.github.com/users/0xfff/subscriptions",
      "type" : "User",
      "url" : "https://api.github.com/users/0xfff"
   }
}
