{
   "assignee" : null,
   "assignees" : [],
   "author_association" : "NONE",
   "body" : "bitcoin core v0.13.0.0 decodes the following tx as follows\ntx hash: c49b3c445c89d832289de0fd3b0281efdcce418333dacd028061e8de9f0a6f10\n\n```\ndecoderawtransaction 0100000001dbb3197449c0ede76729d75fdf845d1b4e367770211a0b30305e17ba7fa57f41010000006b483045022100b6db6e71652d2dcaa818c24d7dcba0ddca9a9a09f45a5a8b175784dde494d78602204e4b1042564da546b032f09eb02d2211f9e8fa3aeb3c987a28962a0a7a6d312b0121037a380cf3628417c275e9010eea2d7b2a05337d38af25054675e3441a43aa4565ffffffff01a0bb0d0000000000fd1901514c78ffffffffffffffffffffffffffffffffffffffffffffffffffffffffffffffffffffffffffffffffffffffffffffffffffffffffffffffffffffffffffffffffffffffffffffffffffffffffffffffffffffffffffffffffffffffffffffffffffffffffffffffffffffffffffffffffffffffffffffffff4c78ffffffffffffffffffffffffffffffffffffffffffffffffffffffffffffffffffffffffffffffffffffffffffffffffffffffffffffffffffffffffffffffffffffffffffffffffffffffffffffffffffffffffffffffffffffffffffffffffffffffffffffffffffffffffffffffffffffffffffffffff2102323c909b017748294c1d1fb82648b2c2905cd941d9a863e036b3157e8aa85dd353ae00000000\n\n{\n  \"txid\": \"c49b3c445c89d832289de0fd3b0281efdcce418333dacd028061e8de9f0a6f10\",\n  \"hash\": \"c49b3c445c89d832289de0fd3b0281efdcce418333dacd028061e8de9f0a6f10\",\n  \"size\": 450,\n  \"vsize\": 450,\n  \"version\": 1,\n  \"locktime\": 0,\n  \"vin\": [\n    {\n      \"txid\": \"417fa57fba175e30300b1a217077364e1b5d84df5fd72967e7edc0497419b3db\",\n      \"vout\": 1,\n      \"scriptSig\": {\n        \"asm\": \"3045022100b6db6e71652d2dcaa818c24d7dcba0ddca9a9a09f45a5a8b175784dde494d78602204e4b1042564da546b032f09eb02d2211f9e8fa3aeb3c987a28962a0a7a6d312b[ALL] 037a380cf3628417c275e9010eea2d7b2a05337d38af25054675e3441a43aa4565\",\n        \"hex\": \"483045022100b6db6e71652d2dcaa818c24d7dcba0ddca9a9a09f45a5a8b175784dde494d78602204e4b1042564da546b032f09eb02d2211f9e8fa3aeb3c987a28962a0a7a6d312b0121037a380cf3628417c275e9010eea2d7b2a05337d38af25054675e3441a43aa4565\"\n      },\n      \"sequence\": 4294967295\n    }\n  ],\n  \"vout\": [\n    {\n      \"value\": 0.00900000,\n      \"n\": 0,\n      \"scriptPubKey\": {\n        \"asm\": \"1 ffffffffffffffffffffffffffffffffffffffffffffffffffffffffffffffffffffffffffffffffffffffffffffffffffffffffffffffffffffffffffffffffffffffffffffffffffffffffffffffffffffffffffffffffffffffffffffffffffffffffffffffffffffffffffffffffffffffffffffffff ffffffffffffffffffffffffffffffffffffffffffffffffffffffffffffffffffffffffffffffffffffffffffffffffffffffffffffffffffffffffffffffffffffffffffffffffffffffffffffffffffffffffffffffffffffffffffffffffffffffffffffffffffffffffffffffffffffffffffffffff 02323c909b017748294c1d1fb82648b2c2905cd941d9a863e036b3157e8aa85dd3 3 OP_CHECKMULTISIG\",\n        \"hex\": \"514c78ffffffffffffffffffffffffffffffffffffffffffffffffffffffffffffffffffffffffffffffffffffffffffffffffffffffffffffffffffffffffffffffffffffffffffffffffffffffffffffffffffffffffffffffffffffffffffffffffffffffffffffffffffffffffffffffffffffffffffffffff4c78ffffffffffffffffffffffffffffffffffffffffffffffffffffffffffffffffffffffffffffffffffffffffffffffffffffffffffffffffffffffffffffffffffffffffffffffffffffffffffffffffffffffffffffffffffffffffffffffffffffffffffffffffffffffffffffffffffffffffffffffff2102323c909b017748294c1d1fb82648b2c2905cd941d9a863e036b3157e8aa85dd353ae\",\n        \"type\": \"nonstandard\"\n      }\n    }\n  ]\n}\n\ndecodescript 514c78ffffffffffffffffffffffffffffffffffffffffffffffffffffffffffffffffffffffffffffffffffffffffffffffffffffffffffffffffffffffffffffffffffffffffffffffffffffffffffffffffffffffffffffffffffffffffffffffffffffffffffffffffffffffffffffffffffffffffffffffff4c78ffffffffffffffffffffffffffffffffffffffffffffffffffffffffffffffffffffffffffffffffffffffffffffffffffffffffffffffffffffffffffffffffffffffffffffffffffffffffffffffffffffffffffffffffffffffffffffffffffffffffffffffffffffffffffffffffffffffffffffffff2102323c909b017748294c1d1fb82648b2c2905cd941d9a863e036b3157e8aa85dd353ae\n\n{\n  \"asm\": \"1 ffffffffffffffffffffffffffffffffffffffffffffffffffffffffffffffffffffffffffffffffffffffffffffffffffffffffffffffffffffffffffffffffffffffffffffffffffffffffffffffffffffffffffffffffffffffffffffffffffffffffffffffffffffffffffffffffffffffffffffffff ffffffffffffffffffffffffffffffffffffffffffffffffffffffffffffffffffffffffffffffffffffffffffffffffffffffffffffffffffffffffffffffffffffffffffffffffffffffffffffffffffffffffffffffffffffffffffffffffffffffffffffffffffffffffffffffffffffffffffffffff 02323c909b017748294c1d1fb82648b2c2905cd941d9a863e036b3157e8aa85dd3 3 OP_CHECKMULTISIG\",\n  \"type\": \"nonstandard\",\n  \"p2sh\": \"3Pr9qaUxaHFZbbdojAZFozH34dEqjpe4dU\"\n}\n```\n\nbut decoding it manually we have:\n\n```\n51  OP_1\n4c  Push data\n78  Push 120 decimal  = 78 hex bytes\n    ffffffffffffffffffffffffffffffffffffffffffffffffffffffffffffffffffffffffffffffffffffffffffffffffffffffffffffffffffffffffffffffffffffffffffffffffffffffffffffffffffffffffffffffffffffffffffffffffffffffffffffffffffffffffffffffffffffffffffffffff\n4c  Push data\n78  Push 120 decimal  = 78 hex bytes\n    ffffffffffffffffffffffffffffffffffffffffffffffffffffffffffffffffffffffffffffffffffffffffffffffffffffffffffffffffffffffffffffffffffffffffffffffffffffffffffffffffffffffffffffffffffffffffffffffffffffffffffffffffffffffffffffffffffffffffffffffff\n21  Push 33 dec = 21 hex: \n02323c909b017748294c1d1fb82648b2c2905cd941d9a863e036b3157e8aa85dd3\n53  OP_3\nae  OP_CHECKMULTISIG\n```\n\n`02323c909b017748294c1d1fb82648b2c2905cd941d9a863e036b3157e8aa85dd3` translates to: `1AqLAdfMzfVpdCAtk4rMCUCK6vvNUkGBdm`\n\nIt seems like core does not see the 33 byte compressed key as valid, or is it not recognizing 0x21? opcode (quick search of 0x21 in script.h comes up empty)\n",
   "closed_at" : "2016-12-08T11:49:02Z",
   "closed_by" : {
      "avatar_url" : "https://avatars0.githubusercontent.com/u/126646?v=4",
      "events_url" : "https://api.github.com/users/laanwj/events{/privacy}",
      "followers_url" : "https://api.github.com/users/laanwj/followers",
      "following_url" : "https://api.github.com/users/laanwj/following{/other_user}",
      "gists_url" : "https://api.github.com/users/laanwj/gists{/gist_id}",
      "gravatar_id" : "",
      "html_url" : "https://github.com/laanwj",
      "id" : 126646,
      "login" : "laanwj",
      "node_id" : "MDQ6VXNlcjEyNjY0Ng==",
      "organizations_url" : "https://api.github.com/users/laanwj/orgs",
      "received_events_url" : "https://api.github.com/users/laanwj/received_events",
      "repos_url" : "https://api.github.com/users/laanwj/repos",
      "site_admin" : false,
      "starred_url" : "https://api.github.com/users/laanwj/starred{/owner}{/repo}",
      "subscriptions_url" : "https://api.github.com/users/laanwj/subscriptions",
      "type" : "User",
      "url" : "https://api.github.com/users/laanwj"
   },
   "comments" : 6,
   "comments_url" : "https://api.github.com/repos/bitcoin/bitcoin/issues/8770/comments",
   "created_at" : "2016-09-21T00:07:25Z",
   "events_url" : "https://api.github.com/repos/bitcoin/bitcoin/issues/8770/events",
   "html_url" : "https://github.com/bitcoin/bitcoin/issues/8770",
   "id" : 178212367,
   "labels" : [
      {
         "color" : "0052cc",
         "default" : false,
         "id" : 98279177,
         "name" : "RPC/REST/ZMQ",
         "node_id" : "MDU6TGFiZWw5ODI3OTE3Nw==",
         "url" : "https://api.github.com/repos/bitcoin/bitcoin/labels/RPC/REST/ZMQ"
      }
   ],
   "labels_url" : "https://api.github.com/repos/bitcoin/bitcoin/issues/8770/labels{/name}",
   "locked" : false,
   "milestone" : null,
   "node_id" : "MDU6SXNzdWUxNzgyMTIzNjc=",
   "number" : 8770,
   "repository_url" : "https://api.github.com/repos/bitcoin/bitcoin",
   "state" : "closed",
   "title" : "Script decode not decoding 0x21",
   "updated_at" : "2016-12-08T11:49:02Z",
   "url" : "https://api.github.com/repos/bitcoin/bitcoin/issues/8770",
   "user" : {
      "avatar_url" : "https://avatars2.githubusercontent.com/u/4933679?v=4",
      "events_url" : "https://api.github.com/users/0xfff/events{/privacy}",
      "followers_url" : "https://api.github.com/users/0xfff/followers",
      "following_url" : "https://api.github.com/users/0xfff/following{/other_user}",
      "gists_url" : "https://api.github.com/users/0xfff/gists{/gist_id}",
      "gravatar_id" : "",
      "html_url" : "https://github.com/0xfff",
      "id" : 4933679,
      "login" : "0xfff",
      "node_id" : "MDQ6VXNlcjQ5MzM2Nzk=",
      "organizations_url" : "https://api.github.com/users/0xfff/orgs",
      "received_events_url" : "https://api.github.com/users/0xfff/received_events",
      "repos_url" : "https://api.github.com/users/0xfff/repos",
      "site_admin" : false,
      "starred_url" : "https://api.github.com/users/0xfff/starred{/owner}{/repo}",
      "subscriptions_url" : "https://api.github.com/users/0xfff/subscriptions",
      "type" : "User",
      "url" : "https://api.github.com/users/0xfff"
   }
}
