[
   {
      "author_association" : "NONE",
      "body" : "and this is the transaction info I referred to:\r\n> root@peter-btc-node:~/workspace# bitcoin-cli -regtest getrawtransaction 8e191e86fcebcc005f7d7f99d57927890e199e5e5f1f6e7ef479c63b3f1d70fa 1\r\n{\r\n  \"txid\": \"8e191e86fcebcc005f7d7f99d57927890e199e5e5f1f6e7ef479c63b3f1d70fa\",\r\n  \"hash\": \"9510cf56d299b47aca0fbb42e9b1f99fa9f77348cb6c1ecf0834469c40d45b6a\",\r\n  \"version\": 2,\r\n  \"size\": 249,\r\n  \"vsize\": 168,\r\n  \"weight\": 669,\r\n  \"locktime\": 103,\r\n  \"vin\": [\r\n    {\r\n      \"txid\": \"a73cad323f42caac6eb72288c2d2ef3ec60a9d0cd7297d98f0047d755471d438\",\r\n      \"vout\": 1,\r\n      \"scriptSig\": {\r\n        \"asm\": \"001494501ebf9af00d3dda90ddabed43c43e94dda5bf\",\r\n        \"hex\": \"16001494501ebf9af00d3dda90ddabed43c43e94dda5bf\"\r\n      },\r\n      \"txinwitness\": [\r\n        \"3044022001911ada127dc84b41eba36b3007918956f1fae49b1ec42f398c3eeb950a9881022076f02e15a091b9a1cbfc5e21ae5c16f1f8dda145250088864a305a4c60745a0001\",\r\n        \"03d4f69cb78cad2c6ef9eb3e10cf67baa7992be2a4fd5fe0708e34a716ac5dbca1\"\r\n      ],\r\n      \"sequence\": 4294967294\r\n    }\r\n  ],\r\n  \"vout\": [\r\n    {\r\n      \"value\": 4.78996640,\r\n      \"n\": 0,\r\n      \"scriptPubKey\": {\r\n        \"asm\": \"OP_HASH160 a73d80bb3bd591e6ccb991972951413c1ffb5486 OP_EQUAL\",\r\n        \"hex\": \"a914a73d80bb3bd591e6ccb991972951413c1ffb548687\",\r\n        \"reqSigs\": 1,\r\n        \"type\": \"scripthash\",\r\n        \"addresses\": [\r\n          \"2N8VWWcWZ3AEkXApwPF3CXHSNZHik2UBN9L\"\r\n        ]\r\n      }\r\n    },\r\n    {\r\n      \"value\": 0.20000000,\r\n      \"n\": 1,\r\n      \"scriptPubKey\": {\r\n        \"asm\": \"OP_DUP OP_HASH160 dd79bcd6e2f8925e6f474083a8a07017e3234cb1 OP_EQUALVERIFY OP_CHECKSIG\",\r\n        \"hex\": \"76a914dd79bcd6e2f8925e6f474083a8a07017e3234cb188ac\",\r\n        \"reqSigs\": 1,\r\n        \"type\": \"pubkeyhash\",\r\n        \"addresses\": [\r\n          \"n1i1TvqVVVPEm2nFLZ8ZvnrrpKNiuuWs4Y\"\r\n        ]\r\n      }\r\n    }\r\n  ],\r\n  \"hex\": \"0200000000010138d47154757d04f0987d29d70c9d0ac63eefd2c28822b76eacca423f32ad3ca7010000001716001494501ebf9af00d3dda90ddabed43c43e94dda5bffeffffff02a0e88c1c0000000017a914a73d80bb3bd591e6ccb991972951413c1ffb548687002d3101000000001976a914dd79bcd6e2f8925e6f474083a8a07017e3234cb188ac02473044022001911ada127dc84b41eba36b3007918956f1fae49b1ec42f398c3eeb950a9881022076f02e15a091b9a1cbfc5e21ae5c16f1f8dda145250088864a305a4c60745a00012103d4f69cb78cad2c6ef9eb3e10cf67baa7992be2a4fd5fe0708e34a716ac5dbca167000000\",\r\n  \"blockhash\": \"202052b2310246579d2ce684937236e60129849674d88fc557faf82d2b156ee0\",\r\n  \"confirmations\": 4,\r\n  \"time\": 1551836912,\r\n  \"blocktime\": 1551836912\r\n}\r\n",
      "created_at" : "2019-03-22T08:38:23Z",
      "html_url" : "https://github.com/bitcoin/bitcoin/issues/15640#issuecomment-475535876",
      "id" : 475535876,
      "issue_url" : "https://api.github.com/repos/bitcoin/bitcoin/issues/15640",
      "node_id" : "MDEyOklzc3VlQ29tbWVudDQ3NTUzNTg3Ng==",
      "updated_at" : "2019-03-22T08:38:23Z",
      "url" : "https://api.github.com/repos/bitcoin/bitcoin/issues/comments/475535876",
      "user" : {
         "avatar_url" : "https://avatars2.githubusercontent.com/u/1522513?v=4",
         "events_url" : "https://api.github.com/users/lyhistory/events{/privacy}",
         "followers_url" : "https://api.github.com/users/lyhistory/followers",
         "following_url" : "https://api.github.com/users/lyhistory/following{/other_user}",
         "gists_url" : "https://api.github.com/users/lyhistory/gists{/gist_id}",
         "gravatar_id" : "",
         "html_url" : "https://github.com/lyhistory",
         "id" : 1522513,
         "login" : "lyhistory",
         "node_id" : "MDQ6VXNlcjE1MjI1MTM=",
         "organizations_url" : "https://api.github.com/users/lyhistory/orgs",
         "received_events_url" : "https://api.github.com/users/lyhistory/received_events",
         "repos_url" : "https://api.github.com/users/lyhistory/repos",
         "site_admin" : false,
         "starred_url" : "https://api.github.com/users/lyhistory/starred{/owner}{/repo}",
         "subscriptions_url" : "https://api.github.com/users/lyhistory/subscriptions",
         "type" : "User",
         "url" : "https://api.github.com/users/lyhistory"
      }
   },
   {
      "author_association" : "NONE",
      "body" : "sorry, I just realized this is a script hash address...",
      "created_at" : "2019-03-22T08:44:40Z",
      "html_url" : "https://github.com/bitcoin/bitcoin/issues/15640#issuecomment-475537661",
      "id" : 475537661,
      "issue_url" : "https://api.github.com/repos/bitcoin/bitcoin/issues/15640",
      "node_id" : "MDEyOklzc3VlQ29tbWVudDQ3NTUzNzY2MQ==",
      "updated_at" : "2019-03-22T08:44:40Z",
      "url" : "https://api.github.com/repos/bitcoin/bitcoin/issues/comments/475537661",
      "user" : {
         "avatar_url" : "https://avatars2.githubusercontent.com/u/1522513?v=4",
         "events_url" : "https://api.github.com/users/lyhistory/events{/privacy}",
         "followers_url" : "https://api.github.com/users/lyhistory/followers",
         "following_url" : "https://api.github.com/users/lyhistory/following{/other_user}",
         "gists_url" : "https://api.github.com/users/lyhistory/gists{/gist_id}",
         "gravatar_id" : "",
         "html_url" : "https://github.com/lyhistory",
         "id" : 1522513,
         "login" : "lyhistory",
         "node_id" : "MDQ6VXNlcjE1MjI1MTM=",
         "organizations_url" : "https://api.github.com/users/lyhistory/orgs",
         "received_events_url" : "https://api.github.com/users/lyhistory/received_events",
         "repos_url" : "https://api.github.com/users/lyhistory/repos",
         "site_admin" : false,
         "starred_url" : "https://api.github.com/users/lyhistory/starred{/owner}{/repo}",
         "subscriptions_url" : "https://api.github.com/users/lyhistory/subscriptions",
         "type" : "User",
         "url" : "https://api.github.com/users/lyhistory"
      }
   }
]
