[
   {
      "author_association" : "CONTRIBUTOR",
      "body" : "ACK fa80a11c3bb995ee15d4b0b9ad64148f6332ad42\r\n\r\n<details>\r\n <summary> decoderawtransaction </summary>\r\n\r\n ```\r\n$ bitcoin-cli decoderawtransaction 020000000001015f784e93f6b843bd9ad1b34f86f0a7b034053ac5f18da5c8547aa6041ba24d3d0000000000ffffffff013905000000000000220020e3b0c44298fc1c149afbf4c8996fb92427ae41e4649b934ca495991b7852b855010000000000\r\n{\r\n  \"txid\": \"7bb2219caa58dda3fc5b262f48ee50a5cd9f7283fff9ad5e311328b7569f078f\",\r\n  \"hash\": \"3ef3c8e264f868193321223f77d773fdb770c54cae687fb6e42d596e43a98bbf\",\r\n  \"version\": 2,\r\n  \"size\": 98,\r\n  \"vsize\": 95,\r\n  \"weight\": 380,\r\n  \"locktime\": 0,\r\n  \"vin\": [\r\n    {\r\n      \"txid\": \"3d4da21b04a67a54c8a58df1c53a0534b0a7f0864fb3d19abd43b8f6934e785f\",\r\n      \"vout\": 0,\r\n      \"scriptSig\": {\r\n        \"asm\": \"\",\r\n        \"hex\": \"\"\r\n      },\r\n      \"txinwitness\": [\r\n        \"\"\r\n      ],\r\n      \"sequence\": 4294967295\r\n    }\r\n  ],\r\n  \"vout\": [\r\n    {\r\n      \"value\": 0.00001337,\r\n      \"n\": 0,\r\n      \"scriptPubKey\": {\r\n        \"asm\": \"0 e3b0c44298fc1c149afbf4c8996fb92427ae41e4649b934ca495991b7852b855\",\r\n        \"hex\": \"0020e3b0c44298fc1c149afbf4c8996fb92427ae41e4649b934ca495991b7852b855\",\r\n        \"reqSigs\": 1,\r\n        \"type\": \"witness_v0_scripthash\",\r\n        \"addresses\": [\r\n          \"bc1quwcvgs5clswpfxhm7nyfjmaeysn6us0yvjdexn9yjkv3k7zjhp2sfl5g83\"\r\n        ]\r\n      }\r\n    }\r\n  ]\r\n}\r\n```\r\n</details>",
      "created_at" : "2021-05-05T08:10:19Z",
      "html_url" : "https://github.com/bitcoin/bitcoin/pull/21821#issuecomment-832499472",
      "id" : 832499472,
      "issue_url" : "https://api.github.com/repos/bitcoin/bitcoin/issues/21821",
      "node_id" : "MDEyOklzc3VlQ29tbWVudDgzMjQ5OTQ3Mg==",
      "performed_via_github_app" : null,
      "updated_at" : "2021-05-05T08:10:19Z",
      "url" : "https://api.github.com/repos/bitcoin/bitcoin/issues/comments/832499472",
      "user" : {
         "avatar_url" : "https://avatars.githubusercontent.com/u/19157360?v=4",
         "events_url" : "https://api.github.com/users/0xB10C/events{/privacy}",
         "followers_url" : "https://api.github.com/users/0xB10C/followers",
         "following_url" : "https://api.github.com/users/0xB10C/following{/other_user}",
         "gists_url" : "https://api.github.com/users/0xB10C/gists{/gist_id}",
         "gravatar_id" : "",
         "html_url" : "https://github.com/0xB10C",
         "id" : 19157360,
         "login" : "0xB10C",
         "node_id" : "MDQ6VXNlcjE5MTU3MzYw",
         "organizations_url" : "https://api.github.com/users/0xB10C/orgs",
         "received_events_url" : "https://api.github.com/users/0xB10C/received_events",
         "repos_url" : "https://api.github.com/users/0xB10C/repos",
         "site_admin" : false,
         "starred_url" : "https://api.github.com/users/0xB10C/starred{/owner}{/repo}",
         "subscriptions_url" : "https://api.github.com/users/0xB10C/subscriptions",
         "type" : "User",
         "url" : "https://api.github.com/users/0xB10C"
      }
   }
]
