[
   {
      "author_association" : "CONTRIBUTOR",
      "body" : "Minor usability issue that may still be worth fixing, if its easy to fix. One simple way to address some similar cases is to take the \"first error\" we get starting from base flags and adding more flags on top until the script fails, at least for ATMP calls from eg sendrawtransaction.",
      "created_at" : "2017-12-19T16:02:48Z",
      "html_url" : "https://github.com/bitcoin/bitcoin/issues/11891#issuecomment-352802945",
      "id" : 352802945,
      "issue_url" : "https://api.github.com/repos/bitcoin/bitcoin/issues/11891",
      "updated_at" : "2017-12-19T16:02:48Z",
      "url" : "https://api.github.com/repos/bitcoin/bitcoin/issues/comments/352802945",
      "user" : {
         "avatar_url" : "https://avatars0.githubusercontent.com/u/649246?v=4",
         "events_url" : "https://api.github.com/users/TheBlueMatt/events{/privacy}",
         "followers_url" : "https://api.github.com/users/TheBlueMatt/followers",
         "following_url" : "https://api.github.com/users/TheBlueMatt/following{/other_user}",
         "gists_url" : "https://api.github.com/users/TheBlueMatt/gists{/gist_id}",
         "gravatar_id" : "",
         "html_url" : "https://github.com/TheBlueMatt",
         "id" : 649246,
         "login" : "TheBlueMatt",
         "organizations_url" : "https://api.github.com/users/TheBlueMatt/orgs",
         "received_events_url" : "https://api.github.com/users/TheBlueMatt/received_events",
         "repos_url" : "https://api.github.com/users/TheBlueMatt/repos",
         "site_admin" : false,
         "starred_url" : "https://api.github.com/users/TheBlueMatt/starred{/owner}{/repo}",
         "subscriptions_url" : "https://api.github.com/users/TheBlueMatt/subscriptions",
         "type" : "User",
         "url" : "https://api.github.com/users/TheBlueMatt"
      }
   },
   {
      "author_association" : "NONE",
      "body" : "I closed it because I noticed that other error messages are unclear too, I don't remember exactly the wording but for example I got \"unnecessary data too large\" or something like this, because an unnecessary OP_PUSHDATA was used, and I got  a \"dust\" reject message too who did not say what was the limit \"output amount should not be below xxx satoshis\", etc\r\n\r\nFlags telling what failed would be great but probably they won't be precise enough, then it's probably easier to include in the error messages what are the common mistakes/limits",
      "created_at" : "2017-12-19T16:27:55Z",
      "html_url" : "https://github.com/bitcoin/bitcoin/issues/11891#issuecomment-352811011",
      "id" : 352811011,
      "issue_url" : "https://api.github.com/repos/bitcoin/bitcoin/issues/11891",
      "updated_at" : "2017-12-19T16:46:11Z",
      "url" : "https://api.github.com/repos/bitcoin/bitcoin/issues/comments/352811011",
      "user" : {
         "avatar_url" : "https://avatars3.githubusercontent.com/u/759202?v=4",
         "events_url" : "https://api.github.com/users/Ayms/events{/privacy}",
         "followers_url" : "https://api.github.com/users/Ayms/followers",
         "following_url" : "https://api.github.com/users/Ayms/following{/other_user}",
         "gists_url" : "https://api.github.com/users/Ayms/gists{/gist_id}",
         "gravatar_id" : "",
         "html_url" : "https://github.com/Ayms",
         "id" : 759202,
         "login" : "Ayms",
         "organizations_url" : "https://api.github.com/users/Ayms/orgs",
         "received_events_url" : "https://api.github.com/users/Ayms/received_events",
         "repos_url" : "https://api.github.com/users/Ayms/repos",
         "site_admin" : false,
         "starred_url" : "https://api.github.com/users/Ayms/starred{/owner}{/repo}",
         "subscriptions_url" : "https://api.github.com/users/Ayms/subscriptions",
         "type" : "User",
         "url" : "https://api.github.com/users/Ayms"
      }
   },
   {
      "author_association" : "NONE",
      "body" : "This is coming back, please see https://github.com/Ayms/bitcoin-transactions/issues/5\r\n\r\nI am sure that the serialization for signing is correct (btw cli could display this info \"message to be signed (before hash): xxxx\")\r\n\r\nI suspect that [r,s] does not follow one of the rules of bitcoin core, that's not the canonical format, because I don't get this error and already checked, is there a link somewhere for the signatures format check?",
      "created_at" : "2017-12-21T17:54:18Z",
      "html_url" : "https://github.com/bitcoin/bitcoin/issues/11891#issuecomment-353415260",
      "id" : 353415260,
      "issue_url" : "https://api.github.com/repos/bitcoin/bitcoin/issues/11891",
      "updated_at" : "2017-12-21T17:54:18Z",
      "url" : "https://api.github.com/repos/bitcoin/bitcoin/issues/comments/353415260",
      "user" : {
         "avatar_url" : "https://avatars3.githubusercontent.com/u/759202?v=4",
         "events_url" : "https://api.github.com/users/Ayms/events{/privacy}",
         "followers_url" : "https://api.github.com/users/Ayms/followers",
         "following_url" : "https://api.github.com/users/Ayms/following{/other_user}",
         "gists_url" : "https://api.github.com/users/Ayms/gists{/gist_id}",
         "gravatar_id" : "",
         "html_url" : "https://github.com/Ayms",
         "id" : 759202,
         "login" : "Ayms",
         "organizations_url" : "https://api.github.com/users/Ayms/orgs",
         "received_events_url" : "https://api.github.com/users/Ayms/received_events",
         "repos_url" : "https://api.github.com/users/Ayms/repos",
         "site_admin" : false,
         "starred_url" : "https://api.github.com/users/Ayms/starred{/owner}{/repo}",
         "subscriptions_url" : "https://api.github.com/users/Ayms/subscriptions",
         "type" : "User",
         "url" : "https://api.github.com/users/Ayms"
      }
   },
   {
      "author_association" : "NONE",
      "body" : "Here is a step-by-step walk through on a fresh regtest network, which attempts to do the following\r\n\r\nClient version: v0.16.0\r\n\r\n* get an address for account Bob\r\n* send 10.0 BTC to Bob\r\n* get an address for Marry\r\n* create a raw transaction that sends Marry 9.99 BTC\r\n* sign the raw transaction with Bob's private key\r\n\r\nSending the raw transaction fails with \r\n\r\n64: non-mandatory-script-verify-flag (Signature must be zero for failed CHECK(MULTI)SIG operation) (code -26)\r\n\r\n```\r\n> generate 101\r\n\r\n> getaccountaddress Bob\r\n\r\n2N6hRqr3EEFxT8wzQvrKok9m7c8UebetSD3\r\n\r\n> sendtoaddress 2N6hRqr3EEFxT8wzQvrKok9m7c8UebetSD3 10.0\r\n\r\n3b6297de06455879df0f34ec4e6dc811500f73a6294ccf5a9d012bef5f6adf6b\r\n\r\n> generate 1\r\n\r\n> listaccounts\r\n\r\n{\r\n  \"\": 89.99996240,\r\n  \"Bob\": 10.00000000\r\n}\r\n\r\n> listunspent 1\r\n\r\n[\r\n  {\r\n    \"txid\": \"3b6297de06455879df0f34ec4e6dc811500f73a6294ccf5a9d012bef5f6adf6b\",\r\n    \"vout\": 0,\r\n    \"address\": \"2N5gfUJjeas3rPaB3qGE7AwFPdDHkwsygKo\",\r\n    \"redeemScript\": \"0014817dd0e02d4bf98c5c3003a710250f65fae490c7\",\r\n    \"scriptPubKey\": \"a91488712e431e27588c9af8833ce4c55771e66cf7cb87\",\r\n    \"amount\": 39.99996240,\r\n    \"confirmations\": 1,\r\n    \"spendable\": true,\r\n    \"solvable\": true,\r\n    \"safe\": true\r\n  },\r\n  {\r\n    \"txid\": \"3b6297de06455879df0f34ec4e6dc811500f73a6294ccf5a9d012bef5f6adf6b\",\r\n    \"vout\": 1,\r\n    \"address\": \"2N6hRqr3EEFxT8wzQvrKok9m7c8UebetSD3\",\r\n    \"account\": \"Bob\",\r\n    \"redeemScript\": \"0014e8f6002e2336e40c22dcdb5b80c7eeef2b5d405f\",\r\n    \"scriptPubKey\": \"a914938e5889d8de2c6d7fd78e13fd63cb96e7dc265e87\",\r\n    \"amount\": 10.00000000,\r\n    \"confirmations\": 1,\r\n    \"spendable\": true,\r\n    \"solvable\": true,\r\n    \"safe\": true\r\n  },\r\n  {\r\n    \"txid\": \"c4b779821931f31fcc9f3d795b2b6f23540013b9bdbb90325f80de818f1258e0\",\r\n    \"vout\": 0,\r\n    \"address\": \"mw9SJs5QTjusS2GXSVqanYnvydWT8stXVJ\",\r\n    \"scriptPubKey\": \"2103ea92592e87e23efe22aab49282fcc00906204d2c799b4dce82ef7ce390f47c7fac\",\r\n    \"amount\": 50.00000000,\r\n    \"confirmations\": 101,\r\n    \"spendable\": true,\r\n    \"solvable\": true,\r\n    \"safe\": true\r\n  }\r\n]\r\n\r\n> getaccountaddress Marry\r\n\r\n2MudXihor4iwz6newMoG6yU3R4eQrZ32mu1\r\n\r\n> createrawtransaction '[{\"txid\":\"3b6297de06455879df0f34ec4e6dc811500f73a6294ccf5a9d012bef5f6adf6b\",\"vout\":1}]' '{\"2MudXihor4iwz6newMoG6yU3R4eQrZ32mu1\":9.99}'\r\n\r\n02000000016bdf6a5fef2b019d5acf4c29a6730f5011c86d4eec340fdf79584506de97623b0100000000ffffffff01c0878b3b0000000017a9141a283442bd9961bfa3e572bea276505f14b8f7158700000000\r\n\r\n> dumpprivkey 2N6hRqr3EEFxT8wzQvrKok9m7c8UebetSD3\r\n\r\ncNXTN1Z7GeCSsAZVRYYuzTumkGmT5y95knzFAidaYu6bghBzsZzg\r\n\r\n> signrawtransaction '02000000016bdf6a5fef2b019d5acf4c29a6730f5011c86d4eec340fdf79584506de97623b0100000000ffffffff01c0878b3b0000000017a9141a283442bd9961bfa3e572bea276505f14b8f7158700000000' '[{\"txid\":\"3b6297de06455879df0f34ec4e6dc811500f73a6294ccf5a9d012bef5f6adf6b\",\"vout\":1, \"scriptPubKey\":\"a914938e5889d8de2c6d7fd78e13fd63cb96e7dc265e87\", \"redeemScript\":\"0014e8f6002e2336e40c22dcdb5b80c7eeef2b5d405f\"}]' '[\"cNXTN1Z7GeCSsAZVRYYuzTumkGmT5y95knzFAidaYu6bghBzsZzg\"]'\r\n\r\n{\r\n  \"hex\": \"020000000001016bdf6a5fef2b019d5acf4c29a6730f5011c86d4eec340fdf79584506de97623b0100000017160014e8f6002e2336e40c22dcdb5b80c7eeef2b5d405fffffffff01c0878b3b0000000017a9141a283442bd9961bfa3e572bea276505f14b8f7158702473044022069c41acf0c377763ca48bcac20bcb0956a9320b9e5a404a5847816ba1a13dd69022023a75d6b5da3cb82efa050d2f64ea4b46ba83b7dde66cf6aebf1845a7f8173d20121029336bea825e6b65a732bc1e2588ab4b7364b74a42ce2318ebea3bba44aa200d100000000\",\r\n  \"complete\": true\r\n}\r\n\r\n> sendrawtransaction 020000000001016bdf6a5fef2b019d5acf4c29a6730f5011c86d4eec340fdf79584506de97623b0100000017160014e8f6002e2336e40c22dcdb5b80c7eeef2b5d405fffffffff01c0878b3b0000000017a9141a283442bd9961bfa3e572bea276505f14b8f7158702473044022069c41acf0c377763ca48bcac20bcb0956a9320b9e5a404a5847816ba1a13dd69022023a75d6b5da3cb82efa050d2f64ea4b46ba83b7dde66cf6aebf1845a7f8173d20121029336bea825e6b65a732bc1e2588ab4b7364b74a42ce2318ebea3bba44aa200d100000000\r\n\r\n64: non-mandatory-script-verify-flag (Signature must be zero for failed CHECK(MULTI)SIG operation)\r\n```",
      "created_at" : "2018-05-16T13:30:11Z",
      "html_url" : "https://github.com/bitcoin/bitcoin/issues/11891#issuecomment-389518937",
      "id" : 389518937,
      "issue_url" : "https://api.github.com/repos/bitcoin/bitcoin/issues/11891",
      "node_id" : "MDEyOklzc3VlQ29tbWVudDM4OTUxODkzNw==",
      "updated_at" : "2018-05-16T14:06:57Z",
      "url" : "https://api.github.com/repos/bitcoin/bitcoin/issues/comments/389518937",
      "user" : {
         "avatar_url" : "https://avatars1.githubusercontent.com/u/244946?v=4",
         "events_url" : "https://api.github.com/users/tdiesler/events{/privacy}",
         "followers_url" : "https://api.github.com/users/tdiesler/followers",
         "following_url" : "https://api.github.com/users/tdiesler/following{/other_user}",
         "gists_url" : "https://api.github.com/users/tdiesler/gists{/gist_id}",
         "gravatar_id" : "",
         "html_url" : "https://github.com/tdiesler",
         "id" : 244946,
         "login" : "tdiesler",
         "node_id" : "MDQ6VXNlcjI0NDk0Ng==",
         "organizations_url" : "https://api.github.com/users/tdiesler/orgs",
         "received_events_url" : "https://api.github.com/users/tdiesler/received_events",
         "repos_url" : "https://api.github.com/users/tdiesler/repos",
         "site_admin" : false,
         "starred_url" : "https://api.github.com/users/tdiesler/starred{/owner}{/repo}",
         "subscriptions_url" : "https://api.github.com/users/tdiesler/subscriptions",
         "type" : "User",
         "url" : "https://api.github.com/users/tdiesler"
      }
   },
   {
      "author_association" : "NONE",
      "body" : "@tdiesler Do you fixed it ?",
      "created_at" : "2018-07-20T09:04:30Z",
      "html_url" : "https://github.com/bitcoin/bitcoin/issues/11891#issuecomment-406537586",
      "id" : 406537586,
      "issue_url" : "https://api.github.com/repos/bitcoin/bitcoin/issues/11891",
      "node_id" : "MDEyOklzc3VlQ29tbWVudDQwNjUzNzU4Ng==",
      "updated_at" : "2018-07-20T09:04:30Z",
      "url" : "https://api.github.com/repos/bitcoin/bitcoin/issues/comments/406537586",
      "user" : {
         "avatar_url" : "https://avatars3.githubusercontent.com/u/11912387?v=4",
         "events_url" : "https://api.github.com/users/land-pack/events{/privacy}",
         "followers_url" : "https://api.github.com/users/land-pack/followers",
         "following_url" : "https://api.github.com/users/land-pack/following{/other_user}",
         "gists_url" : "https://api.github.com/users/land-pack/gists{/gist_id}",
         "gravatar_id" : "",
         "html_url" : "https://github.com/land-pack",
         "id" : 11912387,
         "login" : "land-pack",
         "node_id" : "MDQ6VXNlcjExOTEyMzg3",
         "organizations_url" : "https://api.github.com/users/land-pack/orgs",
         "received_events_url" : "https://api.github.com/users/land-pack/received_events",
         "repos_url" : "https://api.github.com/users/land-pack/repos",
         "site_admin" : false,
         "starred_url" : "https://api.github.com/users/land-pack/starred{/owner}{/repo}",
         "subscriptions_url" : "https://api.github.com/users/land-pack/subscriptions",
         "type" : "User",
         "url" : "https://api.github.com/users/land-pack"
      }
   },
   {
      "author_association" : "NONE",
      "body" : "@land-pack Unfortunately, I don't speak C.",
      "created_at" : "2018-07-23T06:41:45Z",
      "html_url" : "https://github.com/bitcoin/bitcoin/issues/11891#issuecomment-406955728",
      "id" : 406955728,
      "issue_url" : "https://api.github.com/repos/bitcoin/bitcoin/issues/11891",
      "node_id" : "MDEyOklzc3VlQ29tbWVudDQwNjk1NTcyOA==",
      "updated_at" : "2018-07-23T06:41:45Z",
      "url" : "https://api.github.com/repos/bitcoin/bitcoin/issues/comments/406955728",
      "user" : {
         "avatar_url" : "https://avatars1.githubusercontent.com/u/244946?v=4",
         "events_url" : "https://api.github.com/users/tdiesler/events{/privacy}",
         "followers_url" : "https://api.github.com/users/tdiesler/followers",
         "following_url" : "https://api.github.com/users/tdiesler/following{/other_user}",
         "gists_url" : "https://api.github.com/users/tdiesler/gists{/gist_id}",
         "gravatar_id" : "",
         "html_url" : "https://github.com/tdiesler",
         "id" : 244946,
         "login" : "tdiesler",
         "node_id" : "MDQ6VXNlcjI0NDk0Ng==",
         "organizations_url" : "https://api.github.com/users/tdiesler/orgs",
         "received_events_url" : "https://api.github.com/users/tdiesler/received_events",
         "repos_url" : "https://api.github.com/users/tdiesler/repos",
         "site_admin" : false,
         "starred_url" : "https://api.github.com/users/tdiesler/starred{/owner}{/repo}",
         "subscriptions_url" : "https://api.github.com/users/tdiesler/subscriptions",
         "type" : "User",
         "url" : "https://api.github.com/users/tdiesler"
      }
   },
   {
      "author_association" : "NONE",
      "body" : "Hi sir, just want to ask if you have already a fix with this issue, I encounter the same error using bitcoin core console. \r\ncreaterawtransaction:\r\n![screenshot from 2018-08-30 12-59-20](https://user-images.githubusercontent.com/37716672/44834850-e300fd00-ac64-11e8-83a8-d9c403423294.png)\r\nsignrawtransaction:\r\n![screenshot from 2018-08-30 13-01-29](https://user-images.githubusercontent.com/37716672/44834876-ef855580-ac64-11e8-8b54-ae41f2c9fb0d.png)\r\nsendrawtransaction:\r\n![screenshot from 2018-08-30 13-02-02](https://user-images.githubusercontent.com/37716672/44834893-f8762700-ac64-11e8-8785-43c8701c61ad.png)\r\nhope you could help me.",
      "created_at" : "2018-08-30T06:58:43Z",
      "html_url" : "https://github.com/bitcoin/bitcoin/issues/11891#issuecomment-417210787",
      "id" : 417210787,
      "issue_url" : "https://api.github.com/repos/bitcoin/bitcoin/issues/11891",
      "node_id" : "MDEyOklzc3VlQ29tbWVudDQxNzIxMDc4Nw==",
      "updated_at" : "2018-08-30T06:58:43Z",
      "url" : "https://api.github.com/repos/bitcoin/bitcoin/issues/comments/417210787",
      "user" : {
         "avatar_url" : "https://avatars0.githubusercontent.com/u/37716672?v=4",
         "events_url" : "https://api.github.com/users/Gillian217/events{/privacy}",
         "followers_url" : "https://api.github.com/users/Gillian217/followers",
         "following_url" : "https://api.github.com/users/Gillian217/following{/other_user}",
         "gists_url" : "https://api.github.com/users/Gillian217/gists{/gist_id}",
         "gravatar_id" : "",
         "html_url" : "https://github.com/Gillian217",
         "id" : 37716672,
         "login" : "Gillian217",
         "node_id" : "MDQ6VXNlcjM3NzE2Njcy",
         "organizations_url" : "https://api.github.com/users/Gillian217/orgs",
         "received_events_url" : "https://api.github.com/users/Gillian217/received_events",
         "repos_url" : "https://api.github.com/users/Gillian217/repos",
         "site_admin" : false,
         "starred_url" : "https://api.github.com/users/Gillian217/starred{/owner}{/repo}",
         "subscriptions_url" : "https://api.github.com/users/Gillian217/subscriptions",
         "type" : "User",
         "url" : "https://api.github.com/users/Gillian217"
      }
   }
]
