{
   "assignee" : null,
   "assignees" : [],
   "author_association" : "NONE",
   "body" : "I decode the raw tx, it show me different txid and hash\r\nIn P2PKH tx, it always show me the same value between txid and hash.\r\nwhy it is different value between  txid and hash when tx has segwit tx in it?\r\nand what is diffrence between txid and hash?\r\n```\r\nbitcoind.exe --version\r\nBitcoin Core Daemon version v0.16.0\r\nCopyright (C) 2009-2018 The Bitcoin Core developers\r\n\r\n```\r\n\r\n**\"txid\": \"f1c01f5c91685380bf266852bc07eee623ccb774562b1cc531394573af0c9da6\",\r\n\"hash\": \"87432c4bad6eb0d8f1ee47d8dcbbebbcf4aeb23e61efe5b42517373ce988e3d7\",**\r\n\r\n```\r\ndecoderawtransaction  010000000001014e36e658e8a9d9c2b0706163a72b2c97a0e4a327f09f431699221f1489dc57c50000000000ffffffff020084d717000000001976a914789b5fae3229db03a2d172462a0675c7c2a318fb88ac1c6aeb0b00000000160014d7011e7ae8d80d54d0381b3e3c8374f63edb46450247304402206751719909ab5344cb9890d51e20c47148914014c930755c5232f66f8a56ed460220521190b717305ace29bf76c9026168fca8bbc9c52d876e760cd7ffe72f0058c80121038f8cede3b7d3bbe9371fbaa68be802f06b548b61d101119e40c4e873fda7541200000000\r\n{\r\n  \"txid\": \"f1c01f5c91685380bf266852bc07eee623ccb774562b1cc531394573af0c9da6\",\r\n  \"hash\": \"87432c4bad6eb0d8f1ee47d8dcbbebbcf4aeb23e61efe5b42517373ce988e3d7\",\r\n  \"version\": 1,\r\n  \"size\": 225,\r\n  \"vsize\": 144,\r\n  \"locktime\": 0,\r\n  \"vin\": [\r\n    {\r\n      \"txid\": \"c557dc89141f229916439ff027a3e4a0972c2ba7636170b0c2d9a9e858e6364e\",\r\n      \"vout\": 0,\r\n      \"scriptSig\": {\r\n        \"asm\": \"\",\r\n        \"hex\": \"\"\r\n      },\r\n      \"txinwitness\": [\r\n        \"304402206751719909ab5344cb9890d51e20c47148914014c930755c5232f66f8a56ed460220521190b717305ace29bf76c9026168fca8bbc9c52d876e760cd7ffe72f0058c801\",\r\n        \"038f8cede3b7d3bbe9371fbaa68be802f06b548b61d101119e40c4e873fda75412\"\r\n      ],\r\n      \"sequence\": 4294967295\r\n    }\r\n  ],\r\n  \"vout\": [\r\n    {\r\n      \"value\": 4.00000000,\r\n      \"n\": 0,\r\n      \"scriptPubKey\": {\r\n        \"asm\": \"OP_DUP OP_HASH160 789b5fae3229db03a2d172462a0675c7c2a318fb OP_EQUALVERIFY OP_CHECKSIG\",\r\n        \"hex\": \"76a914789b5fae3229db03a2d172462a0675c7c2a318fb88ac\",\r\n        \"reqSigs\": 1,\r\n        \"type\": \"pubkeyhash\",\r\n        \"addresses\": [\r\n          \"mrWfWdZcyCjtWqxHmusiYVvwcBatNNKZph\"\r\n        ]\r\n      }\r\n    },\r\n    {\r\n      \"value\": 1.99977500,\r\n      \"n\": 1,\r\n      \"scriptPubKey\": {\r\n        \"asm\": \"0 d7011e7ae8d80d54d0381b3e3c8374f63edb4645\",\r\n        \"hex\": \"0014d7011e7ae8d80d54d0381b3e3c8374f63edb4645\",\r\n        \"reqSigs\": 1,\r\n        \"type\": \"witness_v0_keyhash\",\r\n        \"addresses\": [\r\n          \"tb1q6uq3u7hgmqx4f5pcrvlreqm57cldk3j9xdq2f0\"\r\n        ]\r\n      }\r\n    }\r\n  ]\r\n}\r\n\r\n```",
   "closed_at" : null,
   "closed_by" : null,
   "comments" : 1,
   "comments_url" : "https://api.github.com/repos/bitcoin/bitcoin/issues/12575/comments",
   "created_at" : "2018-03-01T12:00:43Z",
   "events_url" : "https://api.github.com/repos/bitcoin/bitcoin/issues/12575/events",
   "html_url" : "https://github.com/bitcoin/bitcoin/issues/12575",
   "id" : 301379319,
   "labels" : [],
   "labels_url" : "https://api.github.com/repos/bitcoin/bitcoin/issues/12575/labels{/name}",
   "locked" : false,
   "milestone" : null,
   "number" : 12575,
   "repository_url" : "https://api.github.com/repos/bitcoin/bitcoin",
   "state" : "open",
   "title" : "does P2WPKH decoderawtransaction tx always has different txid and hash?",
   "updated_at" : "2018-03-01T12:32:56Z",
   "url" : "https://api.github.com/repos/bitcoin/bitcoin/issues/12575",
   "user" : {
      "avatar_url" : "https://avatars1.githubusercontent.com/u/23724965?v=4",
      "events_url" : "https://api.github.com/users/passionofvc/events{/privacy}",
      "followers_url" : "https://api.github.com/users/passionofvc/followers",
      "following_url" : "https://api.github.com/users/passionofvc/following{/other_user}",
      "gists_url" : "https://api.github.com/users/passionofvc/gists{/gist_id}",
      "gravatar_id" : "",
      "html_url" : "https://github.com/passionofvc",
      "id" : 23724965,
      "login" : "passionofvc",
      "organizations_url" : "https://api.github.com/users/passionofvc/orgs",
      "received_events_url" : "https://api.github.com/users/passionofvc/received_events",
      "repos_url" : "https://api.github.com/users/passionofvc/repos",
      "site_admin" : false,
      "starred_url" : "https://api.github.com/users/passionofvc/starred{/owner}{/repo}",
      "subscriptions_url" : "https://api.github.com/users/passionofvc/subscriptions",
      "type" : "User",
      "url" : "https://api.github.com/users/passionofvc"
   }
}
